{
  "_format": "hh-sol-artifact-1",
  "contractName": "Rain721A",
  "sourceName": "contracts/Rain721A.sol",
  "abi": [
    {
      "inputs": [
        {
          "components": [
            {
              "internalType": "string",
              "name": "name",
              "type": "string"
            },
            {
              "internalType": "string",
              "name": "symbol",
              "type": "string"
            },
            {
              "internalType": "string",
              "name": "baseURI",
              "type": "string"
            },
            {
              "internalType": "uint256",
              "name": "supplyLimit",
              "type": "uint256"
            },
            {
              "internalType": "address",
              "name": "recipient",
              "type": "address"
            },
            {
              "internalType": "address",
              "name": "owner",
              "type": "address"
            }
          ],
          "internalType": "struct ConstructorConfig",
          "name": "config_",
          "type": "tuple"
        }
      ],
      "stateMutability": "nonpayable",
      "type": "constructor"
    },
    {
      "inputs": [],
      "name": "ApprovalCallerNotOwnerNorApproved",
      "type": "error"
    },
    {
      "inputs": [],
      "name": "ApprovalQueryForNonexistentToken",
      "type": "error"
    },
    {
      "inputs": [],
      "name": "ApprovalToCurrentOwner",
      "type": "error"
    },
    {
      "inputs": [],
      "name": "ApproveToCaller",
      "type": "error"
    },
    {
      "inputs": [],
      "name": "BalanceQueryForZeroAddress",
      "type": "error"
    },
    {
      "inputs": [
        {
          "internalType": "uint256",
          "name": "_size",
          "type": "uint256"
        },
        {
          "internalType": "uint256",
          "name": "_start",
          "type": "uint256"
        },
        {
          "internalType": "uint256",
          "name": "_end",
          "type": "uint256"
        }
      ],
      "name": "InvalidCodeAtRange",
      "type": "error"
    },
    {
      "inputs": [],
      "name": "MintToZeroAddress",
      "type": "error"
    },
    {
      "inputs": [],
      "name": "MintZeroQuantity",
      "type": "error"
    },
    {
      "inputs": [],
      "name": "OwnerQueryForNonexistentToken",
      "type": "error"
    },
    {
      "inputs": [],
      "name": "TransferCallerNotOwnerNorApproved",
      "type": "error"
    },
    {
      "inputs": [],
      "name": "TransferFromIncorrectOwner",
      "type": "error"
    },
    {
      "inputs": [],
      "name": "TransferToNonERC721ReceiverImplementer",
      "type": "error"
    },
    {
      "inputs": [],
      "name": "TransferToZeroAddress",
      "type": "error"
    },
    {
      "inputs": [],
      "name": "URIQueryForNonexistentToken",
      "type": "error"
    },
    {
      "inputs": [],
      "name": "WriteError",
      "type": "error"
    },
    {
      "anonymous": false,
      "inputs": [
        {
          "indexed": true,
          "internalType": "address",
          "name": "owner",
          "type": "address"
        },
        {
          "indexed": true,
          "internalType": "address",
          "name": "approved",
          "type": "address"
        },
        {
          "indexed": true,
          "internalType": "uint256",
          "name": "tokenId",
          "type": "uint256"
        }
      ],
      "name": "Approval",
      "type": "event"
    },
    {
      "anonymous": false,
      "inputs": [
        {
          "indexed": true,
          "internalType": "address",
          "name": "owner",
          "type": "address"
        },
        {
          "indexed": true,
          "internalType": "address",
          "name": "operator",
          "type": "address"
        },
        {
          "indexed": false,
          "internalType": "bool",
          "name": "approved",
          "type": "bool"
        }
      ],
      "name": "ApprovalForAll",
      "type": "event"
    },
    {
      "anonymous": false,
      "inputs": [
        {
          "components": [
            {
              "internalType": "string",
              "name": "name",
              "type": "string"
            },
            {
              "internalType": "string",
              "name": "symbol",
              "type": "string"
            },
            {
              "internalType": "string",
              "name": "baseURI",
              "type": "string"
            },
            {
              "internalType": "uint256",
              "name": "supplyLimit",
              "type": "uint256"
            },
            {
              "internalType": "address",
              "name": "recipient",
              "type": "address"
            },
            {
              "internalType": "address",
              "name": "owner",
              "type": "address"
            }
          ],
          "indexed": false,
          "internalType": "struct ConstructorConfig",
          "name": "config_",
          "type": "tuple"
        }
      ],
      "name": "Construct",
      "type": "event"
    },
    {
      "anonymous": false,
      "inputs": [
        {
          "components": [
            {
              "internalType": "address",
              "name": "currency",
              "type": "address"
            },
            {
              "internalType": "address",
              "name": "vmStateBuilder",
              "type": "address"
            },
            {
              "components": [
                {
                  "internalType": "bytes[]",
                  "name": "sources",
                  "type": "bytes[]"
                },
                {
                  "internalType": "uint256[]",
                  "name": "constants",
                  "type": "uint256[]"
                }
              ],
              "internalType": "struct StateConfig",
              "name": "vmStateConfig",
              "type": "tuple"
            }
          ],
          "indexed": false,
          "internalType": "struct InitializeConfig",
          "name": "config_",
          "type": "tuple"
        }
      ],
      "name": "Initialize",
      "type": "event"
    },
    {
      "anonymous": false,
      "inputs": [
        {
          "indexed": true,
          "internalType": "address",
          "name": "previousOwner",
          "type": "address"
        },
        {
          "indexed": true,
          "internalType": "address",
          "name": "newOwner",
          "type": "address"
        }
      ],
      "name": "OwnershipTransferred",
      "type": "event"
    },
    {
      "anonymous": false,
      "inputs": [
        {
          "indexed": false,
          "internalType": "address",
          "name": "newRecipient",
          "type": "address"
        }
      ],
      "name": "RecipientChanged",
      "type": "event"
    },
    {
      "anonymous": false,
      "inputs": [
        {
          "indexed": true,
          "internalType": "address",
          "name": "from",
          "type": "address"
        },
        {
          "indexed": true,
          "internalType": "address",
          "name": "to",
          "type": "address"
        },
        {
          "indexed": true,
          "internalType": "uint256",
          "name": "tokenId",
          "type": "uint256"
        }
      ],
      "name": "Transfer",
      "type": "event"
    },
    {
      "anonymous": false,
      "inputs": [
        {
          "indexed": false,
          "internalType": "address",
          "name": "withdrawer",
          "type": "address"
        },
        {
          "indexed": false,
          "internalType": "uint256",
          "name": "amountWithdrawn",
          "type": "uint256"
        },
        {
          "indexed": false,
          "internalType": "uint256",
          "name": "totalWithdrawn",
          "type": "uint256"
        }
      ],
      "name": "Withdraw",
      "type": "event"
    },
    {
      "inputs": [],
      "name": "amountPayable",
      "outputs": [
        {
          "internalType": "uint256",
          "name": "",
          "type": "uint256"
        }
      ],
      "stateMutability": "view",
      "type": "function"
    },
    {
      "inputs": [
        {
          "internalType": "address",
          "name": "to",
          "type": "address"
        },
        {
          "internalType": "uint256",
          "name": "tokenId",
          "type": "uint256"
        }
      ],
      "name": "approve",
      "outputs": [],
      "stateMutability": "nonpayable",
      "type": "function"
    },
    {
      "inputs": [
        {
          "internalType": "address",
          "name": "owner",
          "type": "address"
        }
      ],
      "name": "balanceOf",
      "outputs": [
        {
          "internalType": "uint256",
          "name": "",
          "type": "uint256"
        }
      ],
      "stateMutability": "view",
      "type": "function"
    },
    {
      "inputs": [],
      "name": "baseURI",
      "outputs": [
        {
          "internalType": "string",
          "name": "",
          "type": "string"
        }
      ],
      "stateMutability": "view",
      "type": "function"
    },
    {
      "inputs": [
        {
          "internalType": "uint256",
          "name": "tokenId",
          "type": "uint256"
        }
      ],
      "name": "burn",
      "outputs": [],
      "stateMutability": "nonpayable",
      "type": "function"
    },
    {
      "inputs": [
        {
          "internalType": "address",
          "name": "account_",
          "type": "address"
        }
      ],
      "name": "calculateBuy",
      "outputs": [
        {
          "internalType": "uint256",
          "name": "maxUnits_",
          "type": "uint256"
        },
        {
          "internalType": "uint256",
          "name": "price_",
          "type": "uint256"
        }
      ],
      "stateMutability": "nonpayable",
      "type": "function"
    },
    {
      "inputs": [],
      "name": "currency",
      "outputs": [
        {
          "internalType": "address",
          "name": "",
          "type": "address"
        }
      ],
      "stateMutability": "view",
      "type": "function"
    },
    {
      "inputs": [],
      "name": "fnPtrs",
      "outputs": [
        {
          "internalType": "bytes",
          "name": "",
          "type": "bytes"
        }
      ],
      "stateMutability": "pure",
      "type": "function"
    },
    {
      "inputs": [
        {
          "internalType": "uint256",
          "name": "tokenId",
          "type": "uint256"
        }
      ],
      "name": "getApproved",
      "outputs": [
        {
          "internalType": "address",
          "name": "",
          "type": "address"
        }
      ],
      "stateMutability": "view",
      "type": "function"
    },
    {
      "inputs": [
        {
          "components": [
            {
              "internalType": "address",
              "name": "currency",
              "type": "address"
            },
            {
              "internalType": "address",
              "name": "vmStateBuilder",
              "type": "address"
            },
            {
              "components": [
                {
                  "internalType": "bytes[]",
                  "name": "sources",
                  "type": "bytes[]"
                },
                {
                  "internalType": "uint256[]",
                  "name": "constants",
                  "type": "uint256[]"
                }
              ],
              "internalType": "struct StateConfig",
              "name": "vmStateConfig",
              "type": "tuple"
            }
          ],
          "internalType": "struct InitializeConfig",
          "name": "config_",
          "type": "tuple"
        }
      ],
      "name": "initialize",
      "outputs": [],
      "stateMutability": "nonpayable",
      "type": "function"
    },
    {
      "inputs": [
        {
          "internalType": "address",
          "name": "owner",
          "type": "address"
        },
        {
          "internalType": "address",
          "name": "operator",
          "type": "address"
        }
      ],
      "name": "isApprovedForAll",
      "outputs": [
        {
          "internalType": "bool",
          "name": "",
          "type": "bool"
        }
      ],
      "stateMutability": "view",
      "type": "function"
    },
    {
      "inputs": [
        {
          "internalType": "uint256",
          "name": "units_",
          "type": "uint256"
        }
      ],
      "name": "mintNFT",
      "outputs": [],
      "stateMutability": "payable",
      "type": "function"
    },
    {
      "inputs": [],
      "name": "name",
      "outputs": [
        {
          "internalType": "string",
          "name": "",
          "type": "string"
        }
      ],
      "stateMutability": "view",
      "type": "function"
    },
    {
      "inputs": [],
      "name": "owner",
      "outputs": [
        {
          "internalType": "address",
          "name": "",
          "type": "address"
        }
      ],
      "stateMutability": "view",
      "type": "function"
    },
    {
      "inputs": [
        {
          "internalType": "uint256",
          "name": "tokenId",
          "type": "uint256"
        }
      ],
      "name": "ownerOf",
      "outputs": [
        {
          "internalType": "address",
          "name": "",
          "type": "address"
        }
      ],
      "stateMutability": "view",
      "type": "function"
    },
    {
      "inputs": [],
      "name": "recipient",
      "outputs": [
        {
          "internalType": "address payable",
          "name": "",
          "type": "address"
        }
      ],
      "stateMutability": "view",
      "type": "function"
    },
    {
      "inputs": [],
      "name": "renounceOwnership",
      "outputs": [],
      "stateMutability": "nonpayable",
      "type": "function"
    },
    {
      "inputs": [
        {
          "internalType": "address",
          "name": "from",
          "type": "address"
        },
        {
          "internalType": "address",
          "name": "to",
          "type": "address"
        },
        {
          "internalType": "uint256",
          "name": "tokenId",
          "type": "uint256"
        }
      ],
      "name": "safeTransferFrom",
      "outputs": [],
      "stateMutability": "nonpayable",
      "type": "function"
    },
    {
      "inputs": [
        {
          "internalType": "address",
          "name": "from",
          "type": "address"
        },
        {
          "internalType": "address",
          "name": "to",
          "type": "address"
        },
        {
          "internalType": "uint256",
          "name": "tokenId",
          "type": "uint256"
        },
        {
          "internalType": "bytes",
          "name": "_data",
          "type": "bytes"
        }
      ],
      "name": "safeTransferFrom",
      "outputs": [],
      "stateMutability": "nonpayable",
      "type": "function"
    },
    {
      "inputs": [
        {
          "internalType": "address",
          "name": "operator",
          "type": "address"
        },
        {
          "internalType": "bool",
          "name": "approved",
          "type": "bool"
        }
      ],
      "name": "setApprovalForAll",
      "outputs": [],
      "stateMutability": "nonpayable",
      "type": "function"
    },
    {
      "inputs": [
        {
          "internalType": "address",
          "name": "newRecipient",
          "type": "address"
        }
      ],
      "name": "setRecipient",
      "outputs": [],
      "stateMutability": "nonpayable",
      "type": "function"
    },
    {
      "inputs": [],
      "name": "storageOpcodesRange",
      "outputs": [
        {
          "components": [
            {
              "internalType": "uint256",
              "name": "pointer",
              "type": "uint256"
            },
            {
              "internalType": "uint256",
              "name": "length",
              "type": "uint256"
            }
          ],
          "internalType": "struct StorageOpcodesRange",
          "name": "",
          "type": "tuple"
        }
      ],
      "stateMutability": "pure",
      "type": "function"
    },
    {
      "inputs": [],
      "name": "supplyLimit",
      "outputs": [
        {
          "internalType": "uint256",
          "name": "",
          "type": "uint256"
        }
      ],
      "stateMutability": "view",
      "type": "function"
    },
    {
      "inputs": [
        {
          "internalType": "bytes4",
          "name": "interfaceId",
          "type": "bytes4"
        }
      ],
      "name": "supportsInterface",
      "outputs": [
        {
          "internalType": "bool",
          "name": "",
          "type": "bool"
        }
      ],
      "stateMutability": "view",
      "type": "function"
    },
    {
      "inputs": [],
      "name": "symbol",
      "outputs": [
        {
          "internalType": "string",
          "name": "",
          "type": "string"
        }
      ],
      "stateMutability": "view",
      "type": "function"
    },
    {
      "inputs": [
        {
          "internalType": "uint256",
          "name": "tokenId",
          "type": "uint256"
        }
      ],
      "name": "tokenURI",
      "outputs": [
        {
          "internalType": "string",
          "name": "",
          "type": "string"
        }
      ],
      "stateMutability": "view",
      "type": "function"
    },
    {
      "inputs": [],
      "name": "totalSupply",
      "outputs": [
        {
          "internalType": "uint256",
          "name": "",
          "type": "uint256"
        }
      ],
      "stateMutability": "view",
      "type": "function"
    },
    {
      "inputs": [
        {
          "internalType": "address",
          "name": "from",
          "type": "address"
        },
        {
          "internalType": "address",
          "name": "to",
          "type": "address"
        },
        {
          "internalType": "uint256",
          "name": "tokenId",
          "type": "uint256"
        }
      ],
      "name": "transferFrom",
      "outputs": [],
      "stateMutability": "nonpayable",
      "type": "function"
    },
    {
      "inputs": [
        {
          "internalType": "address",
          "name": "newOwner",
          "type": "address"
        }
      ],
      "name": "transferOwnership",
      "outputs": [],
      "stateMutability": "nonpayable",
      "type": "function"
    },
    {
      "inputs": [],
      "name": "withdraw",
      "outputs": [],
      "stateMutability": "nonpayable",
      "type": "function"
    }
  ],
  "bytecode": "0x60806040523480156200001157600080fd5b5060405162004a0738038062004a07833981016040819052620000349162000511565b805160208083015182519091620000519160029185019062000349565b5080516200006790600390602084019062000349565b50506001600055506200007a33620000fe565b6060810151600955604081015180516200009d91600f9160209091019062000349565b506080810151620000ae9062000150565b60a0810151620000be906200026c565b7fd7f0aec5609c15287b8167027c20cb2a698ddbd97324878bc6daa6cd67f8564e81604051620000ef919062000631565b60405180910390a15062000705565b600880546001600160a01b038381166001600160a01b0319831681179093556040519116919082907f8be0079c531659141344cd1fd0a4f28419497f9722a3daafe3b4186f6b6457e090600090a35050565b600e546001600160a01b0316331480620001735750600e546001600160a01b0316155b620001b65760405162461bcd60e51b815260206004820152600e60248201526d524543495049454e545f4f4e4c5960901b60448201526064015b60405180910390fd5b6001600160a01b0381163b158015620001d757506001600160a01b03811615155b620002185760405162461bcd60e51b815260206004820152601060248201526f24a72b20a624a22fa0a2222922a9a99760811b6044820152606401620001ad565b600e80546001600160a01b0319166001600160a01b0383169081179091556040519081527fff2d07bd188a9eb41acbc4a7db39e18956c95ab7f54f434d97849bf6206e577c9060200160405180910390a150565b62000276620002eb565b6001600160a01b038116620002dd5760405162461bcd60e51b815260206004820152602660248201527f4f776e61626c653a206e6577206f776e657220697320746865207a65726f206160448201526564647265737360d01b6064820152608401620001ad565b620002e881620000fe565b50565b6008546001600160a01b03163314620003475760405162461bcd60e51b815260206004820181905260248201527f4f776e61626c653a2063616c6c6572206973206e6f7420746865206f776e65726044820152606401620001ad565b565b8280546200035790620006c8565b90600052602060002090601f0160209004810192826200037b5760008555620003c6565b82601f106200039657805160ff1916838001178555620003c6565b82800160010185558215620003c6579182015b82811115620003c6578251825591602001919060010190620003a9565b50620003d4929150620003d8565b5090565b5b80821115620003d45760008155600101620003d9565b634e487b7160e01b600052604160045260246000fd5b60405160c081016001600160401b03811182821017156200042a576200042a620003ef565b60405290565b60005b838110156200044d57818101518382015260200162000433565b838111156200045d576000848401525b50505050565b600082601f8301126200047557600080fd5b81516001600160401b0380821115620004925762000492620003ef565b604051601f8301601f19908116603f01168101908282118183101715620004bd57620004bd620003ef565b81604052838152866020858801011115620004d757600080fd5b620004ea84602083016020890162000430565b9695505050505050565b80516001600160a01b03811681146200050c57600080fd5b919050565b6000602082840312156200052457600080fd5b81516001600160401b03808211156200053c57600080fd5b9083019060c082860312156200055157600080fd5b6200055b62000405565b8251828111156200056b57600080fd5b620005798782860162000463565b8252506020830151828111156200058f57600080fd5b6200059d8782860162000463565b602083015250604083015182811115620005b657600080fd5b620005c48782860162000463565b60408301525060608301516060820152620005e260808401620004f4565b6080820152620005f560a08401620004f4565b60a082015295945050505050565b600081518084526200061d81602086016020860162000430565b601f01601f19169290920160200192915050565b602081526000825160c060208401526200064f60e084018262000603565b90506020840151601f19808584030160408601526200066f838362000603565b92506040860151915080858403016060860152506200068f828262000603565b91505060608401516080840152608084015160018060a01b0380821660a08601528060a08701511660c086015250508091505092915050565b600181811c90821680620006dd57607f821691505b60208210811415620006ff57634e487b7160e01b600052602260045260246000fd5b50919050565b6142f280620007156000396000f3fe60806040526004361061018d5760003560e01c806366d003ac116100d7578063a22cb46511610085578063a22cb46514610441578063b88d4fde14610461578063c87b56dd14610481578063e0419ae3146104a1578063e5a6b10f146104ea578063e985e9c51461050a578063f2cd6c081461052a578063f2fde38b1461053f57600080fd5b806366d003ac146103915780636c0360eb146103b157806370a08231146103c6578063715018a6146103e65780638da5cb5b146103fb578063926427441461041957806395d89b411461042c57600080fd5b8063240a95ab1161013f578063240a95ab1461029157806334dc96c5146102c657806336e0d218146102dc5780633bbed4a0146102fc5780633ccfd60b1461031c57806342842e0e1461033157806342966c68146103515780636352211e1461037157600080fd5b806301ffc9a71461019257806306fdde03146101c7578063081812fc146101e9578063095ea7b31461021657806318160ddd1461023857806319d1997a1461025b57806323b872dd14610271575b600080fd5b34801561019e57600080fd5b506101b26101ad366004613493565b61055f565b60405190151581526020015b60405180910390f35b3480156101d357600080fd5b506101dc6105b1565b6040516101be9190613508565b3480156101f557600080fd5b5061020961020436600461351b565b610643565b6040516101be9190613534565b34801561022257600080fd5b5061023661023136600461355d565b610687565b005b34801561024457600080fd5b5061024d61070e565b6040519081526020016101be565b34801561026757600080fd5b5061024d60095481565b34801561027d57600080fd5b5061023661028c366004613589565b61071c565b34801561029d57600080fd5b506102b16102ac3660046135ca565b610727565b604080519283526020830191909152016101be565b3480156102d257600080fd5b5061024d600b5481565b3480156102e857600080fd5b506102366102f736600461377d565b610825565b34801561030857600080fd5b506102366103173660046135ca565b6109d5565b34801561032857600080fd5b50610236610ac8565b34801561033d57600080fd5b5061023661034c366004613589565b610c3b565b34801561035d57600080fd5b5061023661036c36600461351b565b610c56565b34801561037d57600080fd5b5061020961038c36600461351b565b610c64565b34801561039d57600080fd5b50600e54610209906001600160a01b031681565b3480156103bd57600080fd5b506101dc610c76565b3480156103d257600080fd5b5061024d6103e13660046135ca565b610d04565b3480156103f257600080fd5b50610236610d52565b34801561040757600080fd5b506008546001600160a01b0316610209565b61023661042736600461351b565b610d66565b34801561043857600080fd5b506101dc610eac565b34801561044d57600080fd5b5061023661045c3660046138dc565b610ebb565b34801561046d57600080fd5b5061023661047c366004613915565b610f51565b34801561048d57600080fd5b506101dc61049c36600461351b565b610f9b565b3480156104ad57600080fd5b50604080518082018252600080825260209182015281518083018352600980825260039183019182528351908152905191810191909152016101be565b3480156104f657600080fd5b50600d54610209906001600160a01b031681565b34801561051657600080fd5b506101b2610525366004613980565b610ff5565b34801561053657600080fd5b506101dc611023565b34801561054b57600080fd5b5061023661055a3660046135ca565b61105a565b60006001600160e01b031982166380ac58cd60e01b148061059057506001600160e01b03198216635b5e139f60e01b145b806105ab57506301ffc9a760e01b6001600160e01b03198316145b92915050565b6060600280546105c0906139ae565b80601f01602080910402602001604051908101604052809291908181526020018280546105ec906139ae565b80156106395780601f1061060e57610100808354040283529160200191610639565b820191906000526020600020905b81548152906001019060200180831161061c57829003601f168201915b5050505050905090565b600061064e826110d0565b61066b576040516333d1c03960e21b815260040160405180910390fd5b506000908152600660205260409020546001600160a01b031690565b600061069282610c64565b9050806001600160a01b0316836001600160a01b031614156106c75760405163250fdee360e21b815260040160405180910390fd5b336001600160a01b038216146106fe576106e18133610ff5565b6106fe576040516367d9dca160e11b815260040160405180910390fd5b610709838383611109565b505050565b600154600054036000190190565b610709838383611165565b600c5460009081906001600160a01b031661077b5760405162461bcd60e51b815260206004820152600f60248201526e1393d517d253925512505312569151608a1b60448201526064015b60405180910390fd5b600061078561133e565b604080516020808252818301909252919250600091906020820181803683370190505090508460208201526107bc81836000611369565b50602082015182516107d0906002906139f9565b815181106107e0576107e0613a10565b60200260200101518260200151600184600001516107fe91906139f9565b8151811061080e5761080e613a10565b602002602001015180945081955050505050915091565b600c546001600160a01b03161561086c5760405162461bcd60e51b815260206004820152600b60248201526a125392551250531256915160aa1b6044820152606401610772565b8051600d80546001600160a01b0319166001600160a01b03909216919091179055610895613411565b600080825260408051600180825281830190925290816020015b6108b7613411565b8152602001906001900390816108af57905050905081816000815181106108e0576108e0613a10565b6020026020010181905250600083602001516001600160a01b03166317376ae0308660400151856040518463ffffffff1660e01b815260040161092593929190613aed565b6000604051808303816000875af1158015610944573d6000803e3d6000fd5b505050506040513d6000823e601f3d908101601f1916820160405261096c9190810190613b94565b9050610977816115ee565b600c80546001600160a01b0319166001600160a01b03929092169190911790556040517f3f37d51ecb0008561833028a431296e58b2663e284d205bafca4237c47c958b2906109c7908690613c01565b60405180910390a150505050565b600e546001600160a01b03163314806109f75750600e546001600160a01b0316155b610a135760405162461bcd60e51b815260040161077290613c3c565b6001600160a01b0381163b158015610a3357506001600160a01b03811615155b610a725760405162461bcd60e51b815260206004820152601060248201526f24a72b20a624a22fa0a2222922a9a99760811b6044820152606401610772565b600e80546001600160a01b0319166001600160a01b0383161790556040517fff2d07bd188a9eb41acbc4a7db39e18956c95ab7f54f434d97849bf6206e577c90610abd908390613534565b60405180910390a150565b600e546001600160a01b03163314610af25760405162461bcd60e51b815260040161077290613c3c565b6000600b5411610b305760405162461bcd60e51b815260206004820152600960248201526816915493d7d195539160ba1b6044820152606401610772565b600b54600a54610b409190613c64565b600a819055600b546040805133815260208101929092528101919091527ff279e6a1f5e320cca91135676d9cb6e44ca8a08c0b88342bcdb1144f6511b5689060600160405180910390a1600d546001600160a01b0316610bb857600e54600b54610bb3916001600160a01b031690611653565b610c34565b600d54600e54600b5460405163a9059cbb60e01b81526001600160a01b039384169363a9059cbb93610bef93911691600401613c7c565b6020604051808303816000875af1158015610c0e573d6000803e3d6000fd5b505050506040513d601f19601f82011682018060405250810190610c329190613c95565b505b6000600b55565b61070983838360405180602001604052806000815250610f51565b610c6181600161176c565b50565b6000610c6f8261191f565b5192915050565b600f8054610c83906139ae565b80601f0160208091040260200160405190810160405280929190818152602001828054610caf906139ae565b8015610cfc5780601f10610cd157610100808354040283529160200191610cfc565b820191906000526020600020905b815481529060010190602001808311610cdf57829003601f168201915b505050505081565b60006001600160a01b038216610d2d576040516323d3ad8160e21b815260040160405180910390fd5b506001600160a01b03166000908152600560205260409020546001600160401b031690565b610d5a611a41565b610d646000611a9b565b565b600080610d7233610727565b90925090506000610d838385611aed565b90506000610d918284613cb2565b600d549091506001600160a01b0316610e0d5780341015610de95760405162461bcd60e51b8152602060048201526012602482015271494e53554646494349454e545f46554e445360701b6044820152606401610772565b6000610df582346139f9565b90508015610e0757610e073382611653565b50610e8a565b600d546040516323b872dd60e01b8152336004820152306024820152604481018390526001600160a01b03909116906323b872dd906064016020604051808303816000875af1158015610e64573d6000803e3d6000fd5b505050506040513d601f19601f82011682018060405250810190610e889190613c95565b505b80600b54610e989190613c64565b600b55610ea53383611b03565b5050505050565b6060600380546105c0906139ae565b6001600160a01b038216331415610ee55760405163b06307db60e01b815260040160405180910390fd5b3360008181526007602090815260408083206001600160a01b03871680855290835292819020805460ff191686151590811790915590519081529192917f17307eab39ab6107e8899845ad3d59bd9653f200f220920489ca2b5937696c31910160405180910390a35050565b610f5c848484611165565b6001600160a01b0383163b15610f9557610f7884848484611c12565b610f95576040516368d2bf6b60e11b815260040160405180910390fd5b50505050565b6060610fa6826110d0565b610fc357604051630a14c4b560e41b815260040160405180910390fd5b600f610fce83611cfb565b604051602001610fdf929190613ced565b6040516020818303038152906040529050919050565b6001600160a01b03918216600090815260076020908152604080832093909416825291909152205460ff1690565b606061102d611df8565b611035611fa9565b604051602001611046929190613daf565b604051602081830303815290604052905090565b611062611a41565b6001600160a01b0381166110c75760405162461bcd60e51b815260206004820152602660248201527f4f776e61626c653a206e6577206f776e657220697320746865207a65726f206160448201526564647265737360d01b6064820152608401610772565b610c6181611a9b565b6000816001111580156110e4575060005482105b80156105ab575050600090815260046020526040902054600160e01b900460ff161590565b60008281526006602052604080822080546001600160a01b0319166001600160a01b0387811691821790925591518593918516917f8c5be1e5ebec7d5bd14f71427d1e84f3dd0314c0f7b2291e5b200ac8c7c3b92591a4505050565b60006111708261191f565b9050836001600160a01b031681600001516001600160a01b0316146111a75760405162a1148160e81b815260040160405180910390fd5b6000336001600160a01b03861614806111c557506111c58533610ff5565b806111e05750336111d584610643565b6001600160a01b0316145b90508061120057604051632ce44b5f60e11b815260040160405180910390fd5b6001600160a01b03841661122757604051633a954ecd60e21b815260040160405180910390fd5b61123360008487611109565b6001600160a01b038581166000908152600560209081526040808320805467ffffffffffffffff198082166001600160401b0392831660001901831617909255898616808652838620805493841693831660019081018416949094179055898652600490945282852080546001600160e01b031916909417600160a01b4290921691909102178355870180845292208054919390911661130757600054821461130757805460208601516001600160401b0316600160a01b026001600160e01b03199091166001600160a01b038a16171781555b50505082846001600160a01b0316866001600160a01b031660008051602061429d83398151915260405160405180910390a4610ea5565b61134661344e565b600c546113649061135f906001600160a01b0316612006565b612016565b905090565b60208281015183516040850151848402018301518051606087015160a088015160009687968796879695948301938284019391820290920101906002015b848910156115d4576003890198508886015180601f1a975061ffff8160081c16985050600688101561157557876113ec57866020028401518252602082019150611588565b600188141561140957602087028301518252602082019150611588565b600288141561146d578c5187602002106114565760405162461bcd60e51b815260206004820152600e60248201526d0869e9ca88ab0a8be988a9c8ea8960931b6044820152606401610772565b866020026020018d01518252602082019150611588565b60038814156114b65760006114a4604080518082018252600080825260209182015281518083019092526009825260039082015290565b51880154835250602090910190611588565b60048814156114d2576114cb8d8d848a61212c565b9150611588565b606087611500578c6040516020016114ea9190613dde565b604051602081830303815290604052905061155f565b6001881415611519576115128d612270565b905061155f565b6002881415611535576020808e01516040516114ea9201613e57565b600388141561155f578c516040805160208101929092520160405160208183030381529060405290505b80511561156f5761156f81612371565b50611588565b87611584888463ffffffff8416565b9250505b60208c0151518c5111156115cf5760405162461bcd60e51b815260206004820152600e60248201526d535441434b5f4f564552464c4f5760901b6044820152606401610772565b6113a7565b6020838303048c52509750505050505050505b9392505050565b600080611619836040516020016116059190613ea3565b6040516020818303038152906040526123b4565b90508051602082016000f091506001600160a01b03821661164d5760405163046a55db60e11b815260040160405180910390fd5b50919050565b804710156116a35760405162461bcd60e51b815260206004820152601d60248201527f416464726573733a20696e73756666696369656e742062616c616e63650000006044820152606401610772565b6000826001600160a01b03168260405160006040518083038185875af1925050503d80600081146116f0576040519150601f19603f3d011682016040523d82523d6000602084013e6116f5565b606091505b50509050806107095760405162461bcd60e51b815260206004820152603a60248201527f416464726573733a20756e61626c6520746f2073656e642076616c75652c207260448201527f6563697069656e74206d617920686176652072657665727465640000000000006064820152608401610772565b60006117778361191f565b805190915082156117dd576000336001600160a01b03831614806117a057506117a08233610ff5565b806117bb5750336117b086610643565b6001600160a01b0316145b9050806117db57604051632ce44b5f60e11b815260040160405180910390fd5b505b6117e960008583611109565b6001600160a01b0380821660008181526005602090815260408083208054600160801b6000196001600160401b0380841691909101811667ffffffffffffffff198416811783900482166001908101831690930277ffffffffffffffff0000000000000000ffffffffffffffff19909416179290921783558b86526004909452828520805460ff60e01b1942909316600160a01b026001600160e01b03199091169097179690961716600160e01b1785559189018084529220805491949091166118e75760005482146118e757805460208701516001600160401b0316600160a01b026001600160e01b03199091166001600160a01b038716171781555b5050604051869250600091506001600160a01b0384169060008051602061429d833981519152908390a4505060018054810190555050565b60408051606081018252600080825260208201819052918101919091528180600111611a2857600054811015611a2857600081815260046020908152604091829020825160608101845290546001600160a01b0381168252600160a01b81046001600160401b031692820192909252600160e01b90910460ff16151591810182905290611a265780516001600160a01b0316156119bd579392505050565b5060001901600081815260046020908152604091829020825160608101845290546001600160a01b038116808352600160a01b82046001600160401b031693830193909352600160e01b900460ff1615159281019290925215611a21579392505050565b6119bd565b505b604051636f96cda160e11b815260040160405180910390fd5b6008546001600160a01b03163314610d645760405162461bcd60e51b815260206004820181905260248201527f4f776e61626c653a2063616c6c6572206973206e6f7420746865206f776e65726044820152606401610772565b600880546001600160a01b038381166001600160a01b0319831681179093556040519116919082907f8be0079c531659141344cd1fd0a4f28419497f9722a3daafe3b4186f6b6457e090600090a35050565b6000818310611afc57816115e7565b5090919050565b6000546001600160a01b038316611b2c57604051622e076360e81b815260040160405180910390fd5b81611b4a5760405163b562e8dd60e01b815260040160405180910390fd5b6001600160a01b038316600081815260056020908152604080832080546001600160801b031981166001600160401b038083168a018116918217600160401b67ffffffffffffffff1990941690921783900481168a01811690920217909155858452600490925290912080546001600160e01b031916909217600160a01b4290921691909102179055808083015b6040516001830192906001600160a01b0387169060009060008051602061429d833981519152908290a4808210611bd85750600055505050565b604051630a85bd0160e11b81526000906001600160a01b0385169063150b7a0290611c47903390899088908890600401613ec9565b6020604051808303816000875af1925050508015611c82575060408051601f3d908101601f19168201909252611c7f91810190613f06565b60015b611cdd573d808015611cb0576040519150601f19603f3d011682016040523d82523d6000602084013e611cb5565b606091505b508051611cd5576040516368d2bf6b60e11b815260040160405180910390fd5b805181602001fd5b6001600160e01b031916630a85bd0160e11b1490505b949350505050565b606081611d1f5750506040805180820190915260018152600360fc1b602082015290565b8160005b8115611d495780611d3381613f23565b9150611d429050600a83613f3e565b9150611d23565b6000816001600160401b03811115611d6357611d636135e7565b6040519080825280601f01601f191660200182016040528015611d8d576020820181803683370190505b5090505b8415611cf357611da26001836139f9565b9150611daf600a86613f52565b611dba906030613c64565b60f81b818381518110611dcf57611dcf613a10565b60200101906001600160f81b031916908160001a905350611df1600a86613f3e565b9450611d91565b604080516105c08082526105e0820190925260609160208201818036833701905050905060006040518061050001604052806123ca815260200161245e81526020016124dd815260200161257b81526020016123ca81526020016125c2815260200161265b81526020016126a88152602001612841815260200161284c81526020016128578152602001612862815260200161286d815260200161288381526020016128ad81526020016128d781526020016128ed8152602001612903815260200161293881526020016129578152602001612971815260200161299a81526020016129b581526020016129c481526020016129df8152602001612a2c8152602001612a6b8152602001612aa98152602001612ae28152602001612b168152602001612b488152602001612b7a8152602001612bac8152602001612be08152602001612c328152602001612c6b8152602001612cbb8152602001612d688152602001612d888152602001612e41815250905060005b6028811015611fa457611f9c60068201838360288110611f8f57611f8f613a10565b6020020151859190612e81565b600101611f6d565b505090565b60408051608080825260a08201909252606091602082018180368337019050509050611fd9816000612ed7612e81565b611fe7816001612eee612e81565b611ff5816002612efe612e81565b612003816003612f3a612e81565b90565b60606105ab826001600019612f76565b61201e61344e565b61202661344e565b60208301805160ff8082168352606084019290925290600882901c166001600160401b03811115612059576120596135e7565b604051908082528060200260200182016040528015612082578160200160208202803683370190505b50602083015260ff601082901c81166080840152601882901c1660606000826001600160401b038111156120b8576120b86135e7565b6040519080825280602002602001820160405280156120e1578160200160208202803683370190505b5090506020870151602002604001870160005b8481101561211b5781602082026020018401528151602001820191506001810190506120f4565b505060408501525091949350505050565b600060078216600383811c1682808261214d5750600019905061010061218e565b826001141561216857506001600160801b039050608061218e565b826002141561218357506001600160401b039050604061218e565b5063ffffffff905060205b6001600587901c016000816001600160401b038111156121b0576121b06135e7565b6040519080825280602002602001820160405280156121d9578160200160208202803683370190505b50905060208082019083028a03815b8b8210156122005781518152602091820191016121e8565b505060608b015160808c015160209081029091010160005b61010081101561225e5760208502830182845b82811015612247578051841c8a1682526020918201910161222b565b5050506122558e8e8b611369565b9b508501612218565b50999c9b505050505050505050505050565b606060008260600151905060006018846040015151901b60108560800151901b6008866020015151901b866060015151171717905060008160001b836040516020016122bc9190613e57565b60408051601f19818403018152908290526122da9291602001613f66565b604051602081830303815290604052905060005b85604001515181101561236857818660400151828151811061231257612312613a10565b60200260200101515160001b8760400151838151811061233457612334613a10565b602002602001015160405160200161234e93929190613f8c565b60408051601f1981840301815291905291506001016122ee565b50949350505050565b610c61816040516024016123859190613508565b60408051601f198184030181529190526020810180516001600160e01b03166305f3bfab60e11b179052613027565b6060815182604051602001610fdf929190613fc3565b603f1981018051601f1990920180516040516370a0823160e01b815291936000939290919084906001600160a01b038416906370a0823190612410908590600401613534565b602060405180830381865afa15801561242d573d6000803e3d6000fd5b505050506040513d601f19601f820116820180604052508101906124519190614014565b9093525092949350505050565b6000806000602084039150815190506000816001600160a01b03166318160ddd6040518163ffffffff1660e01b8152600401602060405180830381865afa1580156124ad573d6000803e3d6000fd5b505050506040513d601f19601f820116820180604052508101906124d19190614014565b90925250919392505050565b605f1981018051603f1983018051601f199094015160405163277166bf60e11b81529194600094939290919085906001600160a01b03851690634ee2cd7e9061252c9086908690600401613c7c565b602060405180830381865afa158015612549573d6000803e3d6000fd5b505050506040513d601f19601f8201168201806040525081019061256d9190614014565b909452509395945050505050565b603f1981018051601f199092018051604051630981b24d60e41b81526004810182905291936000939290919084906001600160a01b0384169063981b24d090602401612410565b603f1981018051601f1990920180516040516331a9108f60e11b81526004810182905291936000939290919084906001600160a01b03841690636352211e90602401602060405180830381865afa158015612621573d6000803e3d6000fd5b505050506040513d601f19601f82011682018060405250810190612645919061402d565b6001600160a01b03169093525092949350505050565b605f1981018051603f1983018051601f1990940151604051627eeac760e11b81529194600094939290919085906001600160a01b0385169062fdd58e9061252c9086908690600401613c7c565b6000806000846001600160401b038111156126c5576126c56135e7565b6040519080825280602002602001820160405280156126ee578160200160208202803683370190505b5090506000856001600160401b0381111561270b5761270b6135e7565b604051908082528060200260200182016040528015612734578160200160208202803683370190505b50604087028603601f1981018051909550919250602080890282019085015b8183101561276b578251815260209283019201612753565b5050602088028101602084015b81831015612790578251815260209283019201612778565b50506040516313849cfd60e21b8152600091506001600160a01b03831690634e1273f4906127c4908790879060040161404a565b600060405180830381865afa1580156127e1573d6000803e3d6000fd5b505050506040513d6000823e601f3d908101601f1916820160405261280991908101906140a0565b9050846020820160208a0281015b80821015612832578151835260209283019290910190612817565b50909998505050505050505050565b438152602001919050565b338152602001919050565b308152602001919050565b428152602001919050565b601f198101805160009190826124d18287613048565b603f1981018051601f19909201805190926000929183612451826128a7858a613048565b906130ab565b603f1981018051601f19909201805190926000929183612451826128d1858a613048565b906130ca565b601f198101805160009190826124d182876130df565b601f198101805160009190826124d1828761312a565b6000602083028203805b8381101561292d578051801561292457825261292d565b5060200161290d565b506020019392505050565b605f1981018051156020028201603f1990810151909152018092915050565b601f1981018051603f199092018051909214909152919050565b6000602083028203805b8381101561292d578051612992576000825261292d565b60200161297b565b601f1981018051603f19909201805192909211909152919050565b601f1981018051159052919050565b601f1981018051603f19909201805192909210909152919050565b6020828102820380516000928201835b85821080156129ff575060001983105b15612a1e57508051602090910190612a17838261316a565b92506129ef565b505081526020019392505050565b6020828102820380516000928201835b8582108015612a4c575060001983105b15612a1e57508051602090910190612a648382613187565b9250612a3c565b6020828102820380516000928201835b8582108015612a8a5750826000105b15612a1e57508051602090910190612aa283826131b6565b9250612a7b565b600060208302820380516000602083015b85811015612a1e5780518301915082821015612ad557600080fd5b9091508190602001612aba565b600060208302820380516000602083015b85811015612a1e578051915081612b0957600080fd5b9181900491602001612af3565b6020828102820380516000928201835b85821015612a1e57508051602090910190612b418184614214565b9250612b26565b6020828102820380516000928201835b85821015612a1e5750805182811115612b6f578092505b602082019150612b58565b6020828102820380516000928201835b85821015612a1e5750805182811015612ba1578092505b602082019150612b8a565b600060208302820380516000602083015b85811015612a1e578051915081612bd357600080fd5b9181900691602001612bbd565b60006020830282038051600080602084015b86811015612c23578315612c1b578051925082840291508284830414612c1757600080fd5b8193505b602001612bf2565b50505081526020019392505050565b600060208302820380516000602083015b85811015612a1e5780518303915082821115612c5e57600080fd5b9091508190602001612c43565b819003603f1981018051601f199092018051848252604051632235a18160e21b8152919360009392909190859085906001600160a01b038516906388d686049061252c9086908690600401614220565b819003605f1981018051603f19830151601f19909301805185825260405163caa0eb3b60e01b815291946000949392909190869086906001600160a01b0386169063caa0eb3b90612d1490879087908790600401614244565b602060405180830381865afa158015612d31573d6000803e3d6000fd5b505050506040513d601f19601f82011682018060405250810190612d559190614014565b8652505060209093019695505050505050565b603f1981018051601f1990920180519092600092918361245183836131cc565b6000600783901c6003600585901c16601f85168380826001600160401b03811115612db557612db56135e7565b604051908082528060200260200182016040528015612dde578160200160208202803683370190505b509050600060206001850102880392506020840283018360005b82821015612e1a57815181602001860152602082019150602081019050612df8565b50505190506000612e2d8383898961322b565b845250506020909101979650505050505050565b603f1981018051601f199092018051909260009291600f80871691600488901c9091169085612e7285858585613321565b90955250949695505050505050565b825160208302908110612ec95760405162461bcd60e51b815260206004820152601060248201526f464e5f505452535f4f564552464c4f5760801b6044820152606401610772565b506020918202929092010152565b600080612ee261070e565b83525050602001919050565b600080612ee26000546000190190565b601f198101805160009190826124d1826001600160a01b03166000908152600560205260409020546001600160401b03600160401b9091041690565b601f198101805160009190826124d1826001600160a01b03166000908152600560205260409020546001600160401b03600160801b9091041690565b6060833b80612f955750506040805160208101909152600081526115e7565b80841115612fb35750506040805160208101909152600081526115e7565b83831015612fe55760405163162544fd60e11b8152600481018290526024810185905260448101849052606401610772565b8383038482036000828210612ffa5782612ffc565b815b60408051603f8301601f19168101909152818152955090508087602087018a3c505050509392505050565b80516a636f6e736f6c652e6c6f67602083016000808483855afa5050505050565b600080826012141561305d57839150506105ab565b82601211156130895750601282900361307781600a614214565b6130819085613cb2565b9150506105ab565b50601119820161309a81600a614214565b6130819085613f3e565b5092915050565b6000816130c0670de0b6b3a764000085613cb2565b6115e79190613f3e565b6000670de0b6b3a76400006130c08385613cb2565b600081810b6130ef5750816105ab565b60008260000b13156131175761310682600a61426b565b6131109084613cb2565b90506105ab565b60ff60008390031661309a81600a614214565b600080601283141561313f57839150506105ab565b82601211156131595750601282900361309a81600a614214565b50601119820161307781600a614214565b600082820183811061317c5780611cf3565b600019949350505050565b600082613196575060006105ab565b828202828482816131a9576131a9613e8d565b04141561317c5780611cf3565b60008183116131c65760006115e7565b50900390565b60008060015b600881116132235760006131e6868361337d565b905060006131f4868461337d565b9050600061320283836131b6565b90506132128560018603836133c2565b945050600190920191506131d29050565b509392505050565b835160009081908190819060015b60088111613313576000925082876132545750600019613258565b5060005b60005b838110156132ef576132868c828151811061327857613278613a10565b60200260200101518461337d565b95508a86116132d857886132a55761329e8683611aed565b91506132cf565b60018914156132b85761329e8683613401565b6002891480156132c6575084155b156132cf578591505b600194506132e7565b896132e75760001991506132ef565b60010161325b565b50836132fa57506000195b6133088660018403836133c2565b955050600101613239565b509298975050505050505050565b60008260088111156133455760405162461bcd60e51b81526004016107729061427a565b6000855b858110156133715763ffffffff6020820290811b199890981685891b17979150600101613349565b50959695505050505050565b60008160088111156133a15760405162461bcd60e51b81526004016107729061427a565b826133af57600091506130a4565b5050600019016020021c63ffffffff1690565b60008260088111156133e65760405162461bcd60e51b81526004016107729061427a565b505063ffffffff602090920291821b199290921691901b1790565b600081831015611afc57816115e7565b6040518060e00160405280600081526020016000815260200160008152602001600081526020016000815260200160008152602001600081525090565b6040518060a0016040528060008152602001606081526020016060815260200160608152602001600081525090565b6001600160e01b031981168114610c6157600080fd5b6000602082840312156134a557600080fd5b81356115e78161347d565b60005b838110156134cb5781810151838201526020016134b3565b83811115610f955750506000910152565b600081518084526134f48160208601602086016134b0565b601f01601f19169290920160200192915050565b6020815260006115e760208301846134dc565b60006020828403121561352d57600080fd5b5035919050565b6001600160a01b0391909116815260200190565b6001600160a01b0381168114610c6157600080fd5b6000806040838503121561357057600080fd5b823561357b81613548565b946020939093013593505050565b60008060006060848603121561359e57600080fd5b83356135a981613548565b925060208401356135b981613548565b929592945050506040919091013590565b6000602082840312156135dc57600080fd5b81356115e781613548565b634e487b7160e01b600052604160045260246000fd5b604051606081016001600160401b038111828210171561361f5761361f6135e7565b60405290565b604080519081016001600160401b038111828210171561361f5761361f6135e7565b604051601f8201601f191681016001600160401b038111828210171561366f5761366f6135e7565b604052919050565b60006001600160401b03821115613690576136906135e7565b5060051b60200190565b60006001600160401b038211156136b3576136b36135e7565b50601f01601f191660200190565b600082601f8301126136d257600080fd5b81356136e56136e08261369a565b613647565b8181528460208386010111156136fa57600080fd5b816020850160208301376000918101602001919091529392505050565b600082601f83011261372857600080fd5b813560206137386136e083613677565b82815260059290921b8401810191818101908684111561375757600080fd5b8286015b84811015613772578035835291830191830161375b565b509695505050505050565b6000602080838503121561379057600080fd5b82356001600160401b03808211156137a757600080fd5b90840190606082870312156137bb57600080fd5b6137c36135fd565b82356137ce81613548565b8152828401356137dd81613548565b818501526040830135828111156137f357600080fd5b92909201916040838803121561380857600080fd5b613810613625565b83358381111561381f57600080fd5b8401601f8101891361383057600080fd5b803561383e6136e082613677565b81815260059190911b8201870190878101908b83111561385d57600080fd5b8884015b83811015613895578035888111156138795760008081fd5b6138878e8c838901016136c1565b845250918901918901613861565b50845250505083850135838111156138ac57600080fd5b6138b889828701613717565b9582019590955260408201529695505050505050565b8015158114610c6157600080fd5b600080604083850312156138ef57600080fd5b82356138fa81613548565b9150602083013561390a816138ce565b809150509250929050565b6000806000806080858703121561392b57600080fd5b843561393681613548565b9350602085013561394681613548565b92506040850135915060608501356001600160401b0381111561396857600080fd5b613974878288016136c1565b91505092959194509250565b6000806040838503121561399357600080fd5b823561399e81613548565b9150602083013561390a81613548565b600181811c908216806139c257607f821691505b6020821081141561164d57634e487b7160e01b600052602260045260246000fd5b634e487b7160e01b600052601160045260246000fd5b600082821015613a0b57613a0b6139e3565b500390565b634e487b7160e01b600052603260045260246000fd5b600081518084526020808501808196508360051b8101915082860160005b85811015613a6e578284038952613a5c8483516134dc565b98850198935090840190600101613a44565b5091979650505050505050565b600081518084526020808501945080840160005b83811015613aab57815187529582019590820190600101613a8f565b509495945050505050565b6000815160408452613acb6040850182613a26565b905060208301518482036020860152613ae48282613a7b565b95945050505050565b6001600160a01b03841681526060602080830182905260009190613b1384830187613ab6565b84810360408681019190915286518083528388019284019060005b81811015613b84578451805184528681015187850152848101518585015287810151888501526080808201519085015260a0808201519085015260c090810151908401529385019360e090920191600101613b2e565b50909a9950505050505050505050565b600060208284031215613ba657600080fd5b81516001600160401b03811115613bbc57600080fd5b8201601f81018413613bcd57600080fd5b8051613bdb6136e08261369a565b818152856020838501011115613bf057600080fd5b613ae48260208301602086016134b0565b60208152600060018060a01b03808451166020840152806020850151166040840152506040830151606080840152611cf36080840182613ab6565b6020808252600e908201526d524543495049454e545f4f4e4c5960901b604082015260600190565b60008219821115613c7757613c776139e3565b500190565b6001600160a01b03929092168252602082015260400190565b600060208284031215613ca757600080fd5b81516115e7816138ce565b6000816000190483118215151615613ccc57613ccc6139e3565b500290565b60008151613ce38185602086016134b0565b9290920192915050565b600080845481600182811c915080831680613d0957607f831692505b6020808410821415613d2957634e487b7160e01b86526022600452602486fd5b818015613d3d5760018114613d4e57613d7b565b60ff19861689528489019650613d7b565b60008b81526020902060005b86811015613d735781548b820152908501908301613d5a565b505084890196505b505050505050613ae4613d9e613d9883602f60f81b815260010190565b86613cd1565b64173539b7b760d91b815260050190565b60008351613dc18184602088016134b0565b835190830190613dd58183602088016134b0565b01949350505050565b60208152815160208201526000602083015160a06040840152613e0460c0840182613a7b565b90506040840151601f1980858403016060860152613e228383613a26565b9250606086015191508085840301608086015250613e408282613a7b565b915050608084015160a08401528091505092915050565b815160009082906020808601845b83811015613e8157815185529382019390820190600101613e65565b50929695505050505050565b634e487b7160e01b600052601260045260246000fd5b6000815260008251613ebc8160018501602087016134b0565b9190910160010192915050565b6001600160a01b0385811682528416602082015260408101839052608060608201819052600090613efc908301846134dc565b9695505050505050565b600060208284031215613f1857600080fd5b81516115e78161347d565b6000600019821415613f3757613f376139e3565b5060010190565b600082613f4d57613f4d613e8d565b500490565b600082613f6157613f61613e8d565b500690565b82815260008251613f7e8160208501602087016134b0565b919091016020019392505050565b60008451613f9e8184602089016134b0565b82018481528351613fb68160208085019088016134b0565b0160200195945050505050565b606360f81b815260e083901b6001600160e01b03191660018201526880600e6000396000f360b81b6005820152815160009061400681600e8501602087016134b0565b91909101600e019392505050565b60006020828403121561402657600080fd5b5051919050565b60006020828403121561403f57600080fd5b81516115e781613548565b604080825283519082018190526000906020906060840190828701845b8281101561408c5781516001600160a01b031684529284019290840190600101614067565b50505083810382850152613efc8186613a7b565b600060208083850312156140b357600080fd5b82516001600160401b038111156140c957600080fd5b8301601f810185136140da57600080fd5b80516140e86136e082613677565b81815260059190911b8201830190838101908783111561410757600080fd5b928401925b828410156141255783518252928401929084019061410c565b979650505050505050565b600181815b8085111561416b578160001904821115614151576141516139e3565b8085161561415e57918102915b93841c9390800290614135565b509250929050565b600082614182575060016105ab565b8161418f575060006105ab565b81600181146141a557600281146141af576141cb565b60019150506105ab565b60ff8411156141c0576141c06139e3565b50506001821b6105ab565b5060208310610133831016604e8410600b84101617156141ee575081810a6105ab565b6141f88383614130565b806000190482111561420c5761420c6139e3565b029392505050565b60006115e78383614173565b6001600160a01b0383168152604060208201819052600090611cf390830184613a7b565b60018060a01b0384168152826020820152606060408201526000613ae46060830184613a7b565b60006115e760ff841683614173565b60208082526008908201526726a0ac2faa24a2a960c11b60408201526060019056feddf252ad1be2c89b69c2b068fc378daa952ba7f163c4a11628f55a4df523b3efa2646970667358221220e8021051443c38355bb573d08adfc76eba3fb1984e0de14c67ec235fb636b68f64736f6c634300080a0033",
  "linkReferences": {},
  "deployedLinkReferences": {}
}