{
  "_format": "hh-sol-artifact-1",
  "contractName": "Vapour721A",
  "sourceName": "contracts/Vapour721A.sol",
  "abi": [
    {
      "inputs": [],
      "name": "ApprovalCallerNotOwnerNorApproved",
      "type": "error"
    },
    {
      "inputs": [],
      "name": "ApprovalQueryForNonexistentToken",
      "type": "error"
    },
    {
      "inputs": [],
      "name": "ApproveToCaller",
      "type": "error"
    },
    {
      "inputs": [],
      "name": "BalanceQueryForZeroAddress",
      "type": "error"
    },
    {
      "inputs": [
        {
          "internalType": "uint256",
          "name": "_size",
          "type": "uint256"
        },
        {
          "internalType": "uint256",
          "name": "_start",
          "type": "uint256"
        },
        {
          "internalType": "uint256",
          "name": "_end",
          "type": "uint256"
        }
      ],
      "name": "InvalidCodeAtRange",
      "type": "error"
    },
    {
      "inputs": [],
      "name": "MintERC2309QuantityExceedsLimit",
      "type": "error"
    },
    {
      "inputs": [],
      "name": "MintToZeroAddress",
      "type": "error"
    },
    {
      "inputs": [],
      "name": "MintZeroQuantity",
      "type": "error"
    },
    {
      "inputs": [],
      "name": "OwnerQueryForNonexistentToken",
      "type": "error"
    },
    {
      "inputs": [],
      "name": "OwnershipNotInitializedForExtraData",
      "type": "error"
    },
    {
      "inputs": [],
      "name": "TransferCallerNotOwnerNorApproved",
      "type": "error"
    },
    {
      "inputs": [],
      "name": "TransferFromIncorrectOwner",
      "type": "error"
    },
    {
      "inputs": [],
      "name": "TransferToNonERC721ReceiverImplementer",
      "type": "error"
    },
    {
      "inputs": [],
      "name": "TransferToZeroAddress",
      "type": "error"
    },
    {
      "inputs": [],
      "name": "URIQueryForNonexistentToken",
      "type": "error"
    },
    {
      "inputs": [],
      "name": "WriteError",
      "type": "error"
    },
    {
      "anonymous": false,
      "inputs": [
        {
          "indexed": true,
          "internalType": "address",
          "name": "owner",
          "type": "address"
        },
        {
          "indexed": true,
          "internalType": "address",
          "name": "approved",
          "type": "address"
        },
        {
          "indexed": true,
          "internalType": "uint256",
          "name": "tokenId",
          "type": "uint256"
        }
      ],
      "name": "Approval",
      "type": "event"
    },
    {
      "anonymous": false,
      "inputs": [
        {
          "indexed": true,
          "internalType": "address",
          "name": "owner",
          "type": "address"
        },
        {
          "indexed": true,
          "internalType": "address",
          "name": "operator",
          "type": "address"
        },
        {
          "indexed": false,
          "internalType": "bool",
          "name": "approved",
          "type": "bool"
        }
      ],
      "name": "ApprovalForAll",
      "type": "event"
    },
    {
      "anonymous": false,
      "inputs": [
        {
          "indexed": false,
          "internalType": "address",
          "name": "_receiver",
          "type": "address"
        },
        {
          "indexed": false,
          "internalType": "uint256",
          "name": "_units",
          "type": "uint256"
        },
        {
          "indexed": false,
          "internalType": "uint256",
          "name": "_cost",
          "type": "uint256"
        }
      ],
      "name": "Buy",
      "type": "event"
    },
    {
      "anonymous": false,
      "inputs": [
        {
          "indexed": true,
          "internalType": "uint256",
          "name": "fromTokenId",
          "type": "uint256"
        },
        {
          "indexed": false,
          "internalType": "uint256",
          "name": "toTokenId",
          "type": "uint256"
        },
        {
          "indexed": true,
          "internalType": "address",
          "name": "from",
          "type": "address"
        },
        {
          "indexed": true,
          "internalType": "address",
          "name": "to",
          "type": "address"
        }
      ],
      "name": "ConsecutiveTransfer",
      "type": "event"
    },
    {
      "anonymous": false,
      "inputs": [
        {
          "components": [
            {
              "internalType": "string",
              "name": "name",
              "type": "string"
            },
            {
              "internalType": "string",
              "name": "symbol",
              "type": "string"
            },
            {
              "internalType": "string",
              "name": "baseURI",
              "type": "string"
            },
            {
              "internalType": "uint256",
              "name": "supplyLimit",
              "type": "uint256"
            },
            {
              "internalType": "address",
              "name": "recipient",
              "type": "address"
            },
            {
              "internalType": "address",
              "name": "owner",
              "type": "address"
            },
            {
              "internalType": "address",
              "name": "admin",
              "type": "address"
            },
            {
              "internalType": "uint256",
              "name": "royaltyBPS",
              "type": "uint256"
            },
            {
              "internalType": "address",
              "name": "currency",
              "type": "address"
            },
            {
              "components": [
                {
                  "internalType": "bytes[]",
                  "name": "sources",
                  "type": "bytes[]"
                },
                {
                  "internalType": "uint256[]",
                  "name": "constants",
                  "type": "uint256[]"
                }
              ],
              "internalType": "struct StateConfig",
              "name": "vmStateConfig",
              "type": "tuple"
            }
          ],
          "indexed": false,
          "internalType": "struct InitializeConfig",
          "name": "config_",
          "type": "tuple"
        },
        {
          "indexed": false,
          "internalType": "address",
          "name": "vmStateBuilder_",
          "type": "address"
        }
      ],
      "name": "Initialize",
      "type": "event"
    },
    {
      "anonymous": false,
      "inputs": [
        {
          "indexed": false,
          "internalType": "uint8",
          "name": "version",
          "type": "uint8"
        }
      ],
      "name": "Initialized",
      "type": "event"
    },
    {
      "anonymous": false,
      "inputs": [
        {
          "indexed": true,
          "internalType": "address",
          "name": "previousOwner",
          "type": "address"
        },
        {
          "indexed": true,
          "internalType": "address",
          "name": "newOwner",
          "type": "address"
        }
      ],
      "name": "OwnershipTransferred",
      "type": "event"
    },
    {
      "anonymous": false,
      "inputs": [
        {
          "indexed": false,
          "internalType": "address",
          "name": "newRecipient",
          "type": "address"
        }
      ],
      "name": "RecipientChanged",
      "type": "event"
    },
    {
      "anonymous": false,
      "inputs": [
        {
          "indexed": true,
          "internalType": "bytes32",
          "name": "role",
          "type": "bytes32"
        },
        {
          "indexed": true,
          "internalType": "bytes32",
          "name": "previousAdminRole",
          "type": "bytes32"
        },
        {
          "indexed": true,
          "internalType": "bytes32",
          "name": "newAdminRole",
          "type": "bytes32"
        }
      ],
      "name": "RoleAdminChanged",
      "type": "event"
    },
    {
      "anonymous": false,
      "inputs": [
        {
          "indexed": true,
          "internalType": "bytes32",
          "name": "role",
          "type": "bytes32"
        },
        {
          "indexed": true,
          "internalType": "address",
          "name": "account",
          "type": "address"
        },
        {
          "indexed": true,
          "internalType": "address",
          "name": "sender",
          "type": "address"
        }
      ],
      "name": "RoleGranted",
      "type": "event"
    },
    {
      "anonymous": false,
      "inputs": [
        {
          "indexed": true,
          "internalType": "bytes32",
          "name": "role",
          "type": "bytes32"
        },
        {
          "indexed": true,
          "internalType": "address",
          "name": "account",
          "type": "address"
        },
        {
          "indexed": true,
          "internalType": "address",
          "name": "sender",
          "type": "address"
        }
      ],
      "name": "RoleRevoked",
      "type": "event"
    },
    {
      "anonymous": false,
      "inputs": [
        {
          "indexed": true,
          "internalType": "address",
          "name": "from",
          "type": "address"
        },
        {
          "indexed": true,
          "internalType": "address",
          "name": "to",
          "type": "address"
        },
        {
          "indexed": true,
          "internalType": "uint256",
          "name": "tokenId",
          "type": "uint256"
        }
      ],
      "name": "Transfer",
      "type": "event"
    },
    {
      "anonymous": false,
      "inputs": [
        {
          "indexed": false,
          "internalType": "address",
          "name": "_withdrawer",
          "type": "address"
        },
        {
          "indexed": false,
          "internalType": "uint256",
          "name": "_amountWithdrawn",
          "type": "uint256"
        },
        {
          "indexed": false,
          "internalType": "uint256",
          "name": "_totalWithdrawn",
          "type": "uint256"
        }
      ],
      "name": "Withdraw",
      "type": "event"
    },
    {
      "inputs": [],
      "name": "DEFAULT_ADMIN_ROLE",
      "outputs": [
        {
          "internalType": "bytes32",
          "name": "",
          "type": "bytes32"
        }
      ],
      "stateMutability": "view",
      "type": "function"
    },
    {
      "inputs": [
        {
          "internalType": "address",
          "name": "to",
          "type": "address"
        },
        {
          "internalType": "uint256",
          "name": "tokenId",
          "type": "uint256"
        }
      ],
      "name": "approve",
      "outputs": [],
      "stateMutability": "nonpayable",
      "type": "function"
    },
    {
      "inputs": [
        {
          "internalType": "address",
          "name": "owner",
          "type": "address"
        }
      ],
      "name": "balanceOf",
      "outputs": [
        {
          "internalType": "uint256",
          "name": "",
          "type": "uint256"
        }
      ],
      "stateMutability": "view",
      "type": "function"
    },
    {
      "inputs": [
        {
          "internalType": "uint256",
          "name": "tokenId",
          "type": "uint256"
        }
      ],
      "name": "burn",
      "outputs": [],
      "stateMutability": "nonpayable",
      "type": "function"
    },
    {
      "inputs": [
        {
          "internalType": "address",
          "name": "account_",
          "type": "address"
        },
        {
          "internalType": "uint256",
          "name": "targetUnits_",
          "type": "uint256"
        }
      ],
      "name": "calculateBuy",
      "outputs": [
        {
          "internalType": "uint256",
          "name": "maxUnits_",
          "type": "uint256"
        },
        {
          "internalType": "uint256",
          "name": "price_",
          "type": "uint256"
        }
      ],
      "stateMutability": "view",
      "type": "function"
    },
    {
      "inputs": [],
      "name": "fnPtrs",
      "outputs": [
        {
          "internalType": "bytes",
          "name": "",
          "type": "bytes"
        }
      ],
      "stateMutability": "pure",
      "type": "function"
    },
    {
      "inputs": [
        {
          "internalType": "uint256",
          "name": "tokenId",
          "type": "uint256"
        }
      ],
      "name": "getApproved",
      "outputs": [
        {
          "internalType": "address",
          "name": "",
          "type": "address"
        }
      ],
      "stateMutability": "view",
      "type": "function"
    },
    {
      "inputs": [
        {
          "internalType": "bytes32",
          "name": "role",
          "type": "bytes32"
        }
      ],
      "name": "getRoleAdmin",
      "outputs": [
        {
          "internalType": "bytes32",
          "name": "",
          "type": "bytes32"
        }
      ],
      "stateMutability": "view",
      "type": "function"
    },
    {
      "inputs": [
        {
          "internalType": "bytes32",
          "name": "role",
          "type": "bytes32"
        },
        {
          "internalType": "address",
          "name": "account",
          "type": "address"
        }
      ],
      "name": "grantRole",
      "outputs": [],
      "stateMutability": "nonpayable",
      "type": "function"
    },
    {
      "inputs": [
        {
          "internalType": "bytes32",
          "name": "role",
          "type": "bytes32"
        },
        {
          "internalType": "address",
          "name": "account",
          "type": "address"
        }
      ],
      "name": "hasRole",
      "outputs": [
        {
          "internalType": "bool",
          "name": "",
          "type": "bool"
        }
      ],
      "stateMutability": "view",
      "type": "function"
    },
    {
      "inputs": [
        {
          "components": [
            {
              "internalType": "string",
              "name": "name",
              "type": "string"
            },
            {
              "internalType": "string",
              "name": "symbol",
              "type": "string"
            },
            {
              "internalType": "string",
              "name": "baseURI",
              "type": "string"
            },
            {
              "internalType": "uint256",
              "name": "supplyLimit",
              "type": "uint256"
            },
            {
              "internalType": "address",
              "name": "recipient",
              "type": "address"
            },
            {
              "internalType": "address",
              "name": "owner",
              "type": "address"
            },
            {
              "internalType": "address",
              "name": "admin",
              "type": "address"
            },
            {
              "internalType": "uint256",
              "name": "royaltyBPS",
              "type": "uint256"
            },
            {
              "internalType": "address",
              "name": "currency",
              "type": "address"
            },
            {
              "components": [
                {
                  "internalType": "bytes[]",
                  "name": "sources",
                  "type": "bytes[]"
                },
                {
                  "internalType": "uint256[]",
                  "name": "constants",
                  "type": "uint256[]"
                }
              ],
              "internalType": "struct StateConfig",
              "name": "vmStateConfig",
              "type": "tuple"
            }
          ],
          "internalType": "struct InitializeConfig",
          "name": "config_",
          "type": "tuple"
        },
        {
          "internalType": "address",
          "name": "vmStateBuilder_",
          "type": "address"
        }
      ],
      "name": "initialize",
      "outputs": [],
      "stateMutability": "nonpayable",
      "type": "function"
    },
    {
      "inputs": [
        {
          "internalType": "address",
          "name": "owner",
          "type": "address"
        },
        {
          "internalType": "address",
          "name": "operator",
          "type": "address"
        }
      ],
      "name": "isApprovedForAll",
      "outputs": [
        {
          "internalType": "bool",
          "name": "",
          "type": "bool"
        }
      ],
      "stateMutability": "view",
      "type": "function"
    },
    {
      "inputs": [
        {
          "components": [
            {
              "internalType": "uint256",
              "name": "maximumPrice",
              "type": "uint256"
            },
            {
              "internalType": "uint256",
              "name": "minimumUnits",
              "type": "uint256"
            },
            {
              "internalType": "uint256",
              "name": "desiredUnits",
              "type": "uint256"
            }
          ],
          "internalType": "struct BuyConfig",
          "name": "config_",
          "type": "tuple"
        }
      ],
      "name": "mintNFT",
      "outputs": [],
      "stateMutability": "payable",
      "type": "function"
    },
    {
      "inputs": [
        {
          "internalType": "address",
          "name": "receiver",
          "type": "address"
        },
        {
          "internalType": "uint256",
          "name": "maximumPrice",
          "type": "uint256"
        },
        {
          "internalType": "uint256",
          "name": "minimumUnits",
          "type": "uint256"
        },
        {
          "internalType": "uint256",
          "name": "desiredUnits",
          "type": "uint256"
        }
      ],
      "name": "mintNFTFor",
      "outputs": [],
      "stateMutability": "payable",
      "type": "function"
    },
    {
      "inputs": [],
      "name": "name",
      "outputs": [
        {
          "internalType": "string",
          "name": "",
          "type": "string"
        }
      ],
      "stateMutability": "view",
      "type": "function"
    },
    {
      "inputs": [],
      "name": "owner",
      "outputs": [
        {
          "internalType": "address",
          "name": "",
          "type": "address"
        }
      ],
      "stateMutability": "view",
      "type": "function"
    },
    {
      "inputs": [
        {
          "internalType": "uint256",
          "name": "tokenId",
          "type": "uint256"
        }
      ],
      "name": "ownerOf",
      "outputs": [
        {
          "internalType": "address",
          "name": "",
          "type": "address"
        }
      ],
      "stateMutability": "view",
      "type": "function"
    },
    {
      "inputs": [],
      "name": "renounceOwnership",
      "outputs": [],
      "stateMutability": "nonpayable",
      "type": "function"
    },
    {
      "inputs": [
        {
          "internalType": "bytes32",
          "name": "role",
          "type": "bytes32"
        },
        {
          "internalType": "address",
          "name": "account",
          "type": "address"
        }
      ],
      "name": "renounceRole",
      "outputs": [],
      "stateMutability": "nonpayable",
      "type": "function"
    },
    {
      "inputs": [
        {
          "internalType": "bytes32",
          "name": "role",
          "type": "bytes32"
        },
        {
          "internalType": "address",
          "name": "account",
          "type": "address"
        }
      ],
      "name": "revokeRole",
      "outputs": [],
      "stateMutability": "nonpayable",
      "type": "function"
    },
    {
      "inputs": [
        {
          "internalType": "uint256",
          "name": "",
          "type": "uint256"
        },
        {
          "internalType": "uint256",
          "name": "_salePrice",
          "type": "uint256"
        }
      ],
      "name": "royaltyInfo",
      "outputs": [
        {
          "internalType": "address",
          "name": "receiver",
          "type": "address"
        },
        {
          "internalType": "uint256",
          "name": "royaltyAmount",
          "type": "uint256"
        }
      ],
      "stateMutability": "view",
      "type": "function"
    },
    {
      "inputs": [
        {
          "internalType": "address",
          "name": "from",
          "type": "address"
        },
        {
          "internalType": "address",
          "name": "to",
          "type": "address"
        },
        {
          "internalType": "uint256",
          "name": "tokenId",
          "type": "uint256"
        }
      ],
      "name": "safeTransferFrom",
      "outputs": [],
      "stateMutability": "nonpayable",
      "type": "function"
    },
    {
      "inputs": [
        {
          "internalType": "address",
          "name": "from",
          "type": "address"
        },
        {
          "internalType": "address",
          "name": "to",
          "type": "address"
        },
        {
          "internalType": "uint256",
          "name": "tokenId",
          "type": "uint256"
        },
        {
          "internalType": "bytes",
          "name": "_data",
          "type": "bytes"
        }
      ],
      "name": "safeTransferFrom",
      "outputs": [],
      "stateMutability": "nonpayable",
      "type": "function"
    },
    {
      "inputs": [
        {
          "internalType": "address",
          "name": "operator",
          "type": "address"
        },
        {
          "internalType": "bool",
          "name": "approved",
          "type": "bool"
        }
      ],
      "name": "setApprovalForAll",
      "outputs": [],
      "stateMutability": "nonpayable",
      "type": "function"
    },
    {
      "inputs": [
        {
          "internalType": "address",
          "name": "newRecipient",
          "type": "address"
        }
      ],
      "name": "setRecipient",
      "outputs": [],
      "stateMutability": "nonpayable",
      "type": "function"
    },
    {
      "inputs": [],
      "name": "storageOpcodesRange",
      "outputs": [
        {
          "components": [
            {
              "internalType": "uint256",
              "name": "pointer",
              "type": "uint256"
            },
            {
              "internalType": "uint256",
              "name": "length",
              "type": "uint256"
            }
          ],
          "internalType": "struct StorageOpcodesRange",
          "name": "",
          "type": "tuple"
        }
      ],
      "stateMutability": "pure",
      "type": "function"
    },
    {
      "inputs": [
        {
          "internalType": "bytes4",
          "name": "interfaceId",
          "type": "bytes4"
        }
      ],
      "name": "supportsInterface",
      "outputs": [
        {
          "internalType": "bool",
          "name": "",
          "type": "bool"
        }
      ],
      "stateMutability": "view",
      "type": "function"
    },
    {
      "inputs": [],
      "name": "symbol",
      "outputs": [
        {
          "internalType": "string",
          "name": "",
          "type": "string"
        }
      ],
      "stateMutability": "view",
      "type": "function"
    },
    {
      "inputs": [
        {
          "internalType": "uint256",
          "name": "tokenId",
          "type": "uint256"
        }
      ],
      "name": "tokenURI",
      "outputs": [
        {
          "internalType": "string",
          "name": "",
          "type": "string"
        }
      ],
      "stateMutability": "view",
      "type": "function"
    },
    {
      "inputs": [],
      "name": "totalSupply",
      "outputs": [
        {
          "internalType": "uint256",
          "name": "",
          "type": "uint256"
        }
      ],
      "stateMutability": "view",
      "type": "function"
    },
    {
      "inputs": [
        {
          "internalType": "address",
          "name": "from",
          "type": "address"
        },
        {
          "internalType": "address",
          "name": "to",
          "type": "address"
        },
        {
          "internalType": "uint256",
          "name": "tokenId",
          "type": "uint256"
        }
      ],
      "name": "transferFrom",
      "outputs": [],
      "stateMutability": "nonpayable",
      "type": "function"
    },
    {
      "inputs": [
        {
          "internalType": "address",
          "name": "newOwner",
          "type": "address"
        }
      ],
      "name": "transferOwnership",
      "outputs": [],
      "stateMutability": "nonpayable",
      "type": "function"
    },
    {
      "inputs": [],
      "name": "withdraw",
      "outputs": [],
      "stateMutability": "nonpayable",
      "type": "function"
    }
  ],
  "bytecode": "0x608060405234801561001057600080fd5b506151f5806100206000396000f3fe6080604052600436106101ae5760003560e01c80636352211e116100ed578063a22cb46511610090578063a22cb465146104d4578063b4da5e9a146104f4578063b88d4fde14610507578063c87b56dd14610527578063d547741f14610547578063e0419ae314610567578063e985e9c5146105b0578063f2cd6c08146105d0578063f2fde38b146105e557600080fd5b80636352211e1461040457806370a0823114610424578063715018a6146104445780638da5cb5b1461045957806391d148541461047757806393669a151461049757806395d89b41146104aa578063a217fddf146104bf57600080fd5b80632a55205a116101555780632a55205a146103015780632f2ff15d1461032f57806336568abe1461034f5780633bbed4a01461036f5780633ccfd60b1461038f57806342842e0e146103a457806342966c68146103c457806344959239146103e457600080fd5b806301ffc9a7146101b357806305dc5e82146101e857806306fdde031461021d578063081812fc1461023f578063095ea7b31461026c57806318160ddd1461028e57806323b872dd146102b1578063248a9ca3146102d1575b600080fd5b3480156101bf57600080fd5b506101d36101ce366004613fd1565b610605565b60405190151581526020015b60405180910390f35b3480156101f457600080fd5b50610208610203366004614013565b610616565b604080519283526020830191909152016101df565b34801561022957600080fd5b5061023261071b565b6040516101df9190614097565b34801561024b57600080fd5b5061025f61025a3660046140aa565b6107b6565b6040516101df91906140c3565b34801561027857600080fd5b5061028c610287366004614013565b610803565b005b34801561029a57600080fd5b506102a36108b1565b6040519081526020016101df565b3480156102bd57600080fd5b5061028c6102cc3660046140d7565b6108d1565b3480156102dd57600080fd5b506102a36102ec3660046140aa565b60009081526097602052604090206001015490565b34801561030d57600080fd5b5061032161031c366004614118565b610ab0565b6040516101df92919061413a565b34801561033b57600080fd5b5061028c61034a366004614153565b610b10565b34801561035b57600080fd5b5061028c61036a366004614153565b610b3a565b34801561037b57600080fd5b5061028c61038a366004614183565b610bb8565b34801561039b57600080fd5b5061028c610ccc565b3480156103b057600080fd5b5061028c6103bf3660046140d7565b610e00565b3480156103d057600080fd5b5061028c6103df3660046140aa565b610e1b565b3480156103f057600080fd5b5061028c6103ff366004614416565b610e29565b34801561041057600080fd5b5061025f61041f3660046140aa565b61130b565b34801561043057600080fd5b506102a361043f366004614183565b611316565b34801561045057600080fd5b5061028c61137e565b34801561046557600080fd5b506033546001600160a01b031661025f565b34801561048357600080fd5b506101d3610492366004614153565b611392565b61028c6104a536600461455d565b6113bd565b3480156104b657600080fd5b50610232611412565b3480156104cb57600080fd5b506102a3600081565b3480156104e057600080fd5b5061028c6104ef3660046145a6565b61142a565b61028c6105023660046145d4565b6114d1565b34801561051357600080fd5b5061028c6105223660046145e6565b6114e9565b34801561053357600080fd5b506102326105423660046140aa565b611533565b34801561055357600080fd5b5061028c610562366004614153565b61158d565b34801561057357600080fd5b5060408051808201825260008082526020918201528151808301835260c980825260039183019182528351908152905191810191909152016101df565b3480156105bc57600080fd5b506101d36105cb366004614651565b6115b2565b3480156105dc57600080fd5b506102326115ef565b3480156105f157600080fd5b5061028c610600366004614183565b611626565b60006106108261169c565b92915050565b60cc5460009081906001600160a01b031661066a5760405162461bcd60e51b815260206004820152600f60248201526e1393d517d253925512505312569151608a1b60448201526064015b60405180910390fd5b60006106746116d1565b6040805181815260608101825291925060009190602082018180368337505050602081018790526040810186905290506106b0818360006116fc565b50602082015182516106c490600290614695565b815181106106d4576106d46146ac565b60200260200101518260200151600184600001516106f29190614695565b81518110610702576107026146ac565b6020026020010151809450819550505050509250929050565b6060610725611981565b6002018054610733906146c2565b80601f016020809104026020016040519081016040528092919081815260200182805461075f906146c2565b80156107ac5780601f10610781576101008083540402835291602001916107ac565b820191906000526020600020905b81548152906001019060200180831161078f57829003601f168201915b5050505050905090565b60006107c1826119a5565b6107de576040516333d1c03960e21b815260040160405180910390fd5b6107e6611981565b60009283526006016020525060409020546001600160a01b031690565b600061080e8261130b565b9050336001600160a01b038216146108475761082a81336115b2565b610847576040516367d9dca160e11b815260040160405180910390fd5b82610850611981565b6000848152600691909101602052604080822080546001600160a01b0319166001600160a01b0394851617905551849286811692908516917f8c5be1e5ebec7d5bd14f71427d1e84f3dd0314c0f7b2291e5b200ac8c7c3b9259190a4505050565b600060016108bd611981565b600101546108c9611981565b540303919050565b60006108dc826119ee565b9050836001600160a01b0316816001600160a01b03161461090f5760405162a1148160e81b815260040160405180910390fd5b60008061091b84611a7d565b91509150610940818761092b3390565b6001600160a01b039081169116811491141790565b61096b5761094e86336115b2565b61096b57604051632ce44b5f60e11b815260040160405180910390fd5b6001600160a01b03851661099257604051633a954ecd60e21b815260040160405180910390fd5b801561099d57600082555b6109a5611981565b6001600160a01b03871660009081526005919091016020526040902080546000190190556109d1611981565b6001600160a01b03861660009081526005919091016020526040902080546001019055610a0285600160e11b611aa5565b610a0a611981565b60008681526004919091016020526040902055600160e11b8316610a795760018401610a34611981565b60008281526004919091016020526040902054610a7757610a53611981565b548114610a775783610a63611981565b600083815260049190910160205260409020555b505b83856001600160a01b0316876001600160a01b03166000805160206151a083398151915260405160405180910390a4505050505050565b60ce5460009081906001600160a01b0316610ada57505060ce546001600160a01b03166000610b09565b60ce5460cf546001600160a01b039091169061271090610afa90866146f7565b610b04919061472c565b915091505b9250929050565b600082815260976020526040902060010154610b2b81611aba565b610b358383611ac4565b505050565b6001600160a01b0381163314610baa5760405162461bcd60e51b815260206004820152602f60248201527f416363657373436f6e74726f6c3a2063616e206f6e6c792072656e6f756e636560448201526e103937b632b9903337b91039b2b63360891b6064820152608401610661565b610bb48282611b4a565b5050565b60ce546001600160a01b0316331480610bda575060ce546001600160a01b0316155b610c175760405162461bcd60e51b815260206004820152600e60248201526d524543495049454e545f4f4e4c5960901b6044820152606401610661565b6001600160a01b0381163b158015610c3757506001600160a01b03811615155b610c765760405162461bcd60e51b815260206004820152601060248201526f24a72b20a624a22fa0a2222922a9a99760811b6044820152606401610661565b60ce80546001600160a01b0319166001600160a01b0383161790556040517fff2d07bd188a9eb41acbc4a7db39e18956c95ab7f54f434d97849bf6206e577c90610cc19083906140c3565b60405180910390a150565b600060cb5411610d0a5760405162461bcd60e51b815260206004820152600960248201526816915493d7d195539160ba1b6044820152606401610661565b60cb5460ca80548201908190556040517ff279e6a1f5e320cca91135676d9cb6e44ca8a08c0b88342bcdb1144f6511b56892610d47923392614740565b60405180910390a160cd546001600160a01b0316610d7d5760ce5460cb54610d78916001600160a01b031690611bb1565b610df9565b60cd5460ce5460cb5460405163a9059cbb60e01b81526001600160a01b039384169363a9059cbb93610db49391169160040161413a565b6020604051808303816000875af1158015610dd3573d6000803e3d6000fd5b505050506040513d601f19601f82011682018060405250810190610df79190614761565b505b600060cb55565b610b35838383604051806020016040528060008152506114e9565b610e26816001611cca565b50565b610e31611e2a565b54610100900460ff16610e5057610e46611e2a565b5460ff1615610e54565b303b155b610ec05760405162461bcd60e51b815260206004820152603760248201527f455243373231415f5f496e697469616c697a61626c653a20636f6e7472616374604482015276081a5cc8185b1c9958591e481a5b9a5d1a585b1a5e9959604a1b6064820152608401610661565b6000610eca611e2a565b54610100900460ff161590508015610f16576001610ee6611e2a565b80549115156101000261ff00199092169190911790556001610f06611e2a565b805460ff19169115159190911790555b600054610100900460ff1615808015610f365750600054600160ff909116105b80610f505750303b158015610f50575060005460ff166001145b610fb35760405162461bcd60e51b815260206004820152602e60248201527f496e697469616c697a61626c653a20636f6e747261637420697320616c72656160448201526d191e481a5b9a5d1a585b1a5e995960921b6064820152608401610661565b6000805460ff191660011790558015610fd6576000805461ff0019166101001790555b610fe884600001518560200151611e4e565b610ff0611e85565b606084015160c955604084015180516110119160d091602090910190613eb6565b5060e084015160cf8190556127101161105a5760405162461bcd60e51b815260206004820152600b60248201526a4d41585f524f59414c545960a81b6044820152606401610661565b6110678460800151610bb8565b6110748460a00151611626565b60c08401516001600160a01b03166110b85760405162461bcd60e51b8152602060048201526007602482015266182fa0a226a4a760c91b6044820152606401610661565b6111027f637062c33901e7d06867eef333d6cabd2aa851e91f8ce674ab4dba45bdc99c707f5ed6f179f99b86220df7cbd206c7334b24cb795a85808301007ee7b2ff91a820611eb4565b6111307f5ed6f179f99b86220df7cbd206c7334b24cb795a85808301007ee7b2ff91a8208560c00151611ac4565b61010084015160cd80546001600160a01b0319166001600160a01b0390921691909117905561115d613f3a565b600080825260408051600180825281830190925290816020015b61117f613f3a565b81526020019060019003908161117757905050905081816000815181106111a8576111a86146ac565b60200260200101819052506000856001600160a01b03166317376ae030896101200151856040518463ffffffff1660e01b81526004016111ea93929190614845565b6000604051808303816000875af1158015611209573d6000803e3d6000fd5b505050506040513d6000823e601f3d908101601f1916820160405261123191908101906148ec565b905061123c81611eff565b60cc80546001600160a01b0319166001600160a01b03929092169190911790556040517f168856e8d0cd76c881da00ff445e08cae1ac9b23f6b406e769e84c4f0e9905e19061128e9089908990614959565b60405180910390a150505080156112df576000805461ff0019169055604051600181527f7f26b83ff96e1f2b6a682f133852f6798a09c465da95921460cefb38474024989060200160405180910390a15b508015610b355760006112f0611e2a565b80549115156101000261ff0019909216919091179055505050565b6000610610826119ee565b60006001600160a01b03821661133f576040516323d3ad8160e21b815260040160405180910390fd5b6001600160401b0361134f611981565b6005016000846001600160a01b03166001600160a01b0316815260200190815260200160002054169050919050565b611386611f64565b6113906000611fbe565b565b60009182526097602090815260408084206001600160a01b0393909316845291905290205460ff1690565b7f637062c33901e7d06867eef333d6cabd2aa851e91f8ce674ab4dba45bdc99c706113e781611aba565b61140b85604051806060016040528087815260200186815260200185815250612010565b5050505050565b606061141c611981565b6003018054610733906146c2565b6001600160a01b0382163314156114545760405163b06307db60e01b815260040160405180910390fd5b8061145d611981565b336000818152600792909201602090815260408084206001600160a01b03881680865290835293819020805460ff19169515159590951790945592518415158152919290917f17307eab39ab6107e8899845ad3d59bd9653f200f220920489ca2b5937696c31910160405180910390a35050565b610e26336114e436849003840184614a66565b612010565b6114f48484846108d1565b6001600160a01b0383163b1561152d57611510848484846122cc565b61152d576040516368d2bf6b60e11b815260040160405180910390fd5b50505050565b606061153e826119a5565b61155b57604051630a14c4b560e41b815260040160405180910390fd5b60d0611566836123b5565b604051602001611577929190614add565b6040516020818303038152906040529050919050565b6000828152609760205260409020600101546115a881611aba565b610b358383611b4a565b60006115bc611981565b6001600160a01b039384166000908152600791909101602090815260408083209490951682529290925250205460ff1690565b60606115f96124b2565b611601612663565b604051602001611612929190614b9f565b604051602081830303815290604052905090565b61162e611f64565b6001600160a01b0381166116935760405162461bcd60e51b815260206004820152602660248201527f4f776e61626c653a206e6577206f776e657220697320746865207a65726f206160448201526564647265737360d01b6064820152608401610661565b610e2681611fbe565b60006001600160e01b03198216637965db0b60e01b148061061057506301ffc9a760e01b6001600160e01b0319831614610610565b6116d9613f77565b60cc546116f7906116f2906001600160a01b03166126c0565b6126d0565b905090565b60208281015183516040850151848402018301518051606087015160a088015160009687968796879695948301938284019391820290920101906002015b84891015611967576003890198508886015180601f1a975061ffff8160081c169850506006881015611908578761177f5786602002840151825260208201915061191b565b600188141561179c5760208702830151825260208201915061191b565b6002881415611800578c5187602002106117e95760405162461bcd60e51b815260206004820152600e60248201526d0869e9ca88ab0a8be988a9c8ea8960931b6044820152606401610661565b866020026020018d0151825260208201915061191b565b60038814156118495760006118376040805180820182526000808252602091820152815180830190925260c9825260039082015290565b5188015483525060209091019061191b565b60048814156118655761185e8d8d848a6127e6565b915061191b565b606087611893578c60405160200161187d9190614bce565b60405160208183030381529060405290506118f2565b60018814156118ac576118a58d61292a565b90506118f2565b60028814156118c8576020808e015160405161187d9201614c47565b60038814156118f2578c516040805160208101929092520160405160208183030381529060405290505b8051156119025761190281612a2b565b5061191b565b87611917888463ffffffff8416565b9250505b60208c0151518c5111156119625760405162461bcd60e51b815260206004820152600e60248201526d535441434b5f4f564552464c4f5760901b6044820152606401610661565b61173a565b6020838303048c52509750505050505050505b9392505050565b7f2569078dfb4b0305704d3008e7403993ae9601b85f7ae5e742de3de8f8011c4090565b6000816001111580156119bf57506119bb611981565b5482105b80156106105750600160e01b6119d3611981565b60008481526004919091016020526040902054161592915050565b60008180600111611a6457611a01611981565b54811015611a64576000611a13611981565b600083815260049190910160205260409020549050600160e01b8116611a62575b8061197a57611a41611981565b60001990920160008181526004939093016020526040909220549050611a34565b505b604051636f96cda160e11b815260040160405180910390fd5b6000806000611a8a611981565b60009485526006016020525050604090912080549092909150565b4260a01b176001600160a01b03919091161790565b610e268133612a6e565b611ace8282611392565b610bb45760008281526097602090815260408083206001600160a01b03851684529091529020805460ff19166001179055611b063390565b6001600160a01b0316816001600160a01b0316837f2f8788117e7eff1d82e926ec794901d17c78024a50270940304540a733656f0d60405160405180910390a45050565b611b548282611392565b15610bb45760008281526097602090815260408083206001600160a01b0385168085529252808320805460ff1916905551339285917ff6391f5c32d9c69d2a47ea670b442974b53935d1edc7fd64eb21e047a839171b9190a45050565b80471015611c015760405162461bcd60e51b815260206004820152601d60248201527f416464726573733a20696e73756666696369656e742062616c616e63650000006044820152606401610661565b6000826001600160a01b03168260405160006040518083038185875af1925050503d8060008114611c4e576040519150601f19603f3d011682016040523d82523d6000602084013e611c53565b606091505b5050905080610b355760405162461bcd60e51b815260206004820152603a60248201527f416464726573733a20756e61626c6520746f2073656e642076616c75652c207260448201527f6563697069656e74206d617920686176652072657665727465640000000000006064820152608401610661565b6000611cd5836119ee565b905080600080611ce486611a7d565b915091508415611d2457611cf981843361092b565b611d2457611d0783336115b2565b611d2457604051632ce44b5f60e11b815260040160405180910390fd5b8015611d2f57600082555b6001600160801b03611d3f611981565b6001600160a01b0385166000908152600591909101602052604090208054919091019055611d7183600360e01b611aa5565b611d79611981565b60008881526004919091016020526040902055600160e11b8416611de85760018601611da3611981565b60008281526004919091016020526040902054611de657611dc2611981565b548114611de65784611dd2611981565b600083815260049190910160205260409020555b505b60405186906000906001600160a01b038616906000805160206151a0833981519152908390a4611e16611981565b600190810180549091019055505050505050565b7fee151c8401928dc223602bb187aff91b9a56c7cae5476ef1b3287b085a16c85f90565b611e56611e2a565b54610100900460ff16611e7b5760405162461bcd60e51b815260040161066190614c7d565b610bb48282612ad2565b600054610100900460ff16611eac5760405162461bcd60e51b815260040161066190614cd1565b611390612b4e565b600082815260976020526040808220600101805490849055905190918391839186917fbd79b86ffe0ab8e8776151514217cd7cacd52c909f66475c3af44e129f0b00ff9190a4505050565b600080611f2a83604051602001611f169190614d1c565b604051602081830303815290604052612b7e565b90508051602082016000f091506001600160a01b038216611f5e5760405163046a55db60e11b815260040160405180910390fd5b50919050565b6033546001600160a01b031633146113905760405162461bcd60e51b815260206004820181905260248201527f4f776e61626c653a2063616c6c6572206973206e6f7420746865206f776e65726044820152606401610661565b603380546001600160a01b038381166001600160a01b0319831681179093556040519116919082907f8be0079c531659141344cd1fd0a4f28419497f9722a3daafe3b4186f6b6457e090600090a35050565b80602001516000106120505760405162461bcd60e51b8152602060048201526009602482015268305f4d494e494d554d60b81b6044820152606401610661565b80604001518160200151111561209f5760405162461bcd60e51b81526020600482015260146024820152731352539253555357d3d5915497d11154d254915160621b6044820152606401610661565b60006120a9612b94565b60c9546120b69190614695565b905060006120d1828460400151612ba790919063ffffffff16565b90506000806120e08684610616565b909250905060006120f18385612ba7565b9050856020015181101561213c5760405162461bcd60e51b8152602060048201526012602482015271494e53554646494349454e545f53544f434b60701b6044820152606401610661565b855182111561217d5760405162461bcd60e51b815260206004820152600d60248201526c4d4158494d554d5f505249434560981b6044820152606401610661565b600061218982846146f7565b60cd549091506001600160a01b03166121f857803410156121e05760405162461bcd60e51b8152602060048201526011602482015270125394d551919250d251539517d1955391607a1b6044820152606401610661565b6121f3336121ee8334614695565b611bb1565b612275565b60cd546040516323b872dd60e01b8152336004820152306024820152604481018390526001600160a01b03909116906323b872dd906064016020604051808303816000875af115801561224f573d6000803e3d6000fd5b505050506040513d601f19601f820116820180604052508101906122739190614761565b505b60cb8054820190556122878883612bbd565b7f1cbc5ab135991bd2b6a4b034a04aa2aa086dac1371cb9b16b8b5e2ed6b036bed8883836040516122ba93929190614740565b60405180910390a15050505050505050565b604051630a85bd0160e11b81526000906001600160a01b0385169063150b7a0290612301903390899088908890600401614d42565b6020604051808303816000875af192505050801561233c575060408051601f3d908101601f1916820190925261233991810190614d7f565b60015b612397573d80801561236a576040519150601f19603f3d011682016040523d82523d6000602084013e61236f565b606091505b50805161238f576040516368d2bf6b60e11b815260040160405180910390fd5b805181602001fd5b6001600160e01b031916630a85bd0160e11b1490505b949350505050565b6060816123d95750506040805180820190915260018152600360fc1b602082015290565b8160005b811561240357806123ed81614d9c565b91506123fc9050600a8361472c565b91506123dd565b6000816001600160401b0381111561241d5761241d6141a0565b6040519080825280601f01601f191660200182016040528015612447576020820181803683370190505b5090505b84156123ad5761245c600183614695565b9150612469600a86614db7565b612474906030614dcb565b60f81b818381518110612489576124896146ac565b60200101906001600160f81b031916908160001a9053506124ab600a8661472c565b945061244b565b604080516105c08082526105e082019092526060916020820181803683370190505090506000604051806105000160405280612cce8152602001612d628152602001612de18152602001612e7f8152602001612cce8152602001612ec68152602001612f5f8152602001612fac81526020016131458152602001613150815260200161315b81526020016131668152602001613171815260200161318781526020016131b181526020016131db81526020016131f18152602001613207815260200161323c815260200161325b8152602001613275815260200161329e81526020016132b981526020016132c881526020016132e38152602001613330815260200161336f81526020016133ad81526020016133e6815260200161341a815260200161344c815260200161347e81526020016134b081526020016134e48152602001613536815260200161356f81526020016135bf815260200161366c815260200161368c8152602001613745815250905060005b602881101561265e5761265660068201838360288110612649576126496146ac565b6020020151859190613785565b600101612627565b505090565b60408051608080825260a082019092526060916020820181803683370190505090506126938160006137db613785565b6126a18160016137f2613785565b6126af8160026137fd613785565b6126bd816003613812613785565b90565b6060610610826001600019613827565b6126d8613f77565b6126e0613f77565b60208301805160ff8082168352606084019290925290600882901c166001600160401b03811115612713576127136141a0565b60405190808252806020026020018201604052801561273c578160200160208202803683370190505b50602083015260ff601082901c81166080840152601882901c1660606000826001600160401b03811115612772576127726141a0565b60405190808252806020026020018201604052801561279b578160200160208202803683370190505b5090506020870151602002604001870160005b848110156127d55781602082026020018401528151602001820191506001810190506127ae565b505060408501525091949350505050565b600060078216600383811c1682808261280757506000199050610100612848565b826001141561282257506001600160801b0390506080612848565b826002141561283d57506001600160401b0390506040612848565b5063ffffffff905060205b6001600587901c016000816001600160401b0381111561286a5761286a6141a0565b604051908082528060200260200182016040528015612893578160200160208202803683370190505b50905060208082019083028a03815b8b8210156128ba5781518152602091820191016128a2565b505060608b015160808c015160209081029091010160005b6101008110156129185760208502830182845b82811015612901578051841c8a168252602091820191016128e5565b50505061290f8e8e8b6116fc565b9b5085016128d2565b50999c9b505050505050505050505050565b606060008260600151905060006018846040015151901b60108560800151901b6008866020015151901b866060015151171717905060008160001b836040516020016129769190614c47565b60408051601f19818403018152908290526129949291602001614de3565b604051602081830303815290604052905060005b856040015151811015612a225781866040015182815181106129cc576129cc6146ac565b60200260200101515160001b876040015183815181106129ee576129ee6146ac565b6020026020010151604051602001612a0893929190614e09565b60408051601f1981840301815291905291506001016129a8565b50949350505050565b610e2681604051602401612a3f9190614097565b60408051601f198184030181529190526020810180516001600160e01b03166305f3bfab60e11b1790526138d8565b612a788282611392565b610bb457612a90816001600160a01b031660146138f9565b612a9b8360206138f9565b604051602001612aac929190614e40565b60408051601f198184030181529082905262461bcd60e51b825261066191600401614097565b612ada611e2a565b54610100900460ff16612aff5760405162461bcd60e51b815260040161066190614c7d565b81612b08611981565b6002019080519060200190612b1e929190613eb6565b5080612b28611981565b6003019080519060200190612b3e929190613eb6565b506001612b49611981565b555050565b600054610100900460ff16612b755760405162461bcd60e51b815260040161066190614cd1565b61139033611fbe565b6060815182604051602001611577929190614eaf565b60006001612ba0611981565b5403919050565b6000818310612bb6578161197a565b5090919050565b6000612bc7611981565b54905081612be85760405163b562e8dd60e01b815260040160405180910390fd5b680100000000000000018202612bfc611981565b6001600160a01b0385166000908152600591909101602052604090208054919091019055612c30836001841460e11b611aa5565b612c38611981565b600083815260049190910160205260408120919091556001600160a01b0384169083830190839083906000805160206151a08339815191528180a4600183015b818114612c9e57808360006000805160206151a0833981519152600080a4600101612c78565b5081612cbc57604051622e076360e81b815260040160405180910390fd5b80612cc5611981565b5550610b359050565b603f1981018051601f1990920180516040516370a0823160e01b815291936000939290919084906001600160a01b038416906370a0823190612d149085906004016140c3565b602060405180830381865afa158015612d31573d6000803e3d6000fd5b505050506040513d601f19601f82011682018060405250810190612d559190614f00565b9093525092949350505050565b6000806000602084039150815190506000816001600160a01b03166318160ddd6040518163ffffffff1660e01b8152600401602060405180830381865afa158015612db1573d6000803e3d6000fd5b505050506040513d601f19601f82011682018060405250810190612dd59190614f00565b90925250919392505050565b605f1981018051603f1983018051601f199094015160405163277166bf60e11b81529194600094939290919085906001600160a01b03851690634ee2cd7e90612e30908690869060040161413a565b602060405180830381865afa158015612e4d573d6000803e3d6000fd5b505050506040513d601f19601f82011682018060405250810190612e719190614f00565b909452509395945050505050565b603f1981018051601f199092018051604051630981b24d60e41b81526004810182905291936000939290919084906001600160a01b0384169063981b24d090602401612d14565b603f1981018051601f1990920180516040516331a9108f60e11b81526004810182905291936000939290919084906001600160a01b03841690636352211e90602401602060405180830381865afa158015612f25573d6000803e3d6000fd5b505050506040513d601f19601f82011682018060405250810190612f499190614f19565b6001600160a01b03169093525092949350505050565b605f1981018051603f1983018051601f1990940151604051627eeac760e11b81529194600094939290919085906001600160a01b0385169062fdd58e90612e30908690869060040161413a565b6000806000846001600160401b03811115612fc957612fc96141a0565b604051908082528060200260200182016040528015612ff2578160200160208202803683370190505b5090506000856001600160401b0381111561300f5761300f6141a0565b604051908082528060200260200182016040528015613038578160200160208202803683370190505b50604087028603601f1981018051909550919250602080890282019085015b8183101561306f578251815260209283019201613057565b5050602088028101602084015b8183101561309457825181526020928301920161307c565b50506040516313849cfd60e21b8152600091506001600160a01b03831690634e1273f4906130c89087908790600401614f36565b600060405180830381865afa1580156130e5573d6000803e3d6000fd5b505050506040513d6000823e601f3d908101601f1916820160405261310d9190810190614f8c565b9050846020820160208a0281015b8082101561313657815183526020928301929091019061311b565b50909998505050505050505050565b438152602001919050565b338152602001919050565b308152602001919050565b428152602001919050565b601f19810180516000919082612dd58287613a94565b603f1981018051601f19909201805190926000929183612d55826131ab858a613a94565b90613af7565b603f1981018051601f19909201805190926000929183612d55826131d5858a613a94565b90613b16565b601f19810180516000919082612dd58287613b2b565b601f19810180516000919082612dd58287613b76565b6000602083028203805b838110156132315780518015613228578252613231565b50602001613211565b506020019392505050565b605f1981018051156020028201603f1990810151909152018092915050565b601f1981018051603f199092018051909214909152919050565b6000602083028203805b838110156132315780516132965760008252613231565b60200161327f565b601f1981018051603f19909201805192909211909152919050565b601f1981018051159052919050565b601f1981018051603f19909201805192909210909152919050565b6020828102820380516000928201835b8582108015613303575060001983105b156133225750805160209091019061331b8382613bb6565b92506132f3565b505081526020019392505050565b6020828102820380516000928201835b8582108015613350575060001983105b15613322575080516020909101906133688382613bd3565b9250613340565b6020828102820380516000928201835b858210801561338e5750826000105b15613322575080516020909101906133a68382613c02565b925061337f565b600060208302820380516000602083015b8581101561332257805183019150828210156133d957600080fd5b90915081906020016133be565b600060208302820380516000602083015b8581101561332257805191508161340d57600080fd5b91819004916020016133f7565b6020828102820380516000928201835b85821015613322575080516020909101906134458184615100565b925061342a565b6020828102820380516000928201835b858210156133225750805182811115613473578092505b60208201915061345c565b6020828102820380516000928201835b8582101561332257508051828110156134a5578092505b60208201915061348e565b600060208302820380516000602083015b858110156133225780519150816134d757600080fd5b91819006916020016134c1565b60006020830282038051600080602084015b8681101561352757831561351f57805192508284029150828483041461351b57600080fd5b8193505b6020016134f6565b50505081526020019392505050565b600060208302820380516000602083015b85811015613322578051830391508282111561356257600080fd5b9091508190602001613547565b819003603f1981018051601f199092018051848252604051632235a18160e21b8152919360009392909190859085906001600160a01b038516906388d6860490612e30908690869060040161510c565b819003605f1981018051603f19830151601f19909301805185825260405163caa0eb3b60e01b815291946000949392909190869086906001600160a01b0386169063caa0eb3b9061361890879087908790600401615130565b602060405180830381865afa158015613635573d6000803e3d6000fd5b505050506040513d601f19601f820116820180604052508101906136599190614f00565b8652505060209093019695505050505050565b603f1981018051601f19909201805190926000929183612d558383613c18565b6000600783901c6003600585901c16601f85168380826001600160401b038111156136b9576136b96141a0565b6040519080825280602002602001820160405280156136e2578160200160208202803683370190505b509050600060206001850102880392506020840283018360005b8282101561371e578151816020018601526020820191506020810190506136fc565b5050519050600061373183838989613c77565b845250506020909101979650505050505050565b603f1981018051601f199092018051909260009291600f80871691600488901c909116908561377685858585613d6d565b90955250949695505050505050565b8251602083029081106137cd5760405162461bcd60e51b815260206004820152601060248201526f464e5f505452535f4f564552464c4f5760801b6044820152606401610661565b506020918202929092010152565b6000806137e66108b1565b83525050602001919050565b6000806137e6612b94565b601f19810180516000919082612dd582613dc9565b601f19810180516000919082612dd582613e0e565b6060833b8061384657505060408051602081019091526000815261197a565b8084111561386457505060408051602081019091526000815261197a565b838310156138965760405163162544fd60e11b8152600481018290526024810185905260448101849052606401610661565b83830384820360008282106138ab57826138ad565b815b60408051603f8301601f19168101909152818152955090508087602087018a3c505050509392505050565b80516a636f6e736f6c652e6c6f67602083016000808483855afa5050505050565b606060006139088360026146f7565b613913906002614dcb565b6001600160401b0381111561392a5761392a6141a0565b6040519080825280601f01601f191660200182016040528015613954576020820181803683370190505b509050600360fc1b8160008151811061396f5761396f6146ac565b60200101906001600160f81b031916908160001a905350600f60fb1b8160018151811061399e5761399e6146ac565b60200101906001600160f81b031916908160001a90535060006139c28460026146f7565b6139cd906001614dcb565b90505b6001811115613a45576f181899199a1a9b1b9c1cb0b131b232b360811b85600f1660108110613a0157613a016146ac565b1a60f81b828281518110613a1757613a176146ac565b60200101906001600160f81b031916908160001a90535060049490941c93613a3e81615157565b90506139d0565b50831561197a5760405162461bcd60e51b815260206004820181905260248201527f537472696e67733a20686578206c656e67746820696e73756666696369656e746044820152606401610661565b6000808260121415613aa95783915050610610565b8260121115613ad557506012829003613ac381600a615100565b613acd90856146f7565b915050610610565b506011198201613ae681600a615100565b613acd908561472c565b5092915050565b600081613b0c670de0b6b3a7640000856146f7565b61197a919061472c565b6000670de0b6b3a7640000613b0c83856146f7565b600081810b613b3b575081610610565b60008260000b1315613b6357613b5282600a61516e565b613b5c90846146f7565b9050610610565b60ff600083900316613ae681600a615100565b6000806012831415613b8b5783915050610610565b8260121115613ba557506012829003613ae681600a615100565b506011198201613ac381600a615100565b6000828201838110613bc857806123ad565b600019949350505050565b600082613be257506000610610565b82820282848281613bf557613bf5614716565b041415613bc857806123ad565b6000818311613c1257600061197a565b50900390565b60008060015b60088111613c6f576000613c328683613e22565b90506000613c408684613e22565b90506000613c4e8383613c02565b9050613c5e856001860383613e67565b94505060019092019150613c1e9050565b509392505050565b835160009081908190819060015b60088111613d5f57600092508287613ca05750600019613ca4565b5060005b60005b83811015613d3b57613cd28c8281518110613cc457613cc46146ac565b602002602001015184613e22565b95508a8611613d245788613cf157613cea8683612ba7565b9150613d1b565b6001891415613d0457613cea8683613ea6565b600289148015613d12575084155b15613d1b578591505b60019450613d33565b89613d33576000199150613d3b565b600101613ca7565b5083613d4657506000195b613d54866001840383613e67565b955050600101613c85565b509298975050505050505050565b6000826008811115613d915760405162461bcd60e51b81526004016106619061517d565b6000855b85811015613dbd5763ffffffff6020820290811b199890981685891b17979150600101613d95565b50959695505050505050565b60006001600160401b036040613ddd611981565b6005016000856001600160a01b03166001600160a01b0316815260200190815260200160002054901c169050919050565b60006001600160401b036080613ddd611981565b6000816008811115613e465760405162461bcd60e51b81526004016106619061517d565b82613e545760009150613af0565b5050600019016020021c63ffffffff1690565b6000826008811115613e8b5760405162461bcd60e51b81526004016106619061517d565b505063ffffffff602090920291821b199290921691901b1790565b600081831015612bb6578161197a565b828054613ec2906146c2565b90600052602060002090601f016020900481019282613ee45760008555613f2a565b82601f10613efd57805160ff1916838001178555613f2a565b82800160010185558215613f2a579182015b82811115613f2a578251825591602001919060010190613f0f565b50613f36929150613fa6565b5090565b6040518060e00160405280600081526020016000815260200160008152602001600081526020016000815260200160008152602001600081525090565b6040518060a0016040528060008152602001606081526020016060815260200160608152602001600081525090565b5b80821115613f365760008155600101613fa7565b6001600160e01b031981168114610e2657600080fd5b600060208284031215613fe357600080fd5b813561197a81613fbb565b6001600160a01b0381168114610e2657600080fd5b803561400e81613fee565b919050565b6000806040838503121561402657600080fd5b823561403181613fee565b946020939093013593505050565b60005b8381101561405a578181015183820152602001614042565b8381111561152d5750506000910152565b6000815180845261408381602086016020860161403f565b601f01601f19169290920160200192915050565b60208152600061197a602083018461406b565b6000602082840312156140bc57600080fd5b5035919050565b6001600160a01b0391909116815260200190565b6000806000606084860312156140ec57600080fd5b83356140f781613fee565b9250602084013561410781613fee565b929592945050506040919091013590565b6000806040838503121561412b57600080fd5b50508035926020909101359150565b6001600160a01b03929092168252602082015260400190565b6000806040838503121561416657600080fd5b82359150602083013561417881613fee565b809150509250929050565b60006020828403121561419557600080fd5b813561197a81613fee565b634e487b7160e01b600052604160045260246000fd5b604080519081016001600160401b03811182821017156141d8576141d86141a0565b60405290565b60405161014081016001600160401b03811182821017156141d8576141d86141a0565b604051601f8201601f191681016001600160401b0381118282101715614229576142296141a0565b604052919050565b60006001600160401b0382111561424a5761424a6141a0565b50601f01601f191660200190565b600082601f83011261426957600080fd5b813561427c61427782614231565b614201565b81815284602083860101111561429157600080fd5b816020850160208301376000918101602001919091529392505050565b60006001600160401b038211156142c7576142c76141a0565b5060051b60200190565b600082601f8301126142e257600080fd5b813560206142f2614277836142ae565b82815260059290921b8401810191818101908684111561431157600080fd5b8286015b8481101561432c5780358352918301918301614315565b509695505050505050565b60006040828403121561434957600080fd5b6143516141b6565b905081356001600160401b038082111561436a57600080fd5b818401915084601f83011261437e57600080fd5b8135602061438e614277836142ae565b82815260059290921b840181019181810190888411156143ad57600080fd5b8286015b848110156143e5578035868111156143c95760008081fd5b6143d78b86838b0101614258565b8452509183019183016143b1565b50865250858101359350828411156143fc57600080fd5b614408878588016142d1565b818601525050505092915050565b6000806040838503121561442957600080fd5b82356001600160401b038082111561444057600080fd5b90840190610140828703121561445557600080fd5b61445d6141de565b82358281111561446c57600080fd5b61447888828601614258565b82525060208301358281111561448d57600080fd5b61449988828601614258565b6020830152506040830135828111156144b157600080fd5b6144bd88828601614258565b604083015250606083013560608201526144d960808401614003565b60808201526144ea60a08401614003565b60a08201526144fb60c08401614003565b60c082015260e083013560e0820152610100614518818501614003565b90820152610120838101358381111561453057600080fd5b61453c89828701614337565b82840152505080945050505061455460208401614003565b90509250929050565b6000806000806080858703121561457357600080fd5b843561457e81613fee565b966020860135965060408601359560600135945092505050565b8015158114610e2657600080fd5b600080604083850312156145b957600080fd5b82356145c481613fee565b9150602083013561417881614598565b600060608284031215611f5e57600080fd5b600080600080608085870312156145fc57600080fd5b843561460781613fee565b9350602085013561461781613fee565b92506040850135915060608501356001600160401b0381111561463957600080fd5b61464587828801614258565b91505092959194509250565b6000806040838503121561466457600080fd5b823561466f81613fee565b9150602083013561417881613fee565b634e487b7160e01b600052601160045260246000fd5b6000828210156146a7576146a761467f565b500390565b634e487b7160e01b600052603260045260246000fd5b600181811c908216806146d657607f821691505b60208210811415611f5e57634e487b7160e01b600052602260045260246000fd5b60008160001904831182151516156147115761471161467f565b500290565b634e487b7160e01b600052601260045260246000fd5b60008261473b5761473b614716565b500490565b6001600160a01b039390931683526020830191909152604082015260600190565b60006020828403121561477357600080fd5b815161197a81614598565b600081518084526020808501808196508360051b8101915082860160005b858110156147c65782840389526147b484835161406b565b9885019893509084019060010161479c565b5091979650505050505050565b600081518084526020808501945080840160005b83811015614803578151875295820195908201906001016147e7565b509495945050505050565b6000815160408452614823604085018261477e565b90506020830151848203602086015261483c82826147d3565b95945050505050565b6001600160a01b0384168152606060208083018290526000919061486b8483018761480e565b84810360408681019190915286518083528388019284019060005b818110156148dc578451805184528681015187850152848101518585015287810151888501526080808201519085015260a0808201519085015260c090810151908401529385019360e090920191600101614886565b50909a9950505050505050505050565b6000602082840312156148fe57600080fd5b81516001600160401b0381111561491457600080fd5b8201601f8101841361492557600080fd5b805161493361427782614231565b81815285602083850101111561494857600080fd5b61483c82602083016020860161403f565b604081526000835161014080604085015261497861018085018361406b565b91506020860151603f1980868503016060870152614996848361406b565b935060408801519150808685030160808701526149b3848361406b565b9350606088015160a0870152608088015191506149db60c08701836001600160a01b03169052565b60a08801516001600160a01b03811660e0880152915060c08801519150610100614a0f818801846001600160a01b03169052565b60e089015161012088810191909152908901516001600160a01b0316938701939093529187015185840390920161016086015250614a4d828261480e565b9250505061197a60208301846001600160a01b03169052565b600060608284031215614a7857600080fd5b604051606081018181106001600160401b0382111715614a9a57614a9a6141a0565b80604052508235815260208301356020820152604083013560408201528091505092915050565b60008151614ad381856020860161403f565b9290920192915050565b600080845481600182811c915080831680614af957607f831692505b6020808410821415614b1957634e487b7160e01b86526022600452602486fd5b818015614b2d5760018114614b3e57614b6b565b60ff19861689528489019650614b6b565b60008b81526020902060005b86811015614b635781548b820152908501908301614b4a565b505084890196505b50505050505061483c614b8e614b8883602f60f81b815260010190565b86614ac1565b64173539b7b760d91b815260050190565b60008351614bb181846020880161403f565b835190830190614bc581836020880161403f565b01949350505050565b60208152815160208201526000602083015160a06040840152614bf460c08401826147d3565b90506040840151601f1980858403016060860152614c12838361477e565b9250606086015191508085840301608086015250614c3082826147d3565b915050608084015160a08401528091505092915050565b815160009082906020808601845b83811015614c7157815185529382019390820190600101614c55565b50929695505050505050565b60208082526034908201527f455243373231415f5f496e697469616c697a61626c653a20636f6e7472616374604082015273206973206e6f7420696e697469616c697a696e6760601b606082015260800190565b6020808252602b908201527f496e697469616c697a61626c653a20636f6e7472616374206973206e6f74206960408201526a6e697469616c697a696e6760a81b606082015260800190565b6000815260008251614d3581600185016020870161403f565b9190910160010192915050565b6001600160a01b0385811682528416602082015260408101839052608060608201819052600090614d759083018461406b565b9695505050505050565b600060208284031215614d9157600080fd5b815161197a81613fbb565b6000600019821415614db057614db061467f565b5060010190565b600082614dc657614dc6614716565b500690565b60008219821115614dde57614dde61467f565b500190565b82815260008251614dfb81602085016020870161403f565b919091016020019392505050565b60008451614e1b81846020890161403f565b82018481528351614e3381602080850190880161403f565b0160200195945050505050565b76020b1b1b2b9b9a1b7b73a3937b61d1030b1b1b7bab73a1604d1b815260008351614e7281601785016020880161403f565b7001034b99036b4b9b9b4b733903937b6329607d1b6017918401918201528351614ea381602884016020880161403f565b01602801949350505050565b606360f81b815260e083901b6001600160e01b03191660018201526880600e6000396000f360b81b60058201528151600090614ef281600e85016020870161403f565b91909101600e019392505050565b600060208284031215614f1257600080fd5b5051919050565b600060208284031215614f2b57600080fd5b815161197a81613fee565b604080825283519082018190526000906020906060840190828701845b82811015614f785781516001600160a01b031684529284019290840190600101614f53565b50505083810382850152614d7581866147d3565b60006020808385031215614f9f57600080fd5b82516001600160401b03811115614fb557600080fd5b8301601f81018513614fc657600080fd5b8051614fd4614277826142ae565b81815260059190911b82018301908381019087831115614ff357600080fd5b928401925b8284101561501157835182529284019290840190614ff8565b979650505050505050565b600181815b8085111561505757816000190482111561503d5761503d61467f565b8085161561504a57918102915b93841c9390800290615021565b509250929050565b60008261506e57506001610610565b8161507b57506000610610565b8160018114615091576002811461509b576150b7565b6001915050610610565b60ff8411156150ac576150ac61467f565b50506001821b610610565b5060208310610133831016604e8410600b84101617156150da575081810a610610565b6150e4838361501c565b80600019048211156150f8576150f861467f565b029392505050565b600061197a838361505f565b6001600160a01b03831681526040602082018190526000906123ad908301846147d3565b60018060a01b038416815282602082015260606040820152600061483c60608301846147d3565b6000816151665761516661467f565b506000190190565b600061197a60ff84168361505f565b60208082526008908201526726a0ac2faa24a2a960c11b60408201526060019056feddf252ad1be2c89b69c2b068fc378daa952ba7f163c4a11628f55a4df523b3efa2646970667358221220aa796fa118cebce03bcc60887ad9e432bb229ebb90624a0dbff230cb84ab996d64736f6c634300080a0033",
  "linkReferences": {},
  "deployedLinkReferences": {}
}