{
  "_format": "hh-sol-artifact-1",
  "contractName": "Vapour721AFactory",
  "sourceName": "contracts/Vapour721AFactory.sol",
  "abi": [
    {
      "inputs": [
        {
          "internalType": "address",
          "name": "vmStateBuilder_",
          "type": "address"
        }
      ],
      "stateMutability": "nonpayable",
      "type": "constructor"
    },
    {
      "anonymous": false,
      "inputs": [
        {
          "indexed": false,
          "internalType": "address",
          "name": "sender",
          "type": "address"
        },
        {
          "indexed": false,
          "internalType": "address",
          "name": "implementation",
          "type": "address"
        }
      ],
      "name": "Implementation",
      "type": "event"
    },
    {
      "anonymous": false,
      "inputs": [
        {
          "indexed": false,
          "internalType": "address",
          "name": "sender",
          "type": "address"
        },
        {
          "indexed": false,
          "internalType": "address",
          "name": "child",
          "type": "address"
        }
      ],
      "name": "NewChild",
      "type": "event"
    },
    {
      "inputs": [
        {
          "internalType": "bytes",
          "name": "data_",
          "type": "bytes"
        }
      ],
      "name": "createChild",
      "outputs": [
        {
          "internalType": "address",
          "name": "",
          "type": "address"
        }
      ],
      "stateMutability": "nonpayable",
      "type": "function"
    },
    {
      "inputs": [
        {
          "components": [
            {
              "internalType": "string",
              "name": "name",
              "type": "string"
            },
            {
              "internalType": "string",
              "name": "symbol",
              "type": "string"
            },
            {
              "internalType": "string",
              "name": "baseURI",
              "type": "string"
            },
            {
              "internalType": "uint256",
              "name": "supplyLimit",
              "type": "uint256"
            },
            {
              "internalType": "address",
              "name": "recipient",
              "type": "address"
            },
            {
              "internalType": "address",
              "name": "owner",
              "type": "address"
            },
            {
              "internalType": "address",
              "name": "admin",
              "type": "address"
            },
            {
              "internalType": "uint256",
              "name": "royaltyBPS",
              "type": "uint256"
            },
            {
              "internalType": "address",
              "name": "currency",
              "type": "address"
            },
            {
              "components": [
                {
                  "internalType": "bytes[]",
                  "name": "sources",
                  "type": "bytes[]"
                },
                {
                  "internalType": "uint256[]",
                  "name": "constants",
                  "type": "uint256[]"
                }
              ],
              "internalType": "struct StateConfig",
              "name": "vmStateConfig",
              "type": "tuple"
            }
          ],
          "internalType": "struct InitializeConfig",
          "name": "initializeConfig_",
          "type": "tuple"
        }
      ],
      "name": "createChildTyped",
      "outputs": [
        {
          "internalType": "contract Vapour721A",
          "name": "",
          "type": "address"
        }
      ],
      "stateMutability": "nonpayable",
      "type": "function"
    },
    {
      "inputs": [
        {
          "internalType": "address",
          "name": "maybeChild_",
          "type": "address"
        }
      ],
      "name": "isChild",
      "outputs": [
        {
          "internalType": "bool",
          "name": "",
          "type": "bool"
        }
      ],
      "stateMutability": "view",
      "type": "function"
    }
  ],
  "bytecode": "0x60a060405234801561001057600080fd5b5060405161632b38038061632b83398101604081905261002f916100db565b60016000908155604051610042906100ce565b604051809103906000f08015801561005e573d6000803e3d6000fd5b50604080513381526001600160a01b03831660208201529192507f7fac34ecf0b1b374cd9659e3d17db602659d53f1162b1f20142e6c02694aed70910160405180910390a16001600160a01b03908116608052600280546001600160a01b0319169290911691909117905561010b565b6154c980610e6283390190565b6000602082840312156100ed57600080fd5b81516001600160a01b038116811461010457600080fd5b9392505050565b608051610d3c61012660003960006102470152610d3c6000f3fe608060405234801561001057600080fd5b50600436106100415760003560e01c80632ea72a49146100465780639372c8bf14610076578063fc91a89714610089575b600080fd5b610059610054366004610430565b6100c5565b6040516001600160a01b0390911681526020015b60405180910390f35b6100596100843660046104bc565b6101f7565b6100b5610097366004610521565b6001600160a01b031660009081526001602052604090205460ff1690565b604051901515815260200161006d565b60006002600054141561011f5760405162461bcd60e51b815260206004820152601f60248201527f5265656e7472616e637947756172643a207265656e7472616e742063616c6c0060448201526064015b60405180910390fd5b6002600090815561012f83610227565b6001600160a01b03811660009081526001602052604090205490915060ff161561018d5760405162461bcd60e51b815260206004820152600f60248201526e111554131250d0551157d0d2125311608a1b6044820152606401610116565b6001600160a01b038116600081815260016020818152604092839020805460ff19169092179091558151338152908101929092527f7da70c4e5387d7038610b79ca7d304caaef815826e51e67cf247135387a79bce910160405180910390a1600160005592915050565b60006102218260405160200161020d91906106d1565b6040516020818303038152906040526100c5565b92915050565b6000808280602001905181019061023e9190610a09565b9050600061026b7f00000000000000000000000000000000000000000000000000000000000000006102db565b600254604051634495923960e01b81529192506001600160a01b03808416926344959239926102a1928792911690600401610c12565b600060405180830381600087803b1580156102bb57600080fd5b505af11580156102cf573d6000803e3d6000fd5b50929695505050505050565b6000604051733d602d80600a3d3981f3363d3d373d3d3d363d7360601b81528260601b60148201526e5af43d82803e903d91602b57fd5bf360881b60288201526037816000f09150506001600160a01b0381166103735760405162461bcd60e51b8152602060048201526016602482015275115490cc4c4d8dce8818dc99585d194819985a5b195960521b6044820152606401610116565b919050565b634e487b7160e01b600052604160045260246000fd5b604080519081016001600160401b03811182821017156103b0576103b0610378565b60405290565b60405161014081016001600160401b03811182821017156103b0576103b0610378565b604051601f8201601f191681016001600160401b038111828210171561040157610401610378565b604052919050565b60006001600160401b0382111561042257610422610378565b50601f01601f191660200190565b60006020828403121561044257600080fd5b81356001600160401b0381111561045857600080fd5b8201601f8101841361046957600080fd5b803561047c61047782610409565b6103d9565b81815285602083850101111561049157600080fd5b81602084016020830137600091810160200191909152949350505050565b6001600160a01b03169052565b6000602082840312156104ce57600080fd5b81356001600160401b038111156104e457600080fd5b820161014081850312156104f757600080fd5b9392505050565b6001600160a01b038116811461051357600080fd5b50565b8035610373816104fe565b60006020828403121561053357600080fd5b81356104f7816104fe565b6000808335601e1984360301811261055557600080fd5b83016020810192503590506001600160401b0381111561057457600080fd5b80360383131561058357600080fd5b9250929050565b81835281816020850137506000828201602090810191909152601f909101601f19169091010190565b60008235603e198336030181126105c957600080fd5b90910192915050565b6000808335601e198436030181126105e957600080fd5b83016020810192503590506001600160401b0381111561060857600080fd5b8060051b360383131561058357600080fd5b60006040830161062a83846105d2565b604086528281845260608701905060608260051b88010193508260005b8381101561068457888603605f19018352610662828661053e565b61066d88828461058a565b975050506020928301929190910190600101610647565b505050505061069660208401846105d2565b85830360208701528083526001600160fb1b038111156106b557600080fd5b60051b8082602085013760009201602001918252509392505050565b6020815260006106e1838461053e565b6101408060208601526106f96101608601838561058a565b9250610708602087018761053e565b9250601f198087860301604088015261072285858461058a565b9450610731604089018961053e565b945091508087860301606088015261074a85858461058a565b94506060880135608088015261076260808901610516565b935061077160a08801856104af565b61077d60a08901610516565b935061078c60c08801856104af565b61079860c08901610516565b93506107a760e08801856104af565b610100935060e0880135848801526107c0848901610516565b935061012091506107d3828801856104af565b6107df828901896105b3565b93508087860301838801525050506107f7828261061a565b95945050505050565b60005b8381101561081b578181015183820152602001610803565b8381111561082a576000848401525b50505050565b600061083e61047784610409565b905082815283838301111561085257600080fd5b6104f7836020830184610800565b600082601f83011261087157600080fd5b6104f783835160208501610830565b8051610373816104fe565b60006001600160401b038211156108a4576108a4610378565b5060051b60200190565b600082601f8301126108bf57600080fd5b815160206108cf6104778361088b565b82815260059290921b840181019181810190868411156108ee57600080fd5b8286015b8481101561090957805183529183019183016108f2565b509695505050505050565b6000604080838503121561092757600080fd5b61092f61038e565b915082516001600160401b038082111561094857600080fd5b818501915085601f83011261095c57600080fd5b8151602061096c6104778361088b565b82815260059290921b8401810191818101908984111561098b57600080fd5b8286015b848110156109d7578051868111156109a75760008081fd5b8701603f81018c136109b95760008081fd5b6109c98c868301518b8401610830565b84525091830191830161098f565b50875250868101519450828511156109ee57600080fd5b6109fa888689016108ae565b81870152505050505092915050565b600060208284031215610a1b57600080fd5b81516001600160401b0380821115610a3257600080fd5b908301906101408286031215610a4757600080fd5b610a4f6103b6565b825182811115610a5e57600080fd5b610a6a87828601610860565b825250602083015182811115610a7f57600080fd5b610a8b87828601610860565b602083015250604083015182811115610aa357600080fd5b610aaf87828601610860565b60408301525060608301516060820152610acb60808401610880565b6080820152610adc60a08401610880565b60a0820152610aed60c08401610880565b60c082015260e083015160e0820152610100610b0a818501610880565b908201526101208381015183811115610b2257600080fd5b610b2e88828701610914565b918301919091525095945050505050565b60008151808452610b57816020860160208601610800565b601f01601f19169290920160200192915050565b60006040830182516040855281815180845260608701915060608160051b88010193506020808401935060005b82811015610bc657605f19898703018452610bb4868651610b3f565b95509381019392810192600101610b98565b508681015188860389830152805180875290820195600095508201935091505b81841015610c065784518352938401936001939093019291820191610be6565b50909695505050505050565b6040815260008351610140806040850152610c31610180850183610b3f565b91506020860151603f1980868503016060870152610c4f8483610b3f565b93506040880151915080868503016080870152610c6c8483610b3f565b9350606088015160a087015260808801519150610c8c60c08701836104af565b60a08801519150610ca060e08701836104af565b60c08801519150610100610cb6818801846104af565b60e089015192506101208381890152818a01519350610cd7858901856104af565b890151878603909201610160880152509150610cf590508282610b6b565b925050506104f760208301846104af56fea2646970667358221220f2414c8e1c39f1b29d78499f30b1d1bd82e552cee68eaf6db148c041ba5deea564736f6c634300080a0033608060405234801561001057600080fd5b506154a9806100206000396000f3fe6080604052600436106102205760003560e01c8063449592391161012e578063a2309ff8116100ab578063dc33e6811161006f578063dc33e68114610649578063e0419ae314610669578063e985e9c5146106b2578063f2cd6c08146106d2578063f2fde38b146106e757600080fd5b8063a2309ff8146105c1578063b4da5e9a146105d6578063b88d4fde146105e9578063c87b56dd14610609578063d547741f1461062957600080fd5b806391d14854116100f257806391d148541461054457806393669a151461056457806395d89b4114610577578063a217fddf1461058c578063a22cb465146105a157600080fd5b806344959239146104b15780636352211e146104d157806370a08231146104f1578063715018a6146105115780638da5cb5b1461052657600080fd5b80632478d639116101bc57806336568abe1161018057806336568abe1461041c5780633bbed4a01461043c5780633ccfd60b1461045c57806342842e0e1461047157806342966c681461049157600080fd5b80632478d63914610369578063248a9ca3146103895780632a55205a146103b95780632f2ff15d146103e757806334dc96c51461040757600080fd5b806301ffc9a71461022557806305dc5e821461025a57806306fdde031461028f578063081812fc146102b1578063095ea7b3146102de5780630d662a1f1461030057806318160ddd1461031f57806319d1997a1461033457806323b872dd14610349575b600080fd5b34801561023157600080fd5b50610245610240366004614285565b610707565b60405190151581526020015b60405180910390f35b34801561026657600080fd5b5061027a6102753660046142c7565b610718565b60408051928352602083019190915201610251565b34801561029b57600080fd5b506102a461081d565b604051610251919061434b565b3480156102bd57600080fd5b506102d16102cc36600461435e565b6108b8565b6040516102519190614377565b3480156102ea57600080fd5b506102fe6102f93660046142c7565b610905565b005b34801561030c57600080fd5b5060ca545b604051908152602001610251565b34801561032b57600080fd5b506103116109b3565b34801561034057600080fd5b5060c954610311565b34801561035557600080fd5b506102fe61036436600461438b565b6109d3565b34801561037557600080fd5b506103116103843660046143cc565b610bc0565b34801561039557600080fd5b506103116103a436600461435e565b60009081526097602052604090206001015490565b3480156103c557600080fd5b506103d96103d43660046143e9565b610bcb565b60405161025192919061440b565b3480156103f357600080fd5b506102fe610402366004614424565b610c2b565b34801561041357600080fd5b5060cb54610311565b34801561042857600080fd5b506102fe610437366004614424565b610c55565b34801561044857600080fd5b506102fe6104573660046143cc565b610cd3565b34801561046857600080fd5b506102fe610de7565b34801561047d57600080fd5b506102fe61048c36600461438b565b610f1b565b34801561049d57600080fd5b506102fe6104ac36600461435e565b610f36565b3480156104bd57600080fd5b506102fe6104cc3660046146ca565b610f44565b3480156104dd57600080fd5b506102d16104ec36600461435e565b611454565b3480156104fd57600080fd5b5061031161050c3660046143cc565b61145f565b34801561051d57600080fd5b506102fe6114c7565b34801561053257600080fd5b506033546001600160a01b03166102d1565b34801561055057600080fd5b5061024561055f366004614424565b6114db565b6102fe610572366004614811565b611506565b34801561058357600080fd5b506102a461155b565b34801561059857600080fd5b50610311600081565b3480156105ad57600080fd5b506102fe6105bc36600461485a565b611573565b3480156105cd57600080fd5b5061031161161a565b6102fe6105e4366004614888565b611629565b3480156105f557600080fd5b506102fe61060436600461489a565b611641565b34801561061557600080fd5b506102a461062436600461435e565b61168b565b34801561063557600080fd5b506102fe610644366004614424565b6116e5565b34801561065557600080fd5b506103116106643660046143cc565b61170a565b34801561067557600080fd5b5060408051808201825260008082526020918201528151808301835260c98082526003918301918252835190815290519181019190915201610251565b3480156106be57600080fd5b506102456106cd366004614905565b611715565b3480156106de57600080fd5b506102a4611752565b3480156106f357600080fd5b506102fe6107023660046143cc565b611789565b6000610712826117ff565b92915050565b60cc5460009081906001600160a01b031661076c5760405162461bcd60e51b815260206004820152600f60248201526e1393d517d253925512505312569151608a1b60448201526064015b60405180910390fd5b6000610776611834565b6040805181815260608101825291925060009190602082018180368337505050602081018790526040810186905290506107b28183600161185a565b50602082015182516107c690600290614949565b815181106107d6576107d6614960565b60200260200101518260200151600184600001516107f49190614949565b8151811061080457610804614960565b6020026020010151809450819550505050509250929050565b6060610827611adf565b600201805461083590614976565b80601f016020809104026020016040519081016040528092919081815260200182805461086190614976565b80156108ae5780601f10610883576101008083540402835291602001916108ae565b820191906000526020600020905b81548152906001019060200180831161089157829003601f168201915b5050505050905090565b60006108c382611b03565b6108e0576040516333d1c03960e21b815260040160405180910390fd5b6108e8611adf565b60009283526006016020525060409020546001600160a01b031690565b600061091082611454565b9050336001600160a01b038216146109495761092c8133611715565b610949576040516367d9dca160e11b815260040160405180910390fd5b82610952611adf565b6000848152600691909101602052604080822080546001600160a01b0319166001600160a01b0394851617905551849286811692908516917f8c5be1e5ebec7d5bd14f71427d1e84f3dd0314c0f7b2291e5b200ac8c7c3b9259190a4505050565b600060016109bf611adf565b600101546109cb611adf565b540303919050565b60006109de82611b4c565b9050836001600160a01b0316816001600160a01b031614610a115760405162a1148160e81b815260040160405180910390fd5b600080610a1d84611bdb565b91509150610a428187610a2d3390565b6001600160a01b039081169116811491141790565b610a6d57610a508633611715565b610a6d57604051632ce44b5f60e11b815260040160405180910390fd5b6001600160a01b038516610a9457604051633a954ecd60e21b815260040160405180910390fd5b610aa18686866001611c03565b8015610aac57600082555b610ab4611adf565b6001600160a01b0387166000908152600591909101602052604090208054600019019055610ae0611adf565b6001600160a01b03861660009081526005919091016020526040902080546001019055610b1185600160e11b611cf9565b610b19611adf565b60008681526004919091016020526040902055600160e11b8316610b885760018401610b43611adf565b60008281526004919091016020526040902054610b8657610b62611adf565b548114610b865783610b72611adf565b600083815260049190910160205260409020555b505b83856001600160a01b0316876001600160a01b031660008051602061545483398151915260405160405180910390a45b505050505050565b600061071282611d0e565b60ce5460009081906001600160a01b0316610bf557505060ce546001600160a01b03166000610c24565b60ce5460cf546001600160a01b039091169061271090610c1590866149ab565b610c1f91906149e0565b915091505b9250929050565b600082815260976020526040902060010154610c4681611d53565b610c508383611d5d565b505050565b6001600160a01b0381163314610cc55760405162461bcd60e51b815260206004820152602f60248201527f416363657373436f6e74726f6c3a2063616e206f6e6c792072656e6f756e636560448201526e103937b632b9903337b91039b2b63360891b6064820152608401610763565b610ccf8282611de3565b5050565b60ce546001600160a01b0316331480610cf5575060ce546001600160a01b0316155b610d325760405162461bcd60e51b815260206004820152600e60248201526d524543495049454e545f4f4e4c5960901b6044820152606401610763565b6001600160a01b0381163b158015610d5257506001600160a01b03811615155b610d915760405162461bcd60e51b815260206004820152601060248201526f24a72b20a624a22fa0a2222922a9a99760811b6044820152606401610763565b60ce80546001600160a01b0319166001600160a01b0383161790556040517fff2d07bd188a9eb41acbc4a7db39e18956c95ab7f54f434d97849bf6206e577c90610ddc908390614377565b60405180910390a150565b600060cb5411610e255760405162461bcd60e51b815260206004820152600960248201526816915493d7d195539160ba1b6044820152606401610763565b60cb5460ca80548201908190556040517ff279e6a1f5e320cca91135676d9cb6e44ca8a08c0b88342bcdb1144f6511b56892610e629233926149f4565b60405180910390a160cd546001600160a01b0316610e985760ce5460cb54610e93916001600160a01b031690611e4a565b610f14565b60cd5460ce5460cb5460405163a9059cbb60e01b81526001600160a01b039384169363a9059cbb93610ecf9391169160040161440b565b6020604051808303816000875af1158015610eee573d6000803e3d6000fd5b505050506040513d601f19601f82011682018060405250810190610f129190614a15565b505b600060cb55565b610c5083838360405180602001604052806000815250611641565b610f41816001611f63565b50565b610f4c6120d1565b54610100900460ff16610f6b57610f616120d1565b5460ff1615610f6f565b303b155b610fdb5760405162461bcd60e51b815260206004820152603760248201527f455243373231415f5f496e697469616c697a61626c653a20636f6e7472616374604482015276081a5cc8185b1c9958591e481a5b9a5d1a585b1a5e9959604a1b6064820152608401610763565b6000610fe56120d1565b54610100900460ff1615905080156110315760016110016120d1565b80549115156101000261ff001990921691909117905560016110216120d1565b805460ff19169115159190911790555b600054610100900460ff16158080156110515750600054600160ff909116105b8061106b5750303b15801561106b575060005460ff166001145b6110ce5760405162461bcd60e51b815260206004820152602e60248201527f496e697469616c697a61626c653a20636f6e747261637420697320616c72656160448201526d191e481a5b9a5d1a585b1a5e995960921b6064820152608401610763565b6000805460ff1916600117905580156110f1576000805461ff0019166101001790555b611103846000015185602001516120f5565b61110b61212c565b606084015160c9556040840151805161112c9160d09160209091019061416a565b5060e084015160cf819055612710116111755760405162461bcd60e51b815260206004820152600b60248201526a4d41585f524f59414c545960a81b6044820152606401610763565b6111828460800151610cd3565b61118f8460a00151611789565b60c08401516001600160a01b03166111d35760405162461bcd60e51b8152602060048201526007602482015266182fa0a226a4a760c91b6044820152606401610763565b61121d7f637062c33901e7d06867eef333d6cabd2aa851e91f8ce674ab4dba45bdc99c707f5ed6f179f99b86220df7cbd206c7334b24cb795a85808301007ee7b2ff91a82061215b565b61124b7f5ed6f179f99b86220df7cbd206c7334b24cb795a85808301007ee7b2ff91a8208560c00151611d5d565b61010084015160cd80546001600160a01b0319166001600160a01b039092169190911790556112786141ee565b600081526112846141ee565b6001815260408051600280825260608201909252600091816020015b6112a86141ee565b8152602001906001900390816112a057905050905082816000815181106112d1576112d1614960565b602002602001018190525081816001815181106112f0576112f0614960565b60200260200101819052506000866001600160a01b03166317376ae0308a6101200151856040518463ffffffff1660e01b815260040161133293929190614af9565b6000604051808303816000875af1158015611351573d6000803e3d6000fd5b505050506040513d6000823e601f3d908101601f191682016040526113799190810190614ba0565b9050611384816121a6565b60cc80546001600160a01b0319166001600160a01b03929092169190911790556040517f168856e8d0cd76c881da00ff445e08cae1ac9b23f6b406e769e84c4f0e9905e1906113d6908a908a90614c0d565b60405180910390a1505050508015611428576000805461ff0019169055604051600181527f7f26b83ff96e1f2b6a682f133852f6798a09c465da95921460cefb38474024989060200160405180910390a15b508015610c505760006114396120d1565b80549115156101000261ff0019909216919091179055505050565b600061071282611b4c565b60006001600160a01b038216611488576040516323d3ad8160e21b815260040160405180910390fd5b6001600160401b03611498611adf565b6005016000846001600160a01b03166001600160a01b0316815260200190815260200160002054169050919050565b6114cf61220b565b6114d96000612265565b565b60009182526097602090815260408084206001600160a01b0393909316845291905290205460ff1690565b7f637062c33901e7d06867eef333d6cabd2aa851e91f8ce674ab4dba45bdc99c7061153081611d53565b611554856040518060600160405280878152602001868152602001858152506122b7565b5050505050565b6060611565611adf565b600301805461083590614976565b6001600160a01b03821633141561159d5760405163b06307db60e01b815260040160405180910390fd5b806115a6611adf565b336000818152600792909201602090815260408084206001600160a01b03881680865290835293819020805460ff19169515159590951790945592518415158152919290917f17307eab39ab6107e8899845ad3d59bd9653f200f220920489ca2b5937696c31910160405180910390a35050565b6000611624612573565b905090565b610f413361163c36849003840184614d1a565b6122b7565b61164c8484846109d3565b6001600160a01b0383163b156116855761166884848484612586565b611685576040516368d2bf6b60e11b815260040160405180910390fd5b50505050565b606061169682611b03565b6116b357604051630a14c4b560e41b815260040160405180910390fd5b60d06116be8361266f565b6040516020016116cf929190614d91565b6040516020818303038152906040529050919050565b60008281526097602052604090206001015461170081611d53565b610c508383611de3565b60006107128261276c565b600061171f611adf565b6001600160a01b039384166000908152600791909101602090815260408083209490951682529290925250205460ff1690565b606061175c612780565b611764612931565b604051602001611775929190614e53565b604051602081830303815290604052905090565b61179161220b565b6001600160a01b0381166117f65760405162461bcd60e51b815260206004820152602660248201527f4f776e61626c653a206e6577206f776e657220697320746865207a65726f206160448201526564647265737360d01b6064820152608401610763565b610f4181612265565b60006001600160e01b03198216637965db0b60e01b148061071257506301ffc9a760e01b6001600160e01b0319831614610712565b61183c61422b565b60cc5461162490611855906001600160a01b031661298e565b61299e565b60208281015183516040850151848402018301518051606087015160a088015160009687968796879695948301938284019391820290920101906002015b84891015611ac5576003890198508886015180601f1a975061ffff8160081c169850506006881015611a6657876118dd57866020028401518252602082019150611a79565b60018814156118fa57602087028301518252602082019150611a79565b600288141561195e578c5187602002106119475760405162461bcd60e51b815260206004820152600e60248201526d0869e9ca88ab0a8be988a9c8ea8960931b6044820152606401610763565b866020026020018d01518252602082019150611a79565b60038814156119a75760006119956040805180820182526000808252602091820152815180830190925260c9825260039082015290565b51880154835250602090910190611a79565b60048814156119c3576119bc8d8d848a612ab4565b9150611a79565b6060876119f1578c6040516020016119db9190614e82565b6040516020818303038152906040529050611a50565b6001881415611a0a57611a038d612bf8565b9050611a50565b6002881415611a26576020808e01516040516119db9201614efb565b6003881415611a50578c516040805160208101929092520160405160208183030381529060405290505b805115611a6057611a6081612cf9565b50611a79565b87611a75888463ffffffff8416565b9250505b60208c0151518c511115611ac05760405162461bcd60e51b815260206004820152600e60248201526d535441434b5f4f564552464c4f5760901b6044820152606401610763565b611898565b6020838303048c52509750505050505050505b9392505050565b7f2569078dfb4b0305704d3008e7403993ae9601b85f7ae5e742de3de8f8011c4090565b600081600111158015611b1d5750611b19611adf565b5482105b80156107125750600160e01b611b31611adf565b60008481526004919091016020526040902054161592915050565b60008180600111611bc257611b5f611adf565b54811015611bc2576000611b71611adf565b600083815260049190910160205260409020549050600160e01b8116611bc0575b80611ad857611b9f611adf565b60001990920160008181526004939093016020526040909220549050611b92565b505b604051636f96cda160e11b815260040160405180910390fd5b6000806000611be8611adf565b60009485526006016020525050604090912080549092909150565b6001600160a01b03841615611685576000611c1c611834565b604080518181526060810182529192506000919060208201818036833750505060208101869052604081018590529050611c588183600061185a565b50611c8f826020015160018460000151611c729190614949565b81518110611c8257611c82614960565b6020026020010151612d3c565b60208201518251611ca290600190614949565b81518110611cb257611cb2614960565b6020026020010151600114610bb85760405162461bcd60e51b815260206004820152600d60248201526c21a0a72a2faa2920a729a322a960991b6044820152606401610763565b4260a01b176001600160a01b03919091161790565b60006001600160401b036080611d22611adf565b6005016000856001600160a01b03166001600160a01b0316815260200190815260200160002054901c169050919050565b610f418133612d81565b611d6782826114db565b610ccf5760008281526097602090815260408083206001600160a01b03851684529091529020805460ff19166001179055611d9f3390565b6001600160a01b0316816001600160a01b0316837f2f8788117e7eff1d82e926ec794901d17c78024a50270940304540a733656f0d60405160405180910390a45050565b611ded82826114db565b15610ccf5760008281526097602090815260408083206001600160a01b0385168085529252808320805460ff1916905551339285917ff6391f5c32d9c69d2a47ea670b442974b53935d1edc7fd64eb21e047a839171b9190a45050565b80471015611e9a5760405162461bcd60e51b815260206004820152601d60248201527f416464726573733a20696e73756666696369656e742062616c616e63650000006044820152606401610763565b6000826001600160a01b03168260405160006040518083038185875af1925050503d8060008114611ee7576040519150601f19603f3d011682016040523d82523d6000602084013e611eec565b606091505b5050905080610c505760405162461bcd60e51b815260206004820152603a60248201527f416464726573733a20756e61626c6520746f2073656e642076616c75652c207260448201527f6563697069656e74206d617920686176652072657665727465640000000000006064820152608401610763565b6000611f6e83611b4c565b905080600080611f7d86611bdb565b915091508415611fbd57611f92818433610a2d565b611fbd57611fa08333611715565b611fbd57604051632ce44b5f60e11b815260040160405180910390fd5b611fcb836000886001611c03565b8015611fd657600082555b6001600160801b03611fe6611adf565b6001600160a01b038516600090815260059190910160205260409020805491909101905561201883600360e01b611cf9565b612020611adf565b60008881526004919091016020526040902055600160e11b841661208f576001860161204a611adf565b6000828152600491909101602052604090205461208d57612069611adf565b54811461208d5784612079611adf565b600083815260049190910160205260409020555b505b60405186906000906001600160a01b03861690600080516020615454833981519152908390a46120bd611adf565b600190810180549091019055505050505050565b7fee151c8401928dc223602bb187aff91b9a56c7cae5476ef1b3287b085a16c85f90565b6120fd6120d1565b54610100900460ff166121225760405162461bcd60e51b815260040161076390614f31565b610ccf8282612de5565b600054610100900460ff166121535760405162461bcd60e51b815260040161076390614f85565b6114d9612e61565b600082815260976020526040808220600101805490849055905190918391839186917fbd79b86ffe0ab8e8776151514217cd7cacd52c909f66475c3af44e129f0b00ff9190a4505050565b6000806121d1836040516020016121bd9190614fd0565b604051602081830303815290604052612e91565b90508051602082016000f091506001600160a01b0382166122055760405163046a55db60e11b815260040160405180910390fd5b50919050565b6033546001600160a01b031633146114d95760405162461bcd60e51b815260206004820181905260248201527f4f776e61626c653a2063616c6c6572206973206e6f7420746865206f776e65726044820152606401610763565b603380546001600160a01b038381166001600160a01b0319831681179093556040519116919082907f8be0079c531659141344cd1fd0a4f28419497f9722a3daafe3b4186f6b6457e090600090a35050565b80602001516000106122f75760405162461bcd60e51b8152602060048201526009602482015268305f4d494e494d554d60b81b6044820152606401610763565b8060400151816020015111156123465760405162461bcd60e51b81526020600482015260146024820152731352539253555357d3d5915497d11154d254915160621b6044820152606401610763565b6000612350612573565b60c95461235d9190614949565b90506000612378828460400151612ea790919063ffffffff16565b90506000806123878684610718565b909250905060006123988385612ea7565b905085602001518110156123e35760405162461bcd60e51b8152602060048201526012602482015271494e53554646494349454e545f53544f434b60701b6044820152606401610763565b85518211156124245760405162461bcd60e51b815260206004820152600d60248201526c4d4158494d554d5f505249434560981b6044820152606401610763565b600061243082846149ab565b60cd549091506001600160a01b031661249f57803410156124875760405162461bcd60e51b8152602060048201526011602482015270125394d551919250d251539517d1955391607a1b6044820152606401610763565b61249a336124958334614949565b611e4a565b61251c565b60cd546040516323b872dd60e01b8152336004820152306024820152604481018390526001600160a01b03909116906323b872dd906064016020604051808303816000875af11580156124f6573d6000803e3d6000fd5b505050506040513d601f19601f8201168201806040525081019061251a9190614a15565b505b60cb80548201905561252e8883612ebd565b7f1cbc5ab135991bd2b6a4b034a04aa2aa086dac1371cb9b16b8b5e2ed6b036bed888383604051612561939291906149f4565b60405180910390a15050505050505050565b6000600161257f611adf565b5403919050565b604051630a85bd0160e11b81526000906001600160a01b0385169063150b7a02906125bb903390899088908890600401614ff6565b6020604051808303816000875af19250505080156125f6575060408051601f3d908101601f191682019092526125f391810190615033565b60015b612651573d808015612624576040519150601f19603f3d011682016040523d82523d6000602084013e612629565b606091505b508051612649576040516368d2bf6b60e11b815260040160405180910390fd5b805181602001fd5b6001600160e01b031916630a85bd0160e11b1490505b949350505050565b6060816126935750506040805180820190915260018152600360fc1b602082015290565b8160005b81156126bd57806126a781615050565b91506126b69050600a836149e0565b9150612697565b6000816001600160401b038111156126d7576126d7614454565b6040519080825280601f01601f191660200182016040528015612701576020820181803683370190505b5090505b841561266757612716600183614949565b9150612723600a8661506b565b61272e90603061507f565b60f81b81838151811061274357612743614960565b60200101906001600160f81b031916908160001a905350612765600a866149e0565b9450612705565b60006001600160401b036040611d22611adf565b604080516105c08082526105e082019092526060916020820181803683370190505090506000604051806105000160405280612fdb815260200161306f81526020016130ee815260200161318c8152602001612fdb81526020016131d3815260200161326c81526020016132b98152602001613452815260200161345d81526020016134688152602001613473815260200161347e815260200161349481526020016134be81526020016134e881526020016134fe815260200161351481526020016135498152602001613568815260200161358281526020016135ab81526020016135c681526020016135d581526020016135f0815260200161363d815260200161367c81526020016136ba81526020016136f381526020016137278152602001613759815260200161378b81526020016137bd81526020016137f18152602001613843815260200161387c81526020016138cc815260200161397981526020016139998152602001613a52815250905060005b602881101561292c576129246006820183836028811061291757612917614960565b6020020151859190613a92565b6001016128f5565b505090565b60408051608080825260a08201909252606091602082018180368337019050509050612961816000613ae8613a92565b61296f816001613aff613a92565b61297d816002613b0a613a92565b61298b816003613b1f613a92565b90565b6060610712826001600019613b34565b6129a661422b565b6129ae61422b565b60208301805160ff8082168352606084019290925290600882901c166001600160401b038111156129e1576129e1614454565b604051908082528060200260200182016040528015612a0a578160200160208202803683370190505b50602083015260ff601082901c81166080840152601882901c1660606000826001600160401b03811115612a4057612a40614454565b604051908082528060200260200182016040528015612a69578160200160208202803683370190505b5090506020870151602002604001870160005b84811015612aa3578160208202602001840152815160200182019150600181019050612a7c565b505060408501525091949350505050565b600060078216600383811c16828082612ad557506000199050610100612b16565b8260011415612af057506001600160801b0390506080612b16565b8260021415612b0b57506001600160401b0390506040612b16565b5063ffffffff905060205b6001600587901c016000816001600160401b03811115612b3857612b38614454565b604051908082528060200260200182016040528015612b61578160200160208202803683370190505b50905060208082019083028a03815b8b821015612b88578151815260209182019101612b70565b505060608b015160808c015160209081029091010160005b610100811015612be65760208502830182845b82811015612bcf578051841c8a16825260209182019101612bb3565b505050612bdd8e8e8b61185a565b9b508501612ba0565b50999c9b505050505050505050505050565b606060008260600151905060006018846040015151901b60108560800151901b6008866020015151901b866060015151171717905060008160001b83604051602001612c449190614efb565b60408051601f1981840301815290829052612c629291602001615097565b604051602081830303815290604052905060005b856040015151811015612cf0578186604001518281518110612c9a57612c9a614960565b60200260200101515160001b87604001518381518110612cbc57612cbc614960565b6020026020010151604051602001612cd6939291906150bd565b60408051601f198184030181529190529150600101612c76565b50949350505050565b610f4181604051602401612d0d919061434b565b60408051601f198184030181529190526020810180516001600160e01b03166305f3bfab60e11b179052613be5565b610f4181604051602401612d5291815260200190565b60408051601f198184030181529190526020810180516001600160e01b031663f82c50f160e01b179052613be5565b612d8b82826114db565b610ccf57612da3816001600160a01b03166014613c06565b612dae836020613c06565b604051602001612dbf9291906150f4565b60408051601f198184030181529082905262461bcd60e51b82526107639160040161434b565b612ded6120d1565b54610100900460ff16612e125760405162461bcd60e51b815260040161076390614f31565b81612e1b611adf565b6002019080519060200190612e3192919061416a565b5080612e3b611adf565b6003019080519060200190612e5192919061416a565b506001612e5c611adf565b555050565b600054610100900460ff16612e885760405162461bcd60e51b815260040161076390614f85565b6114d933612265565b60608151826040516020016116cf929190615163565b6000818310612eb65781611ad8565b5090919050565b6000612ec7611adf565b54905081612ee85760405163b562e8dd60e01b815260040160405180910390fd5b612ef56000848385611c03565b680100000000000000018202612f09611adf565b6001600160a01b0385166000908152600591909101602052604090208054919091019055612f3d836001841460e11b611cf9565b612f45611adf565b600083815260049190910160205260408120919091556001600160a01b0384169083830190839083906000805160206154548339815191528180a4600183015b818114612fab5780836000600080516020615454833981519152600080a4600101612f85565b5081612fc957604051622e076360e81b815260040160405180910390fd5b80612fd2611adf565b5550610c509050565b603f1981018051601f1990920180516040516370a0823160e01b815291936000939290919084906001600160a01b038416906370a0823190613021908590600401614377565b602060405180830381865afa15801561303e573d6000803e3d6000fd5b505050506040513d601f19601f8201168201806040525081019061306291906151b4565b9093525092949350505050565b6000806000602084039150815190506000816001600160a01b03166318160ddd6040518163ffffffff1660e01b8152600401602060405180830381865afa1580156130be573d6000803e3d6000fd5b505050506040513d601f19601f820116820180604052508101906130e291906151b4565b90925250919392505050565b605f1981018051603f1983018051601f199094015160405163277166bf60e11b81529194600094939290919085906001600160a01b03851690634ee2cd7e9061313d908690869060040161440b565b602060405180830381865afa15801561315a573d6000803e3d6000fd5b505050506040513d601f19601f8201168201806040525081019061317e91906151b4565b909452509395945050505050565b603f1981018051601f199092018051604051630981b24d60e41b81526004810182905291936000939290919084906001600160a01b0384169063981b24d090602401613021565b603f1981018051601f1990920180516040516331a9108f60e11b81526004810182905291936000939290919084906001600160a01b03841690636352211e90602401602060405180830381865afa158015613232573d6000803e3d6000fd5b505050506040513d601f19601f8201168201806040525081019061325691906151cd565b6001600160a01b03169093525092949350505050565b605f1981018051603f1983018051601f1990940151604051627eeac760e11b81529194600094939290919085906001600160a01b0385169062fdd58e9061313d908690869060040161440b565b6000806000846001600160401b038111156132d6576132d6614454565b6040519080825280602002602001820160405280156132ff578160200160208202803683370190505b5090506000856001600160401b0381111561331c5761331c614454565b604051908082528060200260200182016040528015613345578160200160208202803683370190505b50604087028603601f1981018051909550919250602080890282019085015b8183101561337c578251815260209283019201613364565b5050602088028101602084015b818310156133a1578251815260209283019201613389565b50506040516313849cfd60e21b8152600091506001600160a01b03831690634e1273f4906133d590879087906004016151ea565b600060405180830381865afa1580156133f2573d6000803e3d6000fd5b505050506040513d6000823e601f3d908101601f1916820160405261341a9190810190615240565b9050846020820160208a0281015b80821015613443578151835260209283019290910190613428565b50909998505050505050505050565b438152602001919050565b338152602001919050565b308152602001919050565b428152602001919050565b601f198101805160009190826130e28287613da1565b603f1981018051601f19909201805190926000929183613062826134b8858a613da1565b90613e04565b603f1981018051601f19909201805190926000929183613062826134e2858a613da1565b90613e23565b601f198101805160009190826130e28287613e38565b601f198101805160009190826130e28287613e83565b6000602083028203805b8381101561353e578051801561353557825261353e565b5060200161351e565b506020019392505050565b605f1981018051156020028201603f1990810151909152018092915050565b601f1981018051603f199092018051909214909152919050565b6000602083028203805b8381101561353e5780516135a3576000825261353e565b60200161358c565b601f1981018051603f19909201805192909211909152919050565b601f1981018051159052919050565b601f1981018051603f19909201805192909210909152919050565b6020828102820380516000928201835b8582108015613610575060001983105b1561362f575080516020909101906136288382613ec3565b9250613600565b505081526020019392505050565b6020828102820380516000928201835b858210801561365d575060001983105b1561362f575080516020909101906136758382613ee0565b925061364d565b6020828102820380516000928201835b858210801561369b5750826000105b1561362f575080516020909101906136b38382613f0f565b925061368c565b600060208302820380516000602083015b8581101561362f57805183019150828210156136e657600080fd5b90915081906020016136cb565b600060208302820380516000602083015b8581101561362f57805191508161371a57600080fd5b9181900491602001613704565b6020828102820380516000928201835b8582101561362f5750805160209091019061375281846153b4565b9250613737565b6020828102820380516000928201835b8582101561362f5750805182811115613780578092505b602082019150613769565b6020828102820380516000928201835b8582101561362f57508051828110156137b2578092505b60208201915061379b565b600060208302820380516000602083015b8581101561362f5780519150816137e457600080fd5b91819006916020016137ce565b60006020830282038051600080602084015b8681101561383457831561382c57805192508284029150828483041461382857600080fd5b8193505b602001613803565b50505081526020019392505050565b600060208302820380516000602083015b8581101561362f578051830391508282111561386f57600080fd5b9091508190602001613854565b819003603f1981018051601f199092018051848252604051632235a18160e21b8152919360009392909190859085906001600160a01b038516906388d686049061313d90869086906004016153c0565b819003605f1981018051603f19830151601f19909301805185825260405163caa0eb3b60e01b815291946000949392909190869086906001600160a01b0386169063caa0eb3b90613925908790879087906004016153e4565b602060405180830381865afa158015613942573d6000803e3d6000fd5b505050506040513d601f19601f8201168201806040525081019061396691906151b4565b8652505060209093019695505050505050565b603f1981018051601f199092018051909260009291836130628383613f25565b6000600783901c6003600585901c16601f85168380826001600160401b038111156139c6576139c6614454565b6040519080825280602002602001820160405280156139ef578160200160208202803683370190505b509050600060206001850102880392506020840283018360005b82821015613a2b57815181602001860152602082019150602081019050613a09565b50505190506000613a3e83838989613f84565b845250506020909101979650505050505050565b603f1981018051601f199092018051909260009291600f80871691600488901c9091169085613a838585858561407a565b90955250949695505050505050565b825160208302908110613ada5760405162461bcd60e51b815260206004820152601060248201526f464e5f505452535f4f564552464c4f5760801b6044820152606401610763565b506020918202929092010152565b600080613af36109b3565b83525050602001919050565b600080613af3612573565b601f198101805160009190826130e28261276c565b601f198101805160009190826130e282611d0e565b6060833b80613b53575050604080516020810190915260008152611ad8565b80841115613b71575050604080516020810190915260008152611ad8565b83831015613ba35760405163162544fd60e11b8152600481018290526024810185905260448101849052606401610763565b8383038482036000828210613bb85782613bba565b815b60408051603f8301601f19168101909152818152955090508087602087018a3c505050509392505050565b80516a636f6e736f6c652e6c6f67602083016000808483855afa5050505050565b60606000613c158360026149ab565b613c2090600261507f565b6001600160401b03811115613c3757613c37614454565b6040519080825280601f01601f191660200182016040528015613c61576020820181803683370190505b509050600360fc1b81600081518110613c7c57613c7c614960565b60200101906001600160f81b031916908160001a905350600f60fb1b81600181518110613cab57613cab614960565b60200101906001600160f81b031916908160001a9053506000613ccf8460026149ab565b613cda90600161507f565b90505b6001811115613d52576f181899199a1a9b1b9c1cb0b131b232b360811b85600f1660108110613d0e57613d0e614960565b1a60f81b828281518110613d2457613d24614960565b60200101906001600160f81b031916908160001a90535060049490941c93613d4b8161540b565b9050613cdd565b508315611ad85760405162461bcd60e51b815260206004820181905260248201527f537472696e67733a20686578206c656e67746820696e73756666696369656e746044820152606401610763565b6000808260121415613db65783915050610712565b8260121115613de257506012829003613dd081600a6153b4565b613dda90856149ab565b915050610712565b506011198201613df381600a6153b4565b613dda90856149e0565b5092915050565b600081613e19670de0b6b3a7640000856149ab565b611ad891906149e0565b6000670de0b6b3a7640000613e1983856149ab565b600081810b613e48575081610712565b60008260000b1315613e7057613e5f82600a615422565b613e6990846149ab565b9050610712565b60ff600083900316613df381600a6153b4565b6000806012831415613e985783915050610712565b8260121115613eb257506012829003613df381600a6153b4565b506011198201613dd081600a6153b4565b6000828201838110613ed55780612667565b600019949350505050565b600082613eef57506000610712565b82820282848281613f0257613f026149ca565b041415613ed55780612667565b6000818311613f1f576000611ad8565b50900390565b60008060015b60088111613f7c576000613f3f86836140d6565b90506000613f4d86846140d6565b90506000613f5b8383613f0f565b9050613f6b85600186038361411b565b94505060019092019150613f2b9050565b509392505050565b835160009081908190819060015b6008811161406c57600092508287613fad5750600019613fb1565b5060005b60005b8381101561404857613fdf8c8281518110613fd157613fd1614960565b6020026020010151846140d6565b95508a86116140315788613ffe57613ff78683612ea7565b9150614028565b600189141561401157613ff7868361415a565b60028914801561401f575084155b15614028578591505b60019450614040565b89614040576000199150614048565b600101613fb4565b508361405357506000195b61406186600184038361411b565b955050600101613f92565b509298975050505050505050565b600082600881111561409e5760405162461bcd60e51b815260040161076390615431565b6000855b858110156140ca5763ffffffff6020820290811b199890981685891b179791506001016140a2565b50959695505050505050565b60008160088111156140fa5760405162461bcd60e51b815260040161076390615431565b826141085760009150613dfd565b5050600019016020021c63ffffffff1690565b600082600881111561413f5760405162461bcd60e51b815260040161076390615431565b505063ffffffff602090920291821b199290921691901b1790565b600081831015612eb65781611ad8565b82805461417690614976565b90600052602060002090601f01602090048101928261419857600085556141de565b82601f106141b157805160ff19168380011785556141de565b828001600101855582156141de579182015b828111156141de5782518255916020019190600101906141c3565b506141ea92915061425a565b5090565b6040518060e00160405280600081526020016000815260200160008152602001600081526020016000815260200160008152602001600081525090565b6040518060a0016040528060008152602001606081526020016060815260200160608152602001600081525090565b5b808211156141ea576000815560010161425b565b6001600160e01b031981168114610f4157600080fd5b60006020828403121561429757600080fd5b8135611ad88161426f565b6001600160a01b0381168114610f4157600080fd5b80356142c2816142a2565b919050565b600080604083850312156142da57600080fd5b82356142e5816142a2565b946020939093013593505050565b60005b8381101561430e5781810151838201526020016142f6565b838111156116855750506000910152565b600081518084526143378160208601602086016142f3565b601f01601f19169290920160200192915050565b602081526000611ad8602083018461431f565b60006020828403121561437057600080fd5b5035919050565b6001600160a01b0391909116815260200190565b6000806000606084860312156143a057600080fd5b83356143ab816142a2565b925060208401356143bb816142a2565b929592945050506040919091013590565b6000602082840312156143de57600080fd5b8135611ad8816142a2565b600080604083850312156143fc57600080fd5b50508035926020909101359150565b6001600160a01b03929092168252602082015260400190565b6000806040838503121561443757600080fd5b823591506020830135614449816142a2565b809150509250929050565b634e487b7160e01b600052604160045260246000fd5b604080519081016001600160401b038111828210171561448c5761448c614454565b60405290565b60405161014081016001600160401b038111828210171561448c5761448c614454565b604051601f8201601f191681016001600160401b03811182821017156144dd576144dd614454565b604052919050565b60006001600160401b038211156144fe576144fe614454565b50601f01601f191660200190565b600082601f83011261451d57600080fd5b813561453061452b826144e5565b6144b5565b81815284602083860101111561454557600080fd5b816020850160208301376000918101602001919091529392505050565b60006001600160401b0382111561457b5761457b614454565b5060051b60200190565b600082601f83011261459657600080fd5b813560206145a661452b83614562565b82815260059290921b840181019181810190868411156145c557600080fd5b8286015b848110156145e057803583529183019183016145c9565b509695505050505050565b6000604082840312156145fd57600080fd5b61460561446a565b905081356001600160401b038082111561461e57600080fd5b818401915084601f83011261463257600080fd5b8135602061464261452b83614562565b82815260059290921b8401810191818101908884111561466157600080fd5b8286015b848110156146995780358681111561467d5760008081fd5b61468b8b86838b010161450c565b845250918301918301614665565b50865250858101359350828411156146b057600080fd5b6146bc87858801614585565b818601525050505092915050565b600080604083850312156146dd57600080fd5b82356001600160401b03808211156146f457600080fd5b90840190610140828703121561470957600080fd5b614711614492565b82358281111561472057600080fd5b61472c8882860161450c565b82525060208301358281111561474157600080fd5b61474d8882860161450c565b60208301525060408301358281111561476557600080fd5b6147718882860161450c565b6040830152506060830135606082015261478d608084016142b7565b608082015261479e60a084016142b7565b60a08201526147af60c084016142b7565b60c082015260e083013560e08201526101006147cc8185016142b7565b9082015261012083810135838111156147e457600080fd5b6147f0898287016145eb565b828401525050809450505050614808602084016142b7565b90509250929050565b6000806000806080858703121561482757600080fd5b8435614832816142a2565b966020860135965060408601359560600135945092505050565b8015158114610f4157600080fd5b6000806040838503121561486d57600080fd5b8235614878816142a2565b915060208301356144498161484c565b60006060828403121561220557600080fd5b600080600080608085870312156148b057600080fd5b84356148bb816142a2565b935060208501356148cb816142a2565b92506040850135915060608501356001600160401b038111156148ed57600080fd5b6148f98782880161450c565b91505092959194509250565b6000806040838503121561491857600080fd5b8235614923816142a2565b91506020830135614449816142a2565b634e487b7160e01b600052601160045260246000fd5b60008282101561495b5761495b614933565b500390565b634e487b7160e01b600052603260045260246000fd5b600181811c9082168061498a57607f821691505b6020821081141561220557634e487b7160e01b600052602260045260246000fd5b60008160001904831182151516156149c5576149c5614933565b500290565b634e487b7160e01b600052601260045260246000fd5b6000826149ef576149ef6149ca565b500490565b6001600160a01b039390931683526020830191909152604082015260600190565b600060208284031215614a2757600080fd5b8151611ad88161484c565b600081518084526020808501808196508360051b8101915082860160005b85811015614a7a578284038952614a6884835161431f565b98850198935090840190600101614a50565b5091979650505050505050565b600081518084526020808501945080840160005b83811015614ab757815187529582019590820190600101614a9b565b509495945050505050565b6000815160408452614ad76040850182614a32565b905060208301518482036020860152614af08282614a87565b95945050505050565b6001600160a01b03841681526060602080830182905260009190614b1f84830187614ac2565b84810360408681019190915286518083528388019284019060005b81811015614b90578451805184528681015187850152848101518585015287810151888501526080808201519085015260a0808201519085015260c090810151908401529385019360e090920191600101614b3a565b50909a9950505050505050505050565b600060208284031215614bb257600080fd5b81516001600160401b03811115614bc857600080fd5b8201601f81018413614bd957600080fd5b8051614be761452b826144e5565b818152856020838501011115614bfc57600080fd5b614af08260208301602086016142f3565b6040815260008351610140806040850152614c2c61018085018361431f565b91506020860151603f1980868503016060870152614c4a848361431f565b93506040880151915080868503016080870152614c67848361431f565b9350606088015160a087015260808801519150614c8f60c08701836001600160a01b03169052565b60a08801516001600160a01b03811660e0880152915060c08801519150610100614cc3818801846001600160a01b03169052565b60e089015161012088810191909152908901516001600160a01b0316938701939093529187015185840390920161016086015250614d018282614ac2565b92505050611ad860208301846001600160a01b03169052565b600060608284031215614d2c57600080fd5b604051606081018181106001600160401b0382111715614d4e57614d4e614454565b80604052508235815260208301356020820152604083013560408201528091505092915050565b60008151614d878185602086016142f3565b9290920192915050565b600080845481600182811c915080831680614dad57607f831692505b6020808410821415614dcd57634e487b7160e01b86526022600452602486fd5b818015614de15760018114614df257614e1f565b60ff19861689528489019650614e1f565b60008b81526020902060005b86811015614e175781548b820152908501908301614dfe565b505084890196505b505050505050614af0614e42614e3c83602f60f81b815260010190565b86614d75565b64173539b7b760d91b815260050190565b60008351614e658184602088016142f3565b835190830190614e798183602088016142f3565b01949350505050565b60208152815160208201526000602083015160a06040840152614ea860c0840182614a87565b90506040840151601f1980858403016060860152614ec68383614a32565b9250606086015191508085840301608086015250614ee48282614a87565b915050608084015160a08401528091505092915050565b815160009082906020808601845b83811015614f2557815185529382019390820190600101614f09565b50929695505050505050565b60208082526034908201527f455243373231415f5f496e697469616c697a61626c653a20636f6e7472616374604082015273206973206e6f7420696e697469616c697a696e6760601b606082015260800190565b6020808252602b908201527f496e697469616c697a61626c653a20636f6e7472616374206973206e6f74206960408201526a6e697469616c697a696e6760a81b606082015260800190565b6000815260008251614fe98160018501602087016142f3565b9190910160010192915050565b6001600160a01b03858116825284166020820152604081018390526080606082018190526000906150299083018461431f565b9695505050505050565b60006020828403121561504557600080fd5b8151611ad88161426f565b600060001982141561506457615064614933565b5060010190565b60008261507a5761507a6149ca565b500690565b6000821982111561509257615092614933565b500190565b828152600082516150af8160208501602087016142f3565b919091016020019392505050565b600084516150cf8184602089016142f3565b820184815283516150e78160208085019088016142f3565b0160200195945050505050565b76020b1b1b2b9b9a1b7b73a3937b61d1030b1b1b7bab73a1604d1b8152600083516151268160178501602088016142f3565b7001034b99036b4b9b9b4b733903937b6329607d1b60179184019182015283516151578160288401602088016142f3565b01602801949350505050565b606360f81b815260e083901b6001600160e01b03191660018201526880600e6000396000f360b81b600582015281516000906151a681600e8501602087016142f3565b91909101600e019392505050565b6000602082840312156151c657600080fd5b5051919050565b6000602082840312156151df57600080fd5b8151611ad8816142a2565b604080825283519082018190526000906020906060840190828701845b8281101561522c5781516001600160a01b031684529284019290840190600101615207565b505050838103828501526150298186614a87565b6000602080838503121561525357600080fd5b82516001600160401b0381111561526957600080fd5b8301601f8101851361527a57600080fd5b805161528861452b82614562565b81815260059190911b820183019083810190878311156152a757600080fd5b928401925b828410156152c5578351825292840192908401906152ac565b979650505050505050565b600181815b8085111561530b5781600019048211156152f1576152f1614933565b808516156152fe57918102915b93841c93908002906152d5565b509250929050565b60008261532257506001610712565b8161532f57506000610712565b8160018114615345576002811461534f5761536b565b6001915050610712565b60ff84111561536057615360614933565b50506001821b610712565b5060208310610133831016604e8410600b841016171561538e575081810a610712565b61539883836152d0565b80600019048211156153ac576153ac614933565b029392505050565b6000611ad88383615313565b6001600160a01b038316815260406020820181905260009061266790830184614a87565b60018060a01b0384168152826020820152606060408201526000614af06060830184614a87565b60008161541a5761541a614933565b506000190190565b6000611ad860ff841683615313565b60208082526008908201526726a0ac2faa24a2a960c11b60408201526060019056feddf252ad1be2c89b69c2b068fc378daa952ba7f163c4a11628f55a4df523b3efa2646970667358221220f09fe1bc8ee13df2370b9958a07e560a9f5f67d722f6b6448ab7c410ed3b1a5864736f6c634300080a0033",
  "linkReferences": {},
  "deployedLinkReferences": {}
}