{
  "_format": "hh-sol-artifact-1",
  "contractName": "Vapour721A",
  "sourceName": "contracts/Vapour721A.sol",
  "abi": [
    {
      "inputs": [
        {
          "components": [
            {
              "internalType": "string",
              "name": "name",
              "type": "string"
            },
            {
              "internalType": "string",
              "name": "symbol",
              "type": "string"
            },
            {
              "internalType": "string",
              "name": "baseURI",
              "type": "string"
            },
            {
              "internalType": "uint256",
              "name": "supplyLimit",
              "type": "uint256"
            },
            {
              "internalType": "address",
              "name": "recipient",
              "type": "address"
            },
            {
              "internalType": "address",
              "name": "owner",
              "type": "address"
            },
            {
              "internalType": "address",
              "name": "admin",
              "type": "address"
            },
            {
              "internalType": "uint256",
              "name": "royaltyBPS",
              "type": "uint256"
            }
          ],
          "internalType": "struct ConstructorConfig",
          "name": "config_",
          "type": "tuple"
        }
      ],
      "stateMutability": "nonpayable",
      "type": "constructor"
    },
    {
      "inputs": [],
      "name": "ApprovalCallerNotOwnerNorApproved",
      "type": "error"
    },
    {
      "inputs": [],
      "name": "ApprovalQueryForNonexistentToken",
      "type": "error"
    },
    {
      "inputs": [],
      "name": "ApprovalToCurrentOwner",
      "type": "error"
    },
    {
      "inputs": [],
      "name": "ApproveToCaller",
      "type": "error"
    },
    {
      "inputs": [],
      "name": "BalanceQueryForZeroAddress",
      "type": "error"
    },
    {
      "inputs": [
        {
          "internalType": "uint256",
          "name": "_size",
          "type": "uint256"
        },
        {
          "internalType": "uint256",
          "name": "_start",
          "type": "uint256"
        },
        {
          "internalType": "uint256",
          "name": "_end",
          "type": "uint256"
        }
      ],
      "name": "InvalidCodeAtRange",
      "type": "error"
    },
    {
      "inputs": [],
      "name": "MintToZeroAddress",
      "type": "error"
    },
    {
      "inputs": [],
      "name": "MintZeroQuantity",
      "type": "error"
    },
    {
      "inputs": [],
      "name": "OwnerQueryForNonexistentToken",
      "type": "error"
    },
    {
      "inputs": [],
      "name": "TransferCallerNotOwnerNorApproved",
      "type": "error"
    },
    {
      "inputs": [],
      "name": "TransferFromIncorrectOwner",
      "type": "error"
    },
    {
      "inputs": [],
      "name": "TransferToNonERC721ReceiverImplementer",
      "type": "error"
    },
    {
      "inputs": [],
      "name": "TransferToZeroAddress",
      "type": "error"
    },
    {
      "inputs": [],
      "name": "URIQueryForNonexistentToken",
      "type": "error"
    },
    {
      "inputs": [],
      "name": "WriteError",
      "type": "error"
    },
    {
      "anonymous": false,
      "inputs": [
        {
          "indexed": true,
          "internalType": "address",
          "name": "owner",
          "type": "address"
        },
        {
          "indexed": true,
          "internalType": "address",
          "name": "approved",
          "type": "address"
        },
        {
          "indexed": true,
          "internalType": "uint256",
          "name": "tokenId",
          "type": "uint256"
        }
      ],
      "name": "Approval",
      "type": "event"
    },
    {
      "anonymous": false,
      "inputs": [
        {
          "indexed": true,
          "internalType": "address",
          "name": "owner",
          "type": "address"
        },
        {
          "indexed": true,
          "internalType": "address",
          "name": "operator",
          "type": "address"
        },
        {
          "indexed": false,
          "internalType": "bool",
          "name": "approved",
          "type": "bool"
        }
      ],
      "name": "ApprovalForAll",
      "type": "event"
    },
    {
      "anonymous": false,
      "inputs": [
        {
          "indexed": false,
          "internalType": "address",
          "name": "_receiver",
          "type": "address"
        },
        {
          "indexed": false,
          "internalType": "uint256",
          "name": "_units",
          "type": "uint256"
        },
        {
          "indexed": false,
          "internalType": "uint256",
          "name": "_cost",
          "type": "uint256"
        }
      ],
      "name": "Buy",
      "type": "event"
    },
    {
      "anonymous": false,
      "inputs": [
        {
          "components": [
            {
              "internalType": "string",
              "name": "name",
              "type": "string"
            },
            {
              "internalType": "string",
              "name": "symbol",
              "type": "string"
            },
            {
              "internalType": "string",
              "name": "baseURI",
              "type": "string"
            },
            {
              "internalType": "uint256",
              "name": "supplyLimit",
              "type": "uint256"
            },
            {
              "internalType": "address",
              "name": "recipient",
              "type": "address"
            },
            {
              "internalType": "address",
              "name": "owner",
              "type": "address"
            },
            {
              "internalType": "address",
              "name": "admin",
              "type": "address"
            },
            {
              "internalType": "uint256",
              "name": "royaltyBPS",
              "type": "uint256"
            }
          ],
          "indexed": false,
          "internalType": "struct ConstructorConfig",
          "name": "config_",
          "type": "tuple"
        }
      ],
      "name": "Construct",
      "type": "event"
    },
    {
      "anonymous": false,
      "inputs": [
        {
          "components": [
            {
              "internalType": "address",
              "name": "currency",
              "type": "address"
            },
            {
              "internalType": "address",
              "name": "vmStateBuilder",
              "type": "address"
            },
            {
              "components": [
                {
                  "internalType": "bytes[]",
                  "name": "sources",
                  "type": "bytes[]"
                },
                {
                  "internalType": "uint256[]",
                  "name": "constants",
                  "type": "uint256[]"
                }
              ],
              "internalType": "struct StateConfig",
              "name": "vmStateConfig",
              "type": "tuple"
            }
          ],
          "indexed": false,
          "internalType": "struct InitializeConfig",
          "name": "config_",
          "type": "tuple"
        }
      ],
      "name": "Initialize",
      "type": "event"
    },
    {
      "anonymous": false,
      "inputs": [
        {
          "indexed": true,
          "internalType": "address",
          "name": "previousOwner",
          "type": "address"
        },
        {
          "indexed": true,
          "internalType": "address",
          "name": "newOwner",
          "type": "address"
        }
      ],
      "name": "OwnershipTransferred",
      "type": "event"
    },
    {
      "anonymous": false,
      "inputs": [
        {
          "indexed": false,
          "internalType": "address",
          "name": "newRecipient",
          "type": "address"
        }
      ],
      "name": "RecipientChanged",
      "type": "event"
    },
    {
      "anonymous": false,
      "inputs": [
        {
          "indexed": true,
          "internalType": "bytes32",
          "name": "role",
          "type": "bytes32"
        },
        {
          "indexed": true,
          "internalType": "bytes32",
          "name": "previousAdminRole",
          "type": "bytes32"
        },
        {
          "indexed": true,
          "internalType": "bytes32",
          "name": "newAdminRole",
          "type": "bytes32"
        }
      ],
      "name": "RoleAdminChanged",
      "type": "event"
    },
    {
      "anonymous": false,
      "inputs": [
        {
          "indexed": true,
          "internalType": "bytes32",
          "name": "role",
          "type": "bytes32"
        },
        {
          "indexed": true,
          "internalType": "address",
          "name": "account",
          "type": "address"
        },
        {
          "indexed": true,
          "internalType": "address",
          "name": "sender",
          "type": "address"
        }
      ],
      "name": "RoleGranted",
      "type": "event"
    },
    {
      "anonymous": false,
      "inputs": [
        {
          "indexed": true,
          "internalType": "bytes32",
          "name": "role",
          "type": "bytes32"
        },
        {
          "indexed": true,
          "internalType": "address",
          "name": "account",
          "type": "address"
        },
        {
          "indexed": true,
          "internalType": "address",
          "name": "sender",
          "type": "address"
        }
      ],
      "name": "RoleRevoked",
      "type": "event"
    },
    {
      "anonymous": false,
      "inputs": [
        {
          "indexed": true,
          "internalType": "address",
          "name": "from",
          "type": "address"
        },
        {
          "indexed": true,
          "internalType": "address",
          "name": "to",
          "type": "address"
        },
        {
          "indexed": true,
          "internalType": "uint256",
          "name": "tokenId",
          "type": "uint256"
        }
      ],
      "name": "Transfer",
      "type": "event"
    },
    {
      "anonymous": false,
      "inputs": [
        {
          "indexed": false,
          "internalType": "address",
          "name": "_withdrawer",
          "type": "address"
        },
        {
          "indexed": false,
          "internalType": "uint256",
          "name": "_amountWithdrawn",
          "type": "uint256"
        },
        {
          "indexed": false,
          "internalType": "uint256",
          "name": "_totalWithdrawn",
          "type": "uint256"
        }
      ],
      "name": "Withdraw",
      "type": "event"
    },
    {
      "inputs": [],
      "name": "DEFAULT_ADMIN_ROLE",
      "outputs": [
        {
          "internalType": "bytes32",
          "name": "",
          "type": "bytes32"
        }
      ],
      "stateMutability": "view",
      "type": "function"
    },
    {
      "inputs": [
        {
          "internalType": "address",
          "name": "to",
          "type": "address"
        },
        {
          "internalType": "uint256",
          "name": "tokenId",
          "type": "uint256"
        }
      ],
      "name": "approve",
      "outputs": [],
      "stateMutability": "nonpayable",
      "type": "function"
    },
    {
      "inputs": [
        {
          "internalType": "address",
          "name": "owner",
          "type": "address"
        }
      ],
      "name": "balanceOf",
      "outputs": [
        {
          "internalType": "uint256",
          "name": "",
          "type": "uint256"
        }
      ],
      "stateMutability": "view",
      "type": "function"
    },
    {
      "inputs": [
        {
          "internalType": "uint256",
          "name": "tokenId",
          "type": "uint256"
        }
      ],
      "name": "burn",
      "outputs": [],
      "stateMutability": "nonpayable",
      "type": "function"
    },
    {
      "inputs": [
        {
          "internalType": "address",
          "name": "account_",
          "type": "address"
        },
        {
          "internalType": "uint256",
          "name": "targetUnits_",
          "type": "uint256"
        }
      ],
      "name": "calculateBuy",
      "outputs": [
        {
          "internalType": "uint256",
          "name": "maxUnits_",
          "type": "uint256"
        },
        {
          "internalType": "uint256",
          "name": "price_",
          "type": "uint256"
        }
      ],
      "stateMutability": "view",
      "type": "function"
    },
    {
      "inputs": [],
      "name": "fnPtrs",
      "outputs": [
        {
          "internalType": "bytes",
          "name": "",
          "type": "bytes"
        }
      ],
      "stateMutability": "pure",
      "type": "function"
    },
    {
      "inputs": [
        {
          "internalType": "uint256",
          "name": "tokenId",
          "type": "uint256"
        }
      ],
      "name": "getApproved",
      "outputs": [
        {
          "internalType": "address",
          "name": "",
          "type": "address"
        }
      ],
      "stateMutability": "view",
      "type": "function"
    },
    {
      "inputs": [
        {
          "internalType": "bytes32",
          "name": "role",
          "type": "bytes32"
        }
      ],
      "name": "getRoleAdmin",
      "outputs": [
        {
          "internalType": "bytes32",
          "name": "",
          "type": "bytes32"
        }
      ],
      "stateMutability": "view",
      "type": "function"
    },
    {
      "inputs": [
        {
          "internalType": "bytes32",
          "name": "role",
          "type": "bytes32"
        },
        {
          "internalType": "address",
          "name": "account",
          "type": "address"
        }
      ],
      "name": "grantRole",
      "outputs": [],
      "stateMutability": "nonpayable",
      "type": "function"
    },
    {
      "inputs": [
        {
          "internalType": "bytes32",
          "name": "role",
          "type": "bytes32"
        },
        {
          "internalType": "address",
          "name": "account",
          "type": "address"
        }
      ],
      "name": "hasRole",
      "outputs": [
        {
          "internalType": "bool",
          "name": "",
          "type": "bool"
        }
      ],
      "stateMutability": "view",
      "type": "function"
    },
    {
      "inputs": [
        {
          "components": [
            {
              "internalType": "address",
              "name": "currency",
              "type": "address"
            },
            {
              "internalType": "address",
              "name": "vmStateBuilder",
              "type": "address"
            },
            {
              "components": [
                {
                  "internalType": "bytes[]",
                  "name": "sources",
                  "type": "bytes[]"
                },
                {
                  "internalType": "uint256[]",
                  "name": "constants",
                  "type": "uint256[]"
                }
              ],
              "internalType": "struct StateConfig",
              "name": "vmStateConfig",
              "type": "tuple"
            }
          ],
          "internalType": "struct InitializeConfig",
          "name": "config_",
          "type": "tuple"
        }
      ],
      "name": "initialize",
      "outputs": [],
      "stateMutability": "nonpayable",
      "type": "function"
    },
    {
      "inputs": [
        {
          "internalType": "address",
          "name": "owner",
          "type": "address"
        },
        {
          "internalType": "address",
          "name": "operator",
          "type": "address"
        }
      ],
      "name": "isApprovedForAll",
      "outputs": [
        {
          "internalType": "bool",
          "name": "",
          "type": "bool"
        }
      ],
      "stateMutability": "view",
      "type": "function"
    },
    {
      "inputs": [
        {
          "components": [
            {
              "internalType": "uint256",
              "name": "maximumPrice",
              "type": "uint256"
            },
            {
              "internalType": "uint256",
              "name": "minimumUnits",
              "type": "uint256"
            },
            {
              "internalType": "uint256",
              "name": "desiredUnits",
              "type": "uint256"
            }
          ],
          "internalType": "struct BuyConfig",
          "name": "config_",
          "type": "tuple"
        }
      ],
      "name": "mintNFT",
      "outputs": [],
      "stateMutability": "payable",
      "type": "function"
    },
    {
      "inputs": [
        {
          "internalType": "address",
          "name": "receiver",
          "type": "address"
        },
        {
          "internalType": "uint256",
          "name": "maximumPrice",
          "type": "uint256"
        },
        {
          "internalType": "uint256",
          "name": "minimumUnits",
          "type": "uint256"
        },
        {
          "internalType": "uint256",
          "name": "desiredUnits",
          "type": "uint256"
        }
      ],
      "name": "mintNFTFor",
      "outputs": [],
      "stateMutability": "payable",
      "type": "function"
    },
    {
      "inputs": [],
      "name": "name",
      "outputs": [
        {
          "internalType": "string",
          "name": "",
          "type": "string"
        }
      ],
      "stateMutability": "view",
      "type": "function"
    },
    {
      "inputs": [],
      "name": "owner",
      "outputs": [
        {
          "internalType": "address",
          "name": "",
          "type": "address"
        }
      ],
      "stateMutability": "view",
      "type": "function"
    },
    {
      "inputs": [
        {
          "internalType": "uint256",
          "name": "tokenId",
          "type": "uint256"
        }
      ],
      "name": "ownerOf",
      "outputs": [
        {
          "internalType": "address",
          "name": "",
          "type": "address"
        }
      ],
      "stateMutability": "view",
      "type": "function"
    },
    {
      "inputs": [],
      "name": "renounceOwnership",
      "outputs": [],
      "stateMutability": "nonpayable",
      "type": "function"
    },
    {
      "inputs": [
        {
          "internalType": "bytes32",
          "name": "role",
          "type": "bytes32"
        },
        {
          "internalType": "address",
          "name": "account",
          "type": "address"
        }
      ],
      "name": "renounceRole",
      "outputs": [],
      "stateMutability": "nonpayable",
      "type": "function"
    },
    {
      "inputs": [
        {
          "internalType": "bytes32",
          "name": "role",
          "type": "bytes32"
        },
        {
          "internalType": "address",
          "name": "account",
          "type": "address"
        }
      ],
      "name": "revokeRole",
      "outputs": [],
      "stateMutability": "nonpayable",
      "type": "function"
    },
    {
      "inputs": [
        {
          "internalType": "uint256",
          "name": "",
          "type": "uint256"
        },
        {
          "internalType": "uint256",
          "name": "_salePrice",
          "type": "uint256"
        }
      ],
      "name": "royaltyInfo",
      "outputs": [
        {
          "internalType": "address",
          "name": "receiver",
          "type": "address"
        },
        {
          "internalType": "uint256",
          "name": "royaltyAmount",
          "type": "uint256"
        }
      ],
      "stateMutability": "view",
      "type": "function"
    },
    {
      "inputs": [
        {
          "internalType": "address",
          "name": "from",
          "type": "address"
        },
        {
          "internalType": "address",
          "name": "to",
          "type": "address"
        },
        {
          "internalType": "uint256",
          "name": "tokenId",
          "type": "uint256"
        }
      ],
      "name": "safeTransferFrom",
      "outputs": [],
      "stateMutability": "nonpayable",
      "type": "function"
    },
    {
      "inputs": [
        {
          "internalType": "address",
          "name": "from",
          "type": "address"
        },
        {
          "internalType": "address",
          "name": "to",
          "type": "address"
        },
        {
          "internalType": "uint256",
          "name": "tokenId",
          "type": "uint256"
        },
        {
          "internalType": "bytes",
          "name": "_data",
          "type": "bytes"
        }
      ],
      "name": "safeTransferFrom",
      "outputs": [],
      "stateMutability": "nonpayable",
      "type": "function"
    },
    {
      "inputs": [
        {
          "internalType": "address",
          "name": "operator",
          "type": "address"
        },
        {
          "internalType": "bool",
          "name": "approved",
          "type": "bool"
        }
      ],
      "name": "setApprovalForAll",
      "outputs": [],
      "stateMutability": "nonpayable",
      "type": "function"
    },
    {
      "inputs": [
        {
          "internalType": "address",
          "name": "newRecipient",
          "type": "address"
        }
      ],
      "name": "setRecipient",
      "outputs": [],
      "stateMutability": "nonpayable",
      "type": "function"
    },
    {
      "inputs": [],
      "name": "storageOpcodesRange",
      "outputs": [
        {
          "components": [
            {
              "internalType": "uint256",
              "name": "pointer",
              "type": "uint256"
            },
            {
              "internalType": "uint256",
              "name": "length",
              "type": "uint256"
            }
          ],
          "internalType": "struct StorageOpcodesRange",
          "name": "",
          "type": "tuple"
        }
      ],
      "stateMutability": "pure",
      "type": "function"
    },
    {
      "inputs": [
        {
          "internalType": "bytes4",
          "name": "interfaceId",
          "type": "bytes4"
        }
      ],
      "name": "supportsInterface",
      "outputs": [
        {
          "internalType": "bool",
          "name": "",
          "type": "bool"
        }
      ],
      "stateMutability": "view",
      "type": "function"
    },
    {
      "inputs": [],
      "name": "symbol",
      "outputs": [
        {
          "internalType": "string",
          "name": "",
          "type": "string"
        }
      ],
      "stateMutability": "view",
      "type": "function"
    },
    {
      "inputs": [
        {
          "internalType": "uint256",
          "name": "tokenId",
          "type": "uint256"
        }
      ],
      "name": "tokenURI",
      "outputs": [
        {
          "internalType": "string",
          "name": "",
          "type": "string"
        }
      ],
      "stateMutability": "view",
      "type": "function"
    },
    {
      "inputs": [],
      "name": "totalSupply",
      "outputs": [
        {
          "internalType": "uint256",
          "name": "",
          "type": "uint256"
        }
      ],
      "stateMutability": "view",
      "type": "function"
    },
    {
      "inputs": [
        {
          "internalType": "address",
          "name": "from",
          "type": "address"
        },
        {
          "internalType": "address",
          "name": "to",
          "type": "address"
        },
        {
          "internalType": "uint256",
          "name": "tokenId",
          "type": "uint256"
        }
      ],
      "name": "transferFrom",
      "outputs": [],
      "stateMutability": "nonpayable",
      "type": "function"
    },
    {
      "inputs": [
        {
          "internalType": "address",
          "name": "newOwner",
          "type": "address"
        }
      ],
      "name": "transferOwnership",
      "outputs": [],
      "stateMutability": "nonpayable",
      "type": "function"
    },
    {
      "inputs": [],
      "name": "withdraw",
      "outputs": [],
      "stateMutability": "nonpayable",
      "type": "function"
    }
  ],
  "bytecode": "0x60806040523480156200001157600080fd5b506040516200543a3803806200543a833981016040819052620000349162000714565b80516020808301518251909162000051916002918501906200054b565b508051620000679060039060208401906200054b565b50506001600055506200007a3362000214565b6060810151600a55604081015180516200009d916011916020909101906200054b565b5060e0810151601081905561271011620000ec5760405162461bcd60e51b815260206004820152600b60248201526a4d41585f524f59414c545960a81b60448201526064015b60405180910390fd5b6080810151620000fc9062000266565b60a08101516200010c906200037e565b60c08101516001600160a01b0316620001525760405162461bcd60e51b8152602060048201526007602482015266182fa0a226a4a760c91b6044820152606401620000e3565b6200019e7f637062c33901e7d06867eef333d6cabd2aa851e91f8ce674ab4dba45bdc99c707f5ed6f179f99b86220df7cbd206c7334b24cb795a85808301007ee7b2ff91a820620003fd565b620001d47f5ed6f179f99b86220df7cbd206c7334b24cb795a85808301007ee7b2ff91a8208260c001516200044860201b60201c565b7fa1a049b2fe0bf785d3c09e2e2313a207d668abec92a2af8ea2f0b5cf1990de598160405162000205919062000855565b60405180910390a15062000959565b600880546001600160a01b038381166001600160a01b0319831681179093556040519116919082907f8be0079c531659141344cd1fd0a4f28419497f9722a3daafe3b4186f6b6457e090600090a35050565b600f546001600160a01b0316331480620002895750600f546001600160a01b0316155b620002c85760405162461bcd60e51b815260206004820152600e60248201526d524543495049454e545f4f4e4c5960901b6044820152606401620000e3565b6001600160a01b0381163b158015620002e957506001600160a01b03811615155b6200032a5760405162461bcd60e51b815260206004820152601060248201526f24a72b20a624a22fa0a2222922a9a99760811b6044820152606401620000e3565b600f80546001600160a01b0319166001600160a01b0383169081179091556040519081527fff2d07bd188a9eb41acbc4a7db39e18956c95ab7f54f434d97849bf6206e577c9060200160405180910390a150565b62000388620004ed565b6001600160a01b038116620003ef5760405162461bcd60e51b815260206004820152602660248201527f4f776e61626c653a206e6577206f776e657220697320746865207a65726f206160448201526564647265737360d01b6064820152608401620000e3565b620003fa8162000214565b50565b600082815260096020526040808220600101805490849055905190918391839186917fbd79b86ffe0ab8e8776151514217cd7cacd52c909f66475c3af44e129f0b00ff9190a4505050565b60008281526009602090815260408083206001600160a01b038516845290915290205460ff16620004e95760008281526009602090815260408083206001600160a01b03851684529091529020805460ff19166001179055620004a83390565b6001600160a01b0316816001600160a01b0316837f2f8788117e7eff1d82e926ec794901d17c78024a50270940304540a733656f0d60405160405180910390a45b5050565b6008546001600160a01b03163314620005495760405162461bcd60e51b815260206004820181905260248201527f4f776e61626c653a2063616c6c6572206973206e6f7420746865206f776e65726044820152606401620000e3565b565b82805462000559906200091c565b90600052602060002090601f0160209004810192826200057d5760008555620005c8565b82601f106200059857805160ff1916838001178555620005c8565b82800160010185558215620005c8579182015b82811115620005c8578251825591602001919060010190620005ab565b50620005d6929150620005da565b5090565b5b80821115620005d65760008155600101620005db565b634e487b7160e01b600052604160045260246000fd5b60405161010081016001600160401b03811182821017156200062d576200062d620005f1565b60405290565b60005b838110156200065057818101518382015260200162000636565b8381111562000660576000848401525b50505050565b600082601f8301126200067857600080fd5b81516001600160401b0380821115620006955762000695620005f1565b604051601f8301601f19908116603f01168101908282118183101715620006c057620006c0620005f1565b81604052838152866020858801011115620006da57600080fd5b620006ed84602083016020890162000633565b9695505050505050565b80516001600160a01b03811681146200070f57600080fd5b919050565b6000602082840312156200072757600080fd5b81516001600160401b03808211156200073f57600080fd5b9083019061010082860312156200075557600080fd5b6200075f62000607565b8251828111156200076f57600080fd5b6200077d8782860162000666565b8252506020830151828111156200079357600080fd5b620007a18782860162000666565b602083015250604083015182811115620007ba57600080fd5b620007c88782860162000666565b60408301525060608301516060820152620007e660808401620006f7565b6080820152620007f960a08401620006f7565b60a08201526200080c60c08401620006f7565b60c082015260e083015160e082015280935050505092915050565b600081518084526200084181602086016020860162000633565b601f01601f19169290920160200192915050565b60208152600082516101008060208501526200087661012085018362000827565b91506020850151601f198086850301604087015262000896848362000827565b9350604087015191508086850301606087015250620008b6838262000827565b925050606085015160808501526080850151620008de60a08601826001600160a01b03169052565b5060a08501516001600160a01b03811660c08601525060c08501516001600160a01b03811660e08601525060e0949094015192909301919091525090565b600181811c908216806200093157607f821691505b602082108114156200095357634e487b7160e01b600052602260045260246000fd5b50919050565b614ad180620009696000396000f3fe6080604052600436106101ae5760003560e01c80636352211e116100ed578063a22cb46511610090578063a22cb465146104d4578063b4da5e9a146104f4578063b88d4fde14610507578063c87b56dd14610527578063d547741f14610547578063e0419ae314610567578063e985e9c5146105b0578063f2cd6c08146105f9578063f2fde38b1461060e57600080fd5b80636352211e1461040457806370a0823114610424578063715018a6146104445780638da5cb5b1461045957806391d148541461047757806393669a151461049757806395d89b41146104aa578063a217fddf146104bf57600080fd5b80632a55205a116101555780632a55205a146103015780632f2ff15d1461032f57806336568abe1461034f57806336e0d2181461036f5780633bbed4a01461038f5780633ccfd60b146103af57806342842e0e146103c457806342966c68146103e457600080fd5b806301ffc9a7146101b357806305dc5e82146101e857806306fdde031461021d578063081812fc1461023f578063095ea7b31461026c57806318160ddd1461028e57806323b872dd146102b1578063248a9ca3146102d1575b600080fd5b3480156101bf57600080fd5b506101d36101ce366004613b04565b61062e565b60405190151581526020015b60405180910390f35b3480156101f457600080fd5b50610208610203366004613b36565b61063f565b604080519283526020830191909152016101df565b34801561022957600080fd5b50610232610744565b6040516101df9190613bba565b34801561024b57600080fd5b5061025f61025a366004613bcd565b6107d6565b6040516101df9190613be6565b34801561027857600080fd5b5061028c610287366004613b36565b61081a565b005b34801561029a57600080fd5b506102a36108a1565b6040519081526020016101df565b3480156102bd57600080fd5b5061028c6102cc366004613bfa565b6108af565b3480156102dd57600080fd5b506102a36102ec366004613bcd565b60009081526009602052604090206001015490565b34801561030d57600080fd5b5061032161031c366004613c3b565b6108ba565b6040516101df929190613c5d565b34801561033b57600080fd5b5061028c61034a366004613c76565b61091a565b34801561035b57600080fd5b5061028c61036a366004613c76565b61093f565b34801561037b57600080fd5b5061028c61038a366004613e3c565b6109bd565b34801561039b57600080fd5b5061028c6103aa366004613f8d565b610b6d565b3480156103bb57600080fd5b5061028c610c81565b3480156103d057600080fd5b5061028c6103df366004613bfa565b610dc3565b3480156103f057600080fd5b5061028c6103ff366004613bcd565b610dde565b34801561041057600080fd5b5061025f61041f366004613bcd565b610dec565b34801561043057600080fd5b506102a361043f366004613f8d565b610dfe565b34801561045057600080fd5b5061028c610e4c565b34801561046557600080fd5b506008546001600160a01b031661025f565b34801561048357600080fd5b506101d3610492366004613c76565b610e60565b61028c6104a5366004613faa565b610e8b565b3480156104b657600080fd5b50610232610ee0565b3480156104cb57600080fd5b506102a3600081565b3480156104e057600080fd5b5061028c6104ef366004613ff3565b610eef565b61028c610502366004614021565b610f85565b34801561051357600080fd5b5061028c610522366004614033565b610f9d565b34801561053357600080fd5b50610232610542366004613bcd565b610fe7565b34801561055357600080fd5b5061028c610562366004613c76565b611041565b34801561057357600080fd5b50604080518082018252600080825260209182015281518083018352600a80825260039183019182528351908152905191810191909152016101df565b3480156105bc57600080fd5b506101d36105cb36600461409e565b6001600160a01b03918216600090815260076020908152604080832093909416825291909152205460ff1690565b34801561060557600080fd5b50610232611066565b34801561061a57600080fd5b5061028c610629366004613f8d565b61109d565b600061063982611113565b92915050565b600d5460009081906001600160a01b03166106935760405162461bcd60e51b815260206004820152600f60248201526e1393d517d253925512505312569151608a1b60448201526064015b60405180910390fd5b600061069d611138565b6040805181815260608101825291925060009190602082018180368337505050602081018790526040810186905290506106d981836000611163565b50602082015182516106ed906002906140e2565b815181106106fd576106fd6140f9565b602002602001015182602001516001846000015161071b91906140e2565b8151811061072b5761072b6140f9565b6020026020010151809450819550505050509250929050565b6060600280546107539061410f565b80601f016020809104026020016040519081016040528092919081815260200182805461077f9061410f565b80156107cc5780601f106107a1576101008083540402835291602001916107cc565b820191906000526020600020905b8154815290600101906020018083116107af57829003601f168201915b5050505050905090565b60006107e1826113e8565b6107fe576040516333d1c03960e21b815260040160405180910390fd5b506000908152600660205260409020546001600160a01b031690565b600061082582610dec565b9050806001600160a01b0316836001600160a01b0316141561085a5760405163250fdee360e21b815260040160405180910390fd5b336001600160a01b038216146108915761087481336105cb565b610891576040516367d9dca160e11b815260040160405180910390fd5b61089c838383611421565b505050565b600154600054036000190190565b61089c83838361147d565b600f5460009081906001600160a01b03166108e4575050600f546001600160a01b03166000610913565b600f546010546001600160a01b0390911690612710906109049086614144565b61090e9190614179565b915091505b9250929050565b60008281526009602052604090206001015461093581611656565b61089c8383611660565b6001600160a01b03811633146109af5760405162461bcd60e51b815260206004820152602f60248201527f416363657373436f6e74726f6c3a2063616e206f6e6c792072656e6f756e636560448201526e103937b632b9903337b91039b2b63360891b606482015260840161068a565b6109b982826116e6565b5050565b600d546001600160a01b031615610a045760405162461bcd60e51b815260206004820152600b60248201526a125392551250531256915160aa1b604482015260640161068a565b8051600e80546001600160a01b0319166001600160a01b03909216919091179055610a2d613a82565b600080825260408051600180825281830190925290816020015b610a4f613a82565b815260200190600190039081610a475790505090508181600081518110610a7857610a786140f9565b6020026020010181905250600083602001516001600160a01b03166317376ae0308660400151856040518463ffffffff1660e01b8152600401610abd93929190614254565b6000604051808303816000875af1158015610adc573d6000803e3d6000fd5b505050506040513d6000823e601f3d908101601f19168201604052610b0491908101906142fb565b9050610b0f8161174d565b600d80546001600160a01b0319166001600160a01b03929092169190911790556040517f3f37d51ecb0008561833028a431296e58b2663e284d205bafca4237c47c958b290610b5f908690614368565b60405180910390a150505050565b600f546001600160a01b0316331480610b8f5750600f546001600160a01b0316155b610bcc5760405162461bcd60e51b815260206004820152600e60248201526d524543495049454e545f4f4e4c5960901b604482015260640161068a565b6001600160a01b0381163b158015610bec57506001600160a01b03811615155b610c2b5760405162461bcd60e51b815260206004820152601060248201526f24a72b20a624a22fa0a2222922a9a99760811b604482015260640161068a565b600f80546001600160a01b0319166001600160a01b0383161790556040517fff2d07bd188a9eb41acbc4a7db39e18956c95ab7f54f434d97849bf6206e577c90610c76908390613be6565b60405180910390a150565b6000600c5411610cbf5760405162461bcd60e51b815260206004820152600960248201526816915493d7d195539160ba1b604482015260640161068a565b600c54600b54610ccf91906143a3565b600b819055600c546040517ff279e6a1f5e320cca91135676d9cb6e44ca8a08c0b88342bcdb1144f6511b56892610d0a9233929091906143bb565b60405180910390a1600e546001600160a01b0316610d4057600f54600c54610d3b916001600160a01b0316906117b2565b610dbc565b600e54600f54600c5460405163a9059cbb60e01b81526001600160a01b039384169363a9059cbb93610d7793911691600401613c5d565b6020604051808303816000875af1158015610d96573d6000803e3d6000fd5b505050506040513d601f19601f82011682018060405250810190610dba91906143dc565b505b6000600c55565b61089c83838360405180602001604052806000815250610f9d565b610de98160016118cb565b50565b6000610df782611a7e565b5192915050565b60006001600160a01b038216610e27576040516323d3ad8160e21b815260040160405180910390fd5b506001600160a01b03166000908152600560205260409020546001600160401b031690565b610e54611ba0565b610e5e6000611bfa565b565b60009182526009602090815260408084206001600160a01b0393909316845291905290205460ff1690565b7f637062c33901e7d06867eef333d6cabd2aa851e91f8ce674ab4dba45bdc99c70610eb581611656565b610ed985604051806060016040528087815260200186815260200185815250611c4c565b5050505050565b6060600380546107539061410f565b6001600160a01b038216331415610f195760405163b06307db60e01b815260040160405180910390fd5b3360008181526007602090815260408083206001600160a01b03871680855290835292819020805460ff191686151590811790915590519081529192917f17307eab39ab6107e8899845ad3d59bd9653f200f220920489ca2b5937696c31910160405180910390a35050565b610de933610f98368490038401846143f9565b611c4c565b610fa884848461147d565b6001600160a01b0383163b15610fe157610fc484848484611f0f565b610fe1576040516368d2bf6b60e11b815260040160405180910390fd5b50505050565b6060610ff2826113e8565b61100f57604051630a14c4b560e41b815260040160405180910390fd5b601161101a83611ff8565b60405160200161102b929190614470565b6040516020818303038152906040529050919050565b60008281526009602052604090206001015461105c81611656565b61089c83836116e6565b60606110706120f5565b6110786122a6565b604051602001611089929190614532565b604051602081830303815290604052905090565b6110a5611ba0565b6001600160a01b03811661110a5760405162461bcd60e51b815260206004820152602660248201527f4f776e61626c653a206e6577206f776e657220697320746865207a65726f206160448201526564647265737360d01b606482015260840161068a565b610de981611bfa565b60006001600160e01b03198216637965db0b60e01b1480610639575061063982612303565b611140613abf565b600d5461115e90611159906001600160a01b0316612353565b612363565b905090565b60208281015183516040850151848402018301518051606087015160a088015160009687968796879695948301938284019391820290920101906002015b848910156113ce576003890198508886015180601f1a975061ffff8160081c16985050600688101561136f57876111e657866020028401518252602082019150611382565b600188141561120357602087028301518252602082019150611382565b6002881415611267578c5187602002106112505760405162461bcd60e51b815260206004820152600e60248201526d0869e9ca88ab0a8be988a9c8ea8960931b604482015260640161068a565b866020026020018d01518252602082019150611382565b60038814156112b057600061129e60408051808201825260008082526020918201528151808301909252600a825260039082015290565b51880154835250602090910190611382565b60048814156112cc576112c58d8d848a612479565b9150611382565b6060876112fa578c6040516020016112e49190614561565b6040516020818303038152906040529050611359565b60018814156113135761130c8d6125bd565b9050611359565b600288141561132f576020808e01516040516112e492016145da565b6003881415611359578c516040805160208101929092520160405160208183030381529060405290505b80511561136957611369816126be565b50611382565b8761137e888463ffffffff8416565b9250505b60208c0151518c5111156113c95760405162461bcd60e51b815260206004820152600e60248201526d535441434b5f4f564552464c4f5760901b604482015260640161068a565b6111a1565b6020838303048c52509750505050505050505b9392505050565b6000816001111580156113fc575060005482105b8015610639575050600090815260046020526040902054600160e01b900460ff161590565b60008281526006602052604080822080546001600160a01b0319166001600160a01b0387811691821790925591518593918516917f8c5be1e5ebec7d5bd14f71427d1e84f3dd0314c0f7b2291e5b200ac8c7c3b92591a4505050565b600061148882611a7e565b9050836001600160a01b031681600001516001600160a01b0316146114bf5760405162a1148160e81b815260040160405180910390fd5b6000336001600160a01b03861614806114dd57506114dd85336105cb565b806114f85750336114ed846107d6565b6001600160a01b0316145b90508061151857604051632ce44b5f60e11b815260040160405180910390fd5b6001600160a01b03841661153f57604051633a954ecd60e21b815260040160405180910390fd5b61154b60008487611421565b6001600160a01b038581166000908152600560209081526040808320805467ffffffffffffffff198082166001600160401b0392831660001901831617909255898616808652838620805493841693831660019081018416949094179055898652600490945282852080546001600160e01b031916909417600160a01b4290921691909102178355870180845292208054919390911661161f57600054821461161f57805460208601516001600160401b0316600160a01b026001600160e01b03199091166001600160a01b038a16171781555b50505082846001600160a01b0316866001600160a01b0316600080516020614a7c83398151915260405160405180910390a4610ed9565b610de98133612701565b61166a8282610e60565b6109b95760008281526009602090815260408083206001600160a01b03851684529091529020805460ff191660011790556116a23390565b6001600160a01b0316816001600160a01b0316837f2f8788117e7eff1d82e926ec794901d17c78024a50270940304540a733656f0d60405160405180910390a45050565b6116f08282610e60565b156109b95760008281526009602090815260408083206001600160a01b0385168085529252808320805460ff1916905551339285917ff6391f5c32d9c69d2a47ea670b442974b53935d1edc7fd64eb21e047a839171b9190a45050565b600080611778836040516020016117649190614610565b604051602081830303815290604052612765565b90508051602082016000f091506001600160a01b0382166117ac5760405163046a55db60e11b815260040160405180910390fd5b50919050565b804710156118025760405162461bcd60e51b815260206004820152601d60248201527f416464726573733a20696e73756666696369656e742062616c616e6365000000604482015260640161068a565b6000826001600160a01b03168260405160006040518083038185875af1925050503d806000811461184f576040519150601f19603f3d011682016040523d82523d6000602084013e611854565b606091505b505090508061089c5760405162461bcd60e51b815260206004820152603a60248201527f416464726573733a20756e61626c6520746f2073656e642076616c75652c207260448201527f6563697069656e74206d61792068617665207265766572746564000000000000606482015260840161068a565b60006118d683611a7e565b8051909150821561193c576000336001600160a01b03831614806118ff57506118ff82336105cb565b8061191a57503361190f866107d6565b6001600160a01b0316145b90508061193a57604051632ce44b5f60e11b815260040160405180910390fd5b505b61194860008583611421565b6001600160a01b0380821660008181526005602090815260408083208054600160801b6000196001600160401b0380841691909101811667ffffffffffffffff198416811783900482166001908101831690930277ffffffffffffffff0000000000000000ffffffffffffffff19909416179290921783558b86526004909452828520805460ff60e01b1942909316600160a01b026001600160e01b03199091169097179690961716600160e01b178555918901808452922080549194909116611a46576000548214611a4657805460208701516001600160401b0316600160a01b026001600160e01b03199091166001600160a01b038716171781555b5050604051869250600091506001600160a01b03841690600080516020614a7c833981519152908390a4505060018054810190555050565b60408051606081018252600080825260208201819052918101919091528180600111611b8757600054811015611b8757600081815260046020908152604091829020825160608101845290546001600160a01b0381168252600160a01b81046001600160401b031692820192909252600160e01b90910460ff16151591810182905290611b855780516001600160a01b031615611b1c579392505050565b5060001901600081815260046020908152604091829020825160608101845290546001600160a01b038116808352600160a01b82046001600160401b031693830193909352600160e01b900460ff1615159281019290925215611b80579392505050565b611b1c565b505b604051636f96cda160e11b815260040160405180910390fd5b6008546001600160a01b03163314610e5e5760405162461bcd60e51b815260206004820181905260248201527f4f776e61626c653a2063616c6c6572206973206e6f7420746865206f776e6572604482015260640161068a565b600880546001600160a01b038381166001600160a01b0319831681179093556040519116919082907f8be0079c531659141344cd1fd0a4f28419497f9722a3daafe3b4186f6b6457e090600090a35050565b8060200151600010611c8c5760405162461bcd60e51b8152602060048201526009602482015268305f4d494e494d554d60b81b604482015260640161068a565b806040015181602001511115611cdb5760405162461bcd60e51b81526020600482015260146024820152731352539253555357d3d5915497d11154d254915160621b604482015260640161068a565b6000805460001901600a54611cf091906140e2565b90506000611d0b82846040015161277b90919063ffffffff16565b9050600080611d1a868461063f565b90925090506000611d2b838561277b565b90508560200151811015611d765760405162461bcd60e51b8152602060048201526012602482015271494e53554646494349454e545f53544f434b60701b604482015260640161068a565b8551821115611db75760405162461bcd60e51b815260206004820152600d60248201526c4d4158494d554d5f505249434560981b604482015260640161068a565b6000611dc38284614144565b600e549091506001600160a01b0316611e325780341015611e1a5760405162461bcd60e51b8152602060048201526011602482015270125394d551919250d251539517d1955391607a1b604482015260640161068a565b611e2d33611e2883346140e2565b6117b2565b611eaf565b600e546040516323b872dd60e01b8152336004820152306024820152604481018390526001600160a01b03909116906323b872dd906064016020604051808303816000875af1158015611e89573d6000803e3d6000fd5b505050506040513d601f19601f82011682018060405250810190611ead91906143dc565b505b80600c54611ebd91906143a3565b600c55611eca8883612791565b7f1cbc5ab135991bd2b6a4b034a04aa2aa086dac1371cb9b16b8b5e2ed6b036bed888383604051611efd939291906143bb565b60405180910390a15050505050505050565b604051630a85bd0160e11b81526000906001600160a01b0385169063150b7a0290611f44903390899088908890600401614636565b6020604051808303816000875af1925050508015611f7f575060408051601f3d908101601f19168201909252611f7c91810190614673565b60015b611fda573d808015611fad576040519150601f19603f3d011682016040523d82523d6000602084013e611fb2565b606091505b508051611fd2576040516368d2bf6b60e11b815260040160405180910390fd5b805181602001fd5b6001600160e01b031916630a85bd0160e11b1490505b949350505050565b60608161201c5750506040805180820190915260018152600360fc1b602082015290565b8160005b8115612046578061203081614690565b915061203f9050600a83614179565b9150612020565b6000816001600160401b0381111561206057612060613ca6565b6040519080825280601f01601f19166020018201604052801561208a576020820181803683370190505b5090505b8415611ff05761209f6001836140e2565b91506120ac600a866146ab565b6120b79060306143a3565b60f81b8183815181106120cc576120cc6140f9565b60200101906001600160f81b031916908160001a9053506120ee600a86614179565b945061208e565b604080516105c08082526105e0820190925260609160208201818036833701905050905060006040518061050001604052806128a0815260200161293481526020016129b38152602001612a5181526020016128a08152602001612a988152602001612b318152602001612b7e8152602001612d178152602001612d228152602001612d2d8152602001612d388152602001612d438152602001612d598152602001612d838152602001612dad8152602001612dc38152602001612dd98152602001612e0e8152602001612e2d8152602001612e478152602001612e708152602001612e8b8152602001612e9a8152602001612eb58152602001612f028152602001612f418152602001612f7f8152602001612fb88152602001612fec815260200161301e8152602001613050815260200161308281526020016130b6815260200161310881526020016131418152602001613191815260200161323e815260200161325e8152602001613317815250905060005b60288110156122a1576122996006820183836028811061228c5761228c6140f9565b6020020151859190613357565b60010161226a565b505090565b60408051608080825260a082019092526060916020820181803683370190505090506122d68160006133ad613357565b6122e48160016133c4613357565b6122f28160026133d4613357565b612300816003613410613357565b90565b60006001600160e01b031982166380ac58cd60e01b148061233457506001600160e01b03198216635b5e139f60e01b145b8061063957506301ffc9a760e01b6001600160e01b0319831614610639565b606061063982600160001961344c565b61236b613abf565b612373613abf565b60208301805160ff8082168352606084019290925290600882901c166001600160401b038111156123a6576123a6613ca6565b6040519080825280602002602001820160405280156123cf578160200160208202803683370190505b50602083015260ff601082901c81166080840152601882901c1660606000826001600160401b0381111561240557612405613ca6565b60405190808252806020026020018201604052801561242e578160200160208202803683370190505b5090506020870151602002604001870160005b84811015612468578160208202602001840152815160200182019150600181019050612441565b505060408501525091949350505050565b600060078216600383811c1682808261249a575060001990506101006124db565b82600114156124b557506001600160801b03905060806124db565b82600214156124d057506001600160401b03905060406124db565b5063ffffffff905060205b6001600587901c016000816001600160401b038111156124fd576124fd613ca6565b604051908082528060200260200182016040528015612526578160200160208202803683370190505b50905060208082019083028a03815b8b82101561254d578151815260209182019101612535565b505060608b015160808c015160209081029091010160005b6101008110156125ab5760208502830182845b82811015612594578051841c8a16825260209182019101612578565b5050506125a28e8e8b611163565b9b508501612565565b50999c9b505050505050505050505050565b606060008260600151905060006018846040015151901b60108560800151901b6008866020015151901b866060015151171717905060008160001b8360405160200161260991906145da565b60408051601f198184030181529082905261262792916020016146bf565b604051602081830303815290604052905060005b8560400151518110156126b557818660400151828151811061265f5761265f6140f9565b60200260200101515160001b87604001518381518110612681576126816140f9565b602002602001015160405160200161269b939291906146e5565b60408051601f19818403018152919052915060010161263b565b50949350505050565b610de9816040516024016126d29190613bba565b60408051601f198184030181529190526020810180516001600160e01b03166305f3bfab60e11b1790526134fd565b61270b8282610e60565b6109b957612723816001600160a01b0316601461351e565b61272e83602061351e565b60405160200161273f92919061471c565b60408051601f198184030181529082905262461bcd60e51b825261068a91600401613bba565b606081518260405160200161102b92919061478b565b600081831061278a57816113e1565b5090919050565b6000546001600160a01b0383166127ba57604051622e076360e81b815260040160405180910390fd5b816127d85760405163b562e8dd60e01b815260040160405180910390fd5b6001600160a01b038316600081815260056020908152604080832080546001600160801b031981166001600160401b038083168a018116918217600160401b67ffffffffffffffff1990941690921783900481168a01811690920217909155858452600490925290912080546001600160e01b031916909217600160a01b4290921691909102179055808083015b6040516001830192906001600160a01b03871690600090600080516020614a7c833981519152908290a48082106128665750600055505050565b603f1981018051601f1990920180516040516370a0823160e01b815291936000939290919084906001600160a01b038416906370a08231906128e6908590600401613be6565b602060405180830381865afa158015612903573d6000803e3d6000fd5b505050506040513d601f19601f8201168201806040525081019061292791906147dc565b9093525092949350505050565b6000806000602084039150815190506000816001600160a01b03166318160ddd6040518163ffffffff1660e01b8152600401602060405180830381865afa158015612983573d6000803e3d6000fd5b505050506040513d601f19601f820116820180604052508101906129a791906147dc565b90925250919392505050565b605f1981018051603f1983018051601f199094015160405163277166bf60e11b81529194600094939290919085906001600160a01b03851690634ee2cd7e90612a029086908690600401613c5d565b602060405180830381865afa158015612a1f573d6000803e3d6000fd5b505050506040513d601f19601f82011682018060405250810190612a4391906147dc565b909452509395945050505050565b603f1981018051601f199092018051604051630981b24d60e41b81526004810182905291936000939290919084906001600160a01b0384169063981b24d0906024016128e6565b603f1981018051601f1990920180516040516331a9108f60e11b81526004810182905291936000939290919084906001600160a01b03841690636352211e90602401602060405180830381865afa158015612af7573d6000803e3d6000fd5b505050506040513d601f19601f82011682018060405250810190612b1b91906147f5565b6001600160a01b03169093525092949350505050565b605f1981018051603f1983018051601f1990940151604051627eeac760e11b81529194600094939290919085906001600160a01b0385169062fdd58e90612a029086908690600401613c5d565b6000806000846001600160401b03811115612b9b57612b9b613ca6565b604051908082528060200260200182016040528015612bc4578160200160208202803683370190505b5090506000856001600160401b03811115612be157612be1613ca6565b604051908082528060200260200182016040528015612c0a578160200160208202803683370190505b50604087028603601f1981018051909550919250602080890282019085015b81831015612c41578251815260209283019201612c29565b5050602088028101602084015b81831015612c66578251815260209283019201612c4e565b50506040516313849cfd60e21b8152600091506001600160a01b03831690634e1273f490612c9a9087908790600401614812565b600060405180830381865afa158015612cb7573d6000803e3d6000fd5b505050506040513d6000823e601f3d908101601f19168201604052612cdf9190810190614868565b9050846020820160208a0281015b80821015612d08578151835260209283019290910190612ced565b50909998505050505050505050565b438152602001919050565b338152602001919050565b308152602001919050565b428152602001919050565b601f198101805160009190826129a782876136b9565b603f1981018051601f1990920180519092600092918361292782612d7d858a6136b9565b9061371c565b603f1981018051601f1990920180519092600092918361292782612da7858a6136b9565b9061373b565b601f198101805160009190826129a78287613750565b601f198101805160009190826129a7828761379b565b6000602083028203805b83811015612e035780518015612dfa578252612e03565b50602001612de3565b506020019392505050565b605f1981018051156020028201603f1990810151909152018092915050565b601f1981018051603f199092018051909214909152919050565b6000602083028203805b83811015612e03578051612e685760008252612e03565b602001612e51565b601f1981018051603f19909201805192909211909152919050565b601f1981018051159052919050565b601f1981018051603f19909201805192909210909152919050565b6020828102820380516000928201835b8582108015612ed5575060001983105b15612ef457508051602090910190612eed83826137db565b9250612ec5565b505081526020019392505050565b6020828102820380516000928201835b8582108015612f22575060001983105b15612ef457508051602090910190612f3a83826137f8565b9250612f12565b6020828102820380516000928201835b8582108015612f605750826000105b15612ef457508051602090910190612f788382613827565b9250612f51565b600060208302820380516000602083015b85811015612ef45780518301915082821015612fab57600080fd5b9091508190602001612f90565b600060208302820380516000602083015b85811015612ef4578051915081612fdf57600080fd5b9181900491602001612fc9565b6020828102820380516000928201835b85821015612ef45750805160209091019061301781846149dc565b9250612ffc565b6020828102820380516000928201835b85821015612ef45750805182811115613045578092505b60208201915061302e565b6020828102820380516000928201835b85821015612ef45750805182811015613077578092505b602082019150613060565b600060208302820380516000602083015b85811015612ef45780519150816130a957600080fd5b9181900691602001613093565b60006020830282038051600080602084015b868110156130f95783156130f15780519250828402915082848304146130ed57600080fd5b8193505b6020016130c8565b50505081526020019392505050565b600060208302820380516000602083015b85811015612ef4578051830391508282111561313457600080fd5b9091508190602001613119565b819003603f1981018051601f199092018051848252604051632235a18160e21b8152919360009392909190859085906001600160a01b038516906388d6860490612a0290869086906004016149e8565b819003605f1981018051603f19830151601f19909301805185825260405163caa0eb3b60e01b815291946000949392909190869086906001600160a01b0386169063caa0eb3b906131ea90879087908790600401614a0c565b602060405180830381865afa158015613207573d6000803e3d6000fd5b505050506040513d601f19601f8201168201806040525081019061322b91906147dc565b8652505060209093019695505050505050565b603f1981018051601f19909201805190926000929183612927838361383d565b6000600783901c6003600585901c16601f85168380826001600160401b0381111561328b5761328b613ca6565b6040519080825280602002602001820160405280156132b4578160200160208202803683370190505b509050600060206001850102880392506020840283018360005b828210156132f0578151816020018601526020820191506020810190506132ce565b505051905060006133038383898961389c565b845250506020909101979650505050505050565b603f1981018051601f199092018051909260009291600f80871691600488901c909116908561334885858585613992565b90955250949695505050505050565b82516020830290811061339f5760405162461bcd60e51b815260206004820152601060248201526f464e5f505452535f4f564552464c4f5760801b604482015260640161068a565b506020918202929092010152565b6000806133b86108a1565b83525050602001919050565b6000806133b86000546000190190565b601f198101805160009190826129a7826001600160a01b03166000908152600560205260409020546001600160401b03600160401b9091041690565b601f198101805160009190826129a7826001600160a01b03166000908152600560205260409020546001600160401b03600160801b9091041690565b6060833b8061346b5750506040805160208101909152600081526113e1565b808411156134895750506040805160208101909152600081526113e1565b838310156134bb5760405163162544fd60e11b815260048101829052602481018590526044810184905260640161068a565b83830384820360008282106134d057826134d2565b815b60408051603f8301601f19168101909152818152955090508087602087018a3c505050509392505050565b80516a636f6e736f6c652e6c6f67602083016000808483855afa5050505050565b6060600061352d836002614144565b6135389060026143a3565b6001600160401b0381111561354f5761354f613ca6565b6040519080825280601f01601f191660200182016040528015613579576020820181803683370190505b509050600360fc1b81600081518110613594576135946140f9565b60200101906001600160f81b031916908160001a905350600f60fb1b816001815181106135c3576135c36140f9565b60200101906001600160f81b031916908160001a90535060006135e7846002614144565b6135f29060016143a3565b90505b600181111561366a576f181899199a1a9b1b9c1cb0b131b232b360811b85600f1660108110613626576136266140f9565b1a60f81b82828151811061363c5761363c6140f9565b60200101906001600160f81b031916908160001a90535060049490941c9361366381614a33565b90506135f5565b5083156113e15760405162461bcd60e51b815260206004820181905260248201527f537472696e67733a20686578206c656e67746820696e73756666696369656e74604482015260640161068a565b60008082601214156136ce5783915050610639565b82601211156136fa575060128290036136e881600a6149dc565b6136f29085614144565b915050610639565b50601119820161370b81600a6149dc565b6136f29085614179565b5092915050565b600081613731670de0b6b3a764000085614144565b6113e19190614179565b6000670de0b6b3a76400006137318385614144565b600081810b613760575081610639565b60008260000b13156137885761377782600a614a4a565b6137819084614144565b9050610639565b60ff60008390031661370b81600a6149dc565b60008060128314156137b05783915050610639565b82601211156137ca5750601282900361370b81600a6149dc565b5060111982016136e881600a6149dc565b60008282018381106137ed5780611ff0565b600019949350505050565b60008261380757506000610639565b8282028284828161381a5761381a614163565b0414156137ed5780611ff0565b60008183116138375760006113e1565b50900390565b60008060015b6008811161389457600061385786836139ee565b9050600061386586846139ee565b905060006138738383613827565b9050613883856001860383613a33565b945050600190920191506138439050565b509392505050565b835160009081908190819060015b60088111613984576000925082876138c557506000196138c9565b5060005b60005b83811015613960576138f78c82815181106138e9576138e96140f9565b6020026020010151846139ee565b95508a861161394957886139165761390f868361277b565b9150613940565b60018914156139295761390f8683613a72565b600289148015613937575084155b15613940578591505b60019450613958565b89613958576000199150613960565b6001016138cc565b508361396b57506000195b613979866001840383613a33565b9550506001016138aa565b509298975050505050505050565b60008260088111156139b65760405162461bcd60e51b815260040161068a90614a59565b6000855b858110156139e25763ffffffff6020820290811b199890981685891b179791506001016139ba565b50959695505050505050565b6000816008811115613a125760405162461bcd60e51b815260040161068a90614a59565b82613a205760009150613715565b5050600019016020021c63ffffffff1690565b6000826008811115613a575760405162461bcd60e51b815260040161068a90614a59565b505063ffffffff602090920291821b199290921691901b1790565b60008183101561278a57816113e1565b6040518060e00160405280600081526020016000815260200160008152602001600081526020016000815260200160008152602001600081525090565b6040518060a0016040528060008152602001606081526020016060815260200160608152602001600081525090565b6001600160e01b031981168114610de957600080fd5b600060208284031215613b1657600080fd5b81356113e181613aee565b6001600160a01b0381168114610de957600080fd5b60008060408385031215613b4957600080fd5b8235613b5481613b21565b946020939093013593505050565b60005b83811015613b7d578181015183820152602001613b65565b83811115610fe15750506000910152565b60008151808452613ba6816020860160208601613b62565b601f01601f19169290920160200192915050565b6020815260006113e16020830184613b8e565b600060208284031215613bdf57600080fd5b5035919050565b6001600160a01b0391909116815260200190565b600080600060608486031215613c0f57600080fd5b8335613c1a81613b21565b92506020840135613c2a81613b21565b929592945050506040919091013590565b60008060408385031215613c4e57600080fd5b50508035926020909101359150565b6001600160a01b03929092168252602082015260400190565b60008060408385031215613c8957600080fd5b823591506020830135613c9b81613b21565b809150509250929050565b634e487b7160e01b600052604160045260246000fd5b604051606081016001600160401b0381118282101715613cde57613cde613ca6565b60405290565b604080519081016001600160401b0381118282101715613cde57613cde613ca6565b604051601f8201601f191681016001600160401b0381118282101715613d2e57613d2e613ca6565b604052919050565b60006001600160401b03821115613d4f57613d4f613ca6565b5060051b60200190565b60006001600160401b03821115613d7257613d72613ca6565b50601f01601f191660200190565b600082601f830112613d9157600080fd5b8135613da4613d9f82613d59565b613d06565b818152846020838601011115613db957600080fd5b816020850160208301376000918101602001919091529392505050565b600082601f830112613de757600080fd5b81356020613df7613d9f83613d36565b82815260059290921b84018101918181019086841115613e1657600080fd5b8286015b84811015613e315780358352918301918301613e1a565b509695505050505050565b60006020808385031215613e4f57600080fd5b82356001600160401b0380821115613e6657600080fd5b9084019060608287031215613e7a57600080fd5b613e82613cbc565b8235613e8d81613b21565b815282840135613e9c81613b21565b81850152604083013582811115613eb257600080fd5b929092019160408388031215613ec757600080fd5b613ecf613ce4565b833583811115613ede57600080fd5b8401601f81018913613eef57600080fd5b8035613efd613d9f82613d36565b81815260059190911b8201870190878101908b831115613f1c57600080fd5b8884015b83811015613f5457803588811115613f385760008081fd5b613f468e8c83890101613d80565b845250918901918901613f20565b5084525050508385013583811115613f6b57600080fd5b613f7789828701613dd6565b9582019590955260408201529695505050505050565b600060208284031215613f9f57600080fd5b81356113e181613b21565b60008060008060808587031215613fc057600080fd5b8435613fcb81613b21565b966020860135965060408601359560600135945092505050565b8015158114610de957600080fd5b6000806040838503121561400657600080fd5b823561401181613b21565b91506020830135613c9b81613fe5565b6000606082840312156117ac57600080fd5b6000806000806080858703121561404957600080fd5b843561405481613b21565b9350602085013561406481613b21565b92506040850135915060608501356001600160401b0381111561408657600080fd5b61409287828801613d80565b91505092959194509250565b600080604083850312156140b157600080fd5b82356140bc81613b21565b91506020830135613c9b81613b21565b634e487b7160e01b600052601160045260246000fd5b6000828210156140f4576140f46140cc565b500390565b634e487b7160e01b600052603260045260246000fd5b600181811c9082168061412357607f821691505b602082108114156117ac57634e487b7160e01b600052602260045260246000fd5b600081600019048311821515161561415e5761415e6140cc565b500290565b634e487b7160e01b600052601260045260246000fd5b60008261418857614188614163565b500490565b600081518084526020808501808196508360051b8101915082860160005b858110156141d55782840389526141c3848351613b8e565b988501989350908401906001016141ab565b5091979650505050505050565b600081518084526020808501945080840160005b83811015614212578151875295820195908201906001016141f6565b509495945050505050565b6000815160408452614232604085018261418d565b90506020830151848203602086015261424b82826141e2565b95945050505050565b6001600160a01b0384168152606060208083018290526000919061427a8483018761421d565b84810360408681019190915286518083528388019284019060005b818110156142eb578451805184528681015187850152848101518585015287810151888501526080808201519085015260a0808201519085015260c090810151908401529385019360e090920191600101614295565b50909a9950505050505050505050565b60006020828403121561430d57600080fd5b81516001600160401b0381111561432357600080fd5b8201601f8101841361433457600080fd5b8051614342613d9f82613d59565b81815285602083850101111561435757600080fd5b61424b826020830160208601613b62565b60208152600060018060a01b03808451166020840152806020850151166040840152506040830151606080840152611ff0608084018261421d565b600082198211156143b6576143b66140cc565b500190565b6001600160a01b039390931683526020830191909152604082015260600190565b6000602082840312156143ee57600080fd5b81516113e181613fe5565b60006060828403121561440b57600080fd5b604051606081018181106001600160401b038211171561442d5761442d613ca6565b80604052508235815260208301356020820152604083013560408201528091505092915050565b60008151614466818560208601613b62565b9290920192915050565b600080845481600182811c91508083168061448c57607f831692505b60208084108214156144ac57634e487b7160e01b86526022600452602486fd5b8180156144c057600181146144d1576144fe565b60ff198616895284890196506144fe565b60008b81526020902060005b868110156144f65781548b8201529085019083016144dd565b505084890196505b50505050505061424b61452161451b83602f60f81b815260010190565b86614454565b64173539b7b760d91b815260050190565b60008351614544818460208801613b62565b835190830190614558818360208801613b62565b01949350505050565b60208152815160208201526000602083015160a0604084015261458760c08401826141e2565b90506040840151601f19808584030160608601526145a5838361418d565b92506060860151915080858403016080860152506145c382826141e2565b915050608084015160a08401528091505092915050565b815160009082906020808601845b83811015614604578151855293820193908201906001016145e8565b50929695505050505050565b6000815260008251614629816001850160208701613b62565b9190910160010192915050565b6001600160a01b038581168252841660208201526040810183905260806060820181905260009061466990830184613b8e565b9695505050505050565b60006020828403121561468557600080fd5b81516113e181613aee565b60006000198214156146a4576146a46140cc565b5060010190565b6000826146ba576146ba614163565b500690565b828152600082516146d7816020850160208701613b62565b919091016020019392505050565b600084516146f7818460208901613b62565b8201848152835161470f816020808501908801613b62565b0160200195945050505050565b76020b1b1b2b9b9a1b7b73a3937b61d1030b1b1b7bab73a1604d1b81526000835161474e816017850160208801613b62565b7001034b99036b4b9b9b4b733903937b6329607d1b601791840191820152835161477f816028840160208801613b62565b01602801949350505050565b606360f81b815260e083901b6001600160e01b03191660018201526880600e6000396000f360b81b600582015281516000906147ce81600e850160208701613b62565b91909101600e019392505050565b6000602082840312156147ee57600080fd5b5051919050565b60006020828403121561480757600080fd5b81516113e181613b21565b604080825283519082018190526000906020906060840190828701845b828110156148545781516001600160a01b03168452928401929084019060010161482f565b5050508381038285015261466981866141e2565b6000602080838503121561487b57600080fd5b82516001600160401b0381111561489157600080fd5b8301601f810185136148a257600080fd5b80516148b0613d9f82613d36565b81815260059190911b820183019083810190878311156148cf57600080fd5b928401925b828410156148ed578351825292840192908401906148d4565b979650505050505050565b600181815b80851115614933578160001904821115614919576149196140cc565b8085161561492657918102915b93841c93908002906148fd565b509250929050565b60008261494a57506001610639565b8161495757506000610639565b816001811461496d576002811461497757614993565b6001915050610639565b60ff841115614988576149886140cc565b50506001821b610639565b5060208310610133831016604e8410600b84101617156149b6575081810a610639565b6149c083836148f8565b80600019048211156149d4576149d46140cc565b029392505050565b60006113e1838361493b565b6001600160a01b0383168152604060208201819052600090611ff0908301846141e2565b60018060a01b038416815282602082015260606040820152600061424b60608301846141e2565b600081614a4257614a426140cc565b506000190190565b60006113e160ff84168361493b565b60208082526008908201526726a0ac2faa24a2a960c11b60408201526060019056feddf252ad1be2c89b69c2b068fc378daa952ba7f163c4a11628f55a4df523b3efa2646970667358221220b94b13856c4b6e499a9f2dc2adc75194282a72f1e79b320a6c2c9d1c9998493964736f6c634300080a0033",
  "linkReferences": {},
  "deployedLinkReferences": {}
}