{
  "_format": "hh-sol-artifact-1",
  "contractName": "Vapour721AFactory",
  "sourceName": "contracts/Vapour721AFactory.sol",
  "abi": [
    {
      "inputs": [
        {
          "internalType": "address",
          "name": "vmStateBuilder_",
          "type": "address"
        }
      ],
      "stateMutability": "nonpayable",
      "type": "constructor"
    },
    {
      "anonymous": false,
      "inputs": [
        {
          "indexed": false,
          "internalType": "address",
          "name": "sender",
          "type": "address"
        },
        {
          "indexed": false,
          "internalType": "address",
          "name": "implementation",
          "type": "address"
        }
      ],
      "name": "Implementation",
      "type": "event"
    },
    {
      "anonymous": false,
      "inputs": [
        {
          "indexed": false,
          "internalType": "address",
          "name": "sender",
          "type": "address"
        },
        {
          "indexed": false,
          "internalType": "address",
          "name": "child",
          "type": "address"
        }
      ],
      "name": "NewChild",
      "type": "event"
    },
    {
      "inputs": [
        {
          "internalType": "bytes",
          "name": "data_",
          "type": "bytes"
        }
      ],
      "name": "createChild",
      "outputs": [
        {
          "internalType": "address",
          "name": "",
          "type": "address"
        }
      ],
      "stateMutability": "nonpayable",
      "type": "function"
    },
    {
      "inputs": [
        {
          "components": [
            {
              "internalType": "string",
              "name": "name",
              "type": "string"
            },
            {
              "internalType": "string",
              "name": "symbol",
              "type": "string"
            },
            {
              "internalType": "string",
              "name": "baseURI",
              "type": "string"
            },
            {
              "internalType": "uint256",
              "name": "supplyLimit",
              "type": "uint256"
            },
            {
              "internalType": "address",
              "name": "recipient",
              "type": "address"
            },
            {
              "internalType": "address",
              "name": "owner",
              "type": "address"
            },
            {
              "internalType": "uint256",
              "name": "royaltyBPS",
              "type": "uint256"
            }
          ],
          "internalType": "struct ConstructorConfig",
          "name": "constructorConfig_",
          "type": "tuple"
        },
        {
          "internalType": "address",
          "name": "currency_",
          "type": "address"
        },
        {
          "components": [
            {
              "internalType": "bytes[]",
              "name": "sources",
              "type": "bytes[]"
            },
            {
              "internalType": "uint256[]",
              "name": "constants",
              "type": "uint256[]"
            }
          ],
          "internalType": "struct StateConfig",
          "name": "vmStateConfig_",
          "type": "tuple"
        }
      ],
      "name": "createChildTyped",
      "outputs": [
        {
          "internalType": "contract Vapour721A",
          "name": "child_",
          "type": "address"
        }
      ],
      "stateMutability": "nonpayable",
      "type": "function"
    },
    {
      "inputs": [
        {
          "internalType": "address",
          "name": "maybeChild_",
          "type": "address"
        }
      ],
      "name": "isChild",
      "outputs": [
        {
          "internalType": "bool",
          "name": "",
          "type": "bool"
        }
      ],
      "stateMutability": "view",
      "type": "function"
    }
  ],
  "bytecode": "0x608060405234801561001057600080fd5b506040516158dc3803806158dc83398101604081905261002f91610059565b6001600055600280546001600160a01b0319166001600160a01b0392909216919091179055610089565b60006020828403121561006b57600080fd5b81516001600160a01b038116811461008257600080fd5b9392505050565b615844806100986000396000f3fe60806040523480156200001157600080fd5b5060043610620000465760003560e01c806323f9d514146200004b5780632ea72a49146200007f578063fc91a8971462000096575b600080fd5b620000626200005c3660046200054b565b620000d6565b6040516001600160a01b0390911681526020015b60405180910390f35b6200006262000090366004620006b4565b620001f6565b620000c5620000a73660046200072a565b6001600160a01b031660009081526001602052604090205460ff1690565b604051901515815260200162000076565b6000306001600160a01b0316632ea72a4985604051602001620000fa9190620007c9565b6040516020818303038152906040526040518263ffffffff1660e01b8152600401620001279190620008fd565b6020604051808303816000875af115801562000147573d6000803e3d6000fd5b505050506040513d601f19601f820116820180604052508101906200016d919062000912565b604080516060810182526001600160a01b0386811682526002548116602083015281830186905291516306dc1a4360e31b8152929350908316916336e0d21891620001bb9160040162000932565b600060405180830381600087803b158015620001d657600080fd5b505af1158015620001eb573d6000803e3d6000fd5b505050509392505050565b600060026000541415620002515760405162461bcd60e51b815260206004820152601f60248201527f5265656e7472616e637947756172643a207265656e7472616e742063616c6c0060448201526064015b60405180910390fd5b600260009081556200026484846200032f565b6001600160a01b03811660009081526001602052604090205490915060ff1615620002c45760405162461bcd60e51b815260206004820152600f60248201526e111554131250d0551157d0d2125311608a1b604482015260640162000248565b6001600160a01b038116600081815260016020818152604092839020805460ff19169092179091558151338152908101929092527f7da70c4e5387d7038610b79ca7d304caaef815826e51e67cf247135387a79bce910160405180910390a160016000559392505050565b600080620003408385018562000a27565b905080604051620003519062000383565b6200035d919062000b26565b604051809103906000f0801580156200037a573d6000803e3d6000fd5b50949350505050565b614c468062000bc983390190565b6001600160a01b0381168114620003a757600080fd5b50565b8035620003b78162000391565b919050565b634e487b7160e01b600052604160045260246000fd5b604080519081016001600160401b0381118282101715620003f757620003f7620003bc565b60405290565b60405160e081016001600160401b0381118282101715620003f757620003f7620003bc565b604051601f8201601f191681016001600160401b03811182821017156200044d576200044d620003bc565b604052919050565b60006001600160401b03821115620004715762000471620003bc565b5060051b60200190565b60006001600160401b03831115620004975762000497620003bc565b620004ac601f8401601f191660200162000422565b9050828152838383011115620004c157600080fd5b828260208301376000602084830101529392505050565b600082601f830112620004ea57600080fd5b8135602062000503620004fd8362000455565b62000422565b82815260059290921b840181019181810190868411156200052357600080fd5b8286015b8481101562000540578035835291830191830162000527565b509695505050505050565b6000806000606084860312156200056157600080fd5b83356001600160401b03808211156200057957600080fd5b9085019060e082880312156200058e57600080fd5b90935060209085820135620005a38162000391565b9350604086013581811115620005b857600080fd5b860160408189031215620005cb57600080fd5b620005d5620003d2565b813583811115620005e557600080fd5b8201601f81018a13620005f757600080fd5b803562000608620004fd8262000455565b81815260059190911b8201860190868101908c8311156200062857600080fd5b8784015b838110156200067b57803588811115620006465760008081fd5b8501603f81018f13620006595760008081fd5b6200066c8f8b830135604084016200047b565b8452509188019188016200062c565b50845250505081840135838111156200069357600080fd5b620006a18a828501620004d8565b8583015250809450505050509250925092565b60008060208385031215620006c857600080fd5b82356001600160401b0380821115620006e057600080fd5b818501915085601f830112620006f557600080fd5b8135818111156200070557600080fd5b8660208285010111156200071857600080fd5b60209290920196919550909350505050565b6000602082840312156200073d57600080fd5b81356200074a8162000391565b9392505050565b6000808335601e198436030181126200076957600080fd5b83016020810192503590506001600160401b038111156200078957600080fd5b8036038313156200079957600080fd5b9250929050565b81835281816020850137506000828201602090810191909152601f909101601f19169091010190565b602081526000620007db838462000751565b60e06020850152620007f361010085018284620007a0565b91505062000805602085018562000751565b601f19808685030160408701526200081f848385620007a0565b935062000830604088018862000751565b9350915080868503016060870152506200084c838383620007a0565b925050506060840135608084015260808401356200086a8162000391565b6001600160a01b031660a08481019190915262000889908501620003aa565b6001600160a01b03811660c08501525060c084013560e08401528091505092915050565b6000815180845260005b81811015620008d557602081850181015186830182015201620008b7565b81811115620008e8576000602083870101525b50601f01601f19169290920160200192915050565b6020815260006200074a6020830184620008ad565b6000602082840312156200092557600080fd5b81516200074a8162000391565b6000602080835260018060a01b038085511682850152808286015116604085015250604084015160608085015260c0840181516040608087015281815180845260e08801915060e08160051b8901019350858301925060005b81811015620009bd5760df19898603018352620009aa858551620008ad565b945092860192918601916001016200098b565b5050505090820151848203607f190160a0860152805180835290830191600091908401905b80831015620005405783518252928401926001929092019190840190620009e2565b600082601f83011262000a1657600080fd5b6200074a838335602085016200047b565b60006020828403121562000a3a57600080fd5b81356001600160401b038082111562000a5257600080fd5b9083019060e0828603121562000a6757600080fd5b62000a71620003fd565b82358281111562000a8157600080fd5b62000a8f8782860162000a04565b82525060208301358281111562000aa557600080fd5b62000ab38782860162000a04565b60208301525060408301358281111562000acc57600080fd5b62000ada8782860162000a04565b6040830152506060830135606082015262000af860808401620003aa565b608082015262000b0b60a08401620003aa565b60a082015260c083013560c082015280935050505092915050565b602081526000825160e0602084015262000b45610100840182620008ad565b90506020840151601f198085840301604086015262000b658383620008ad565b925060408601519150808584030160608601525062000b858282620008ad565b91505060608401516080840152608084015160018060a01b0380821660a08601528060a08701511660c0860152505060c084015160e0840152809150509291505056fe60806040523480156200001157600080fd5b5060405162004c4638038062004c4683398101604081905262000034916200055b565b805160208083015182519091620000519160029185019062000393565b5080516200006790600390602084019062000393565b50506001600055506200007a336200014c565b6060810151600955604081015180516200009d9160109160209091019062000393565b5060c0810151600f81905561271011620000ec5760405162461bcd60e51b815260206004820152600b60248201526a4d41585f524f59414c545960a81b60448201526064015b60405180910390fd5b6080810151620000fc906200019e565b60a08101516200010c90620002b6565b7f7440dc78dab6b27c1c3f7a17ecac72f8c460cdc6e949c0e9c60509203d36e5e5816040516200013d919062000688565b60405180910390a15062000767565b600880546001600160a01b038381166001600160a01b0319831681179093556040519116919082907f8be0079c531659141344cd1fd0a4f28419497f9722a3daafe3b4186f6b6457e090600090a35050565b600e546001600160a01b0316331480620001c15750600e546001600160a01b0316155b620002005760405162461bcd60e51b815260206004820152600e60248201526d524543495049454e545f4f4e4c5960901b6044820152606401620000e3565b6001600160a01b0381163b1580156200022157506001600160a01b03811615155b620002625760405162461bcd60e51b815260206004820152601060248201526f24a72b20a624a22fa0a2222922a9a99760811b6044820152606401620000e3565b600e80546001600160a01b0319166001600160a01b0383169081179091556040519081527fff2d07bd188a9eb41acbc4a7db39e18956c95ab7f54f434d97849bf6206e577c9060200160405180910390a150565b620002c062000335565b6001600160a01b038116620003275760405162461bcd60e51b815260206004820152602660248201527f4f776e61626c653a206e6577206f776e657220697320746865207a65726f206160448201526564647265737360d01b6064820152608401620000e3565b62000332816200014c565b50565b6008546001600160a01b03163314620003915760405162461bcd60e51b815260206004820181905260248201527f4f776e61626c653a2063616c6c6572206973206e6f7420746865206f776e65726044820152606401620000e3565b565b828054620003a1906200072a565b90600052602060002090601f016020900481019282620003c5576000855562000410565b82601f10620003e057805160ff191683800117855562000410565b8280016001018555821562000410579182015b8281111562000410578251825591602001919060010190620003f3565b506200041e92915062000422565b5090565b5b808211156200041e576000815560010162000423565b634e487b7160e01b600052604160045260246000fd5b60405160e081016001600160401b038111828210171562000474576200047462000439565b60405290565b60005b83811015620004975781810151838201526020016200047d565b83811115620004a7576000848401525b50505050565b600082601f830112620004bf57600080fd5b81516001600160401b0380821115620004dc57620004dc62000439565b604051601f8301601f19908116603f0116810190828211818310171562000507576200050762000439565b816040528381528660208588010111156200052157600080fd5b620005348460208301602089016200047a565b9695505050505050565b80516001600160a01b03811681146200055657600080fd5b919050565b6000602082840312156200056e57600080fd5b81516001600160401b03808211156200058657600080fd5b9083019060e082860312156200059b57600080fd5b620005a56200044f565b825182811115620005b557600080fd5b620005c387828601620004ad565b825250602083015182811115620005d957600080fd5b620005e787828601620004ad565b6020830152506040830151828111156200060057600080fd5b6200060e87828601620004ad565b604083015250606083015160608201526200062c608084016200053e565b60808201526200063f60a084016200053e565b60a082015260c083015160c082015280935050505092915050565b60008151808452620006748160208601602086016200047a565b601f01601f19169290920160200192915050565b602081526000825160e06020840152620006a76101008401826200065a565b90506020840151601f1980858403016040860152620006c783836200065a565b9250604086015191508085840301606086015250620006e782826200065a565b91505060608401516080840152608084015160018060a01b0380821660a08601528060a08701511660c0860152505060c084015160e08401528091505092915050565b600181811c908216806200073f57607f821691505b602082108114156200076157634e487b7160e01b600052602260045260246000fd5b50919050565b6144cf80620007776000396000f3fe6080604052600436106101985760003560e01c806351573f79116100e2578063b4da5e9a11610085578063b4da5e9a14610487578063b88d4fde1461049a578063c87b56dd146104ba578063d4cca5f1146104da578063e0419ae3146104fa578063e985e9c514610543578063f2cd6c0814610563578063f2fde38b1461057857600080fd5b806351573f79146103b45780636352211e146103ca5780636c0360eb146103ea57806370a08231146103ff578063715018a61461041f5780638da5cb5b1461043457806395d89b4114610452578063a22cb4651461046757600080fd5b80632a55205a1161014a5780632a55205a146102bb57806336e0d218146102e95780633bbed4a0146103095780633ccfd60b1461032957806342842e0e1461033e57806342966c681461035e5780634325dea01461037e578063514f70a31461039e57600080fd5b806301ffc9a71461019d57806305dc5e82146101d257806306fdde0314610207578063081812fc14610229578063095ea7b31461025657806318160ddd1461027857806323b872dd1461029b575b600080fd5b3480156101a957600080fd5b506101bd6101b8366004613664565b610598565b60405190151581526020015b60405180910390f35b3480156101de57600080fd5b506101f26101ed366004613696565b6105ea565b604080519283526020830191909152016101c9565b34801561021357600080fd5b5061021c6106ef565b6040516101c9919061371a565b34801561023557600080fd5b5061024961024436600461372d565b610781565b6040516101c99190613746565b34801561026257600080fd5b50610276610271366004613696565b6107c5565b005b34801561028457600080fd5b5061028d61084c565b6040519081526020016101c9565b3480156102a757600080fd5b506102766102b636600461375a565b61085a565b3480156102c757600080fd5b506102db6102d636600461379b565b610865565b6040516101c99291906137bd565b3480156102f557600080fd5b5061027661030436600461396c565b6108c5565b34801561031557600080fd5b50610276610324366004613abd565b610a75565b34801561033557600080fd5b50610276610b89565b34801561034a57600080fd5b5061027661035936600461375a565b610cd2565b34801561036a57600080fd5b5061027661037936600461372d565b610ced565b34801561038a57600080fd5b50600d54610249906001600160a01b031681565b3480156103aa57600080fd5b5061028d600b5481565b3480156103c057600080fd5b5061028d60095481565b3480156103d657600080fd5b506102496103e536600461372d565b610cfb565b3480156103f657600080fd5b5061021c610d0d565b34801561040b57600080fd5b5061028d61041a366004613abd565b610d9b565b34801561042b57600080fd5b50610276610de9565b34801561044057600080fd5b506008546001600160a01b0316610249565b34801561045e57600080fd5b5061021c610dfd565b34801561047357600080fd5b50610276610482366004613ae8565b610e0c565b610276610495366004613b21565b610ea2565b3480156104a657600080fd5b506102766104b5366004613b33565b611120565b3480156104c657600080fd5b5061021c6104d536600461372d565b61116a565b3480156104e657600080fd5b50600e54610249906001600160a01b031681565b34801561050657600080fd5b50604080518082018252600080825260209182015281518083018352600980825260039183019182528351908152905191810191909152016101c9565b34801561054f57600080fd5b506101bd61055e366004613b9e565b6111c4565b34801561056f57600080fd5b5061021c6111f2565b34801561058457600080fd5b50610276610593366004613abd565b611229565b60006001600160e01b031982166380ac58cd60e01b14806105c957506001600160e01b03198216635b5e139f60e01b145b806105e457506301ffc9a760e01b6001600160e01b03198316145b92915050565b600c5460009081906001600160a01b031661063e5760405162461bcd60e51b815260206004820152600f60248201526e1393d517d253925512505312569151608a1b60448201526064015b60405180910390fd5b600061064861129f565b604080518181526060810182529192506000919060208201818036833750505060208101879052604081018690529050610684818360006112ca565b506020820151825161069890600290613be2565b815181106106a8576106a8613bf9565b60200260200101518260200151600184600001516106c69190613be2565b815181106106d6576106d6613bf9565b6020026020010151809450819550505050509250929050565b6060600280546106fe90613c0f565b80601f016020809104026020016040519081016040528092919081815260200182805461072a90613c0f565b80156107775780601f1061074c57610100808354040283529160200191610777565b820191906000526020600020905b81548152906001019060200180831161075a57829003601f168201915b5050505050905090565b600061078c8261154f565b6107a9576040516333d1c03960e21b815260040160405180910390fd5b506000908152600660205260409020546001600160a01b031690565b60006107d082610cfb565b9050806001600160a01b0316836001600160a01b031614156108055760405163250fdee360e21b815260040160405180910390fd5b336001600160a01b0382161461083c5761081f81336111c4565b61083c576040516367d9dca160e11b815260040160405180910390fd5b610847838383611588565b505050565b600154600054036000190190565b6108478383836115e4565b600e5460009081906001600160a01b031661088f575050600e546001600160a01b031660006108be565b600e54600f546001600160a01b0390911690612710906108af9086613c44565b6108b99190613c79565b915091505b9250929050565b600c546001600160a01b03161561090c5760405162461bcd60e51b815260206004820152600b60248201526a125392551250531256915160aa1b6044820152606401610635565b8051600d80546001600160a01b0319166001600160a01b039092169190911790556109356135e2565b600080825260408051600180825281830190925290816020015b6109576135e2565b81526020019060019003908161094f579050509050818160008151811061098057610980613bf9565b6020026020010181905250600083602001516001600160a01b03166317376ae0308660400151856040518463ffffffff1660e01b81526004016109c593929190613d54565b6000604051808303816000875af11580156109e4573d6000803e3d6000fd5b505050506040513d6000823e601f3d908101601f19168201604052610a0c9190810190613dfb565b9050610a17816117bf565b600c80546001600160a01b0319166001600160a01b03929092169190911790556040517f3f37d51ecb0008561833028a431296e58b2663e284d205bafca4237c47c958b290610a67908690613e68565b60405180910390a150505050565b600e546001600160a01b0316331480610a975750600e546001600160a01b0316155b610ad45760405162461bcd60e51b815260206004820152600e60248201526d524543495049454e545f4f4e4c5960901b6044820152606401610635565b6001600160a01b0381163b158015610af457506001600160a01b03811615155b610b335760405162461bcd60e51b815260206004820152601060248201526f24a72b20a624a22fa0a2222922a9a99760811b6044820152606401610635565b600e80546001600160a01b0319166001600160a01b0383161790556040517fff2d07bd188a9eb41acbc4a7db39e18956c95ab7f54f434d97849bf6206e577c90610b7e908390613746565b60405180910390a150565b6000600b5411610bc75760405162461bcd60e51b815260206004820152600960248201526816915493d7d195539160ba1b6044820152606401610635565b600b54600a54610bd79190613ea3565b600a819055600b546040805133815260208101929092528101919091527ff279e6a1f5e320cca91135676d9cb6e44ca8a08c0b88342bcdb1144f6511b5689060600160405180910390a1600d546001600160a01b0316610c4f57600e54600b54610c4a916001600160a01b031690611824565b610ccb565b600d54600e54600b5460405163a9059cbb60e01b81526001600160a01b039384169363a9059cbb93610c86939116916004016137bd565b6020604051808303816000875af1158015610ca5573d6000803e3d6000fd5b505050506040513d601f19601f82011682018060405250810190610cc99190613ebb565b505b6000600b55565b61084783838360405180602001604052806000815250611120565b610cf881600161193d565b50565b6000610d0682611af0565b5192915050565b60108054610d1a90613c0f565b80601f0160208091040260200160405190810160405280929190818152602001828054610d4690613c0f565b8015610d935780601f10610d6857610100808354040283529160200191610d93565b820191906000526020600020905b815481529060010190602001808311610d7657829003601f168201915b505050505081565b60006001600160a01b038216610dc4576040516323d3ad8160e21b815260040160405180910390fd5b506001600160a01b03166000908152600560205260409020546001600160401b031690565b610df1611c12565b610dfb6000611c6c565b565b6060600380546106fe90613c0f565b6001600160a01b038216331415610e365760405163b06307db60e01b815260040160405180910390fd5b3360008181526007602090815260408083206001600160a01b03871680855290835292819020805460ff191686151590811790915590519081529192917f17307eab39ab6107e8899845ad3d59bd9653f200f220920489ca2b5937696c31910160405180910390a35050565b8060200135600010610ee25760405162461bcd60e51b8152602060048201526009602482015268305f4d494e494d554d60b81b6044820152606401610635565b806040013581602001351115610f315760405162461bcd60e51b81526020600482015260146024820152731352539253555357d3d5915497d11154d254915160621b6044820152606401610635565b6000805460001901600954610f469190613be2565b90506000610f58604084013583611cbe565b9050600080610f6733846105ea565b90925090506000610f788385611cbe565b90508560200135811015610fc35760405162461bcd60e51b8152602060048201526012602482015271494e53554646494349454e545f53544f434b60701b6044820152606401610635565b85358211156110045760405162461bcd60e51b815260206004820152600d60248201526c4d4158494d554d5f505249434560981b6044820152606401610635565b60006110108284613c44565b600d549091506001600160a01b031661107f57803410156110675760405162461bcd60e51b8152602060048201526011602482015270125394d551919250d251539517d1955391607a1b6044820152606401610635565b61107a336110758334613be2565b611824565b6110fc565b600d546040516323b872dd60e01b8152336004820152306024820152604481018390526001600160a01b03909116906323b872dd906064016020604051808303816000875af11580156110d6573d6000803e3d6000fd5b505050506040513d601f19601f820116820180604052508101906110fa9190613ebb565b505b80600b5461110a9190613ea3565b600b556111173383611cd4565b50505050505050565b61112b8484846115e4565b6001600160a01b0383163b156111645761114784848484611de3565b611164576040516368d2bf6b60e11b815260040160405180910390fd5b50505050565b60606111758261154f565b61119257604051630a14c4b560e41b815260040160405180910390fd5b601061119d83611ecc565b6040516020016111ae929190613ef4565b6040516020818303038152906040529050919050565b6001600160a01b03918216600090815260076020908152604080832093909416825291909152205460ff1690565b60606111fc611fc9565b61120461217a565b604051602001611215929190613fb6565b604051602081830303815290604052905090565b611231611c12565b6001600160a01b0381166112965760405162461bcd60e51b815260206004820152602660248201527f4f776e61626c653a206e6577206f776e657220697320746865207a65726f206160448201526564647265737360d01b6064820152608401610635565b610cf881611c6c565b6112a761361f565b600c546112c5906112c0906001600160a01b03166121d7565b6121e7565b905090565b60208281015183516040850151848402018301518051606087015160a088015160009687968796879695948301938284019391820290920101906002015b84891015611535576003890198508886015180601f1a975061ffff8160081c1698505060068810156114d6578761134d578660200284015182526020820191506114e9565b600188141561136a576020870283015182526020820191506114e9565b60028814156113ce578c5187602002106113b75760405162461bcd60e51b815260206004820152600e60248201526d0869e9ca88ab0a8be988a9c8ea8960931b6044820152606401610635565b866020026020018d015182526020820191506114e9565b6003881415611417576000611405604080518082018252600080825260209182015281518083019092526009825260039082015290565b518801548352506020909101906114e9565b60048814156114335761142c8d8d848a6122fd565b91506114e9565b606087611461578c60405160200161144b9190613fe5565b60405160208183030381529060405290506114c0565b600188141561147a576114738d612441565b90506114c0565b6002881415611496576020808e015160405161144b920161405e565b60038814156114c0578c516040805160208101929092520160405160208183030381529060405290505b8051156114d0576114d081612542565b506114e9565b876114e5888463ffffffff8416565b9250505b60208c0151518c5111156115305760405162461bcd60e51b815260206004820152600e60248201526d535441434b5f4f564552464c4f5760901b6044820152606401610635565b611308565b6020838303048c52509750505050505050505b9392505050565b600081600111158015611563575060005482105b80156105e4575050600090815260046020526040902054600160e01b900460ff161590565b60008281526006602052604080822080546001600160a01b0319166001600160a01b0387811691821790925591518593918516917f8c5be1e5ebec7d5bd14f71427d1e84f3dd0314c0f7b2291e5b200ac8c7c3b92591a4505050565b60006115ef82611af0565b9050836001600160a01b031681600001516001600160a01b0316146116265760405162a1148160e81b815260040160405180910390fd5b6000336001600160a01b0386161480611644575061164485336111c4565b8061165f57503361165484610781565b6001600160a01b0316145b90508061167f57604051632ce44b5f60e11b815260040160405180910390fd5b6001600160a01b0384166116a657604051633a954ecd60e21b815260040160405180910390fd5b6116b260008487611588565b6001600160a01b038581166000908152600560209081526040808320805467ffffffffffffffff198082166001600160401b0392831660001901831617909255898616808652838620805493841693831660019081018416949094179055898652600490945282852080546001600160e01b031916909417600160a01b4290921691909102178355870180845292208054919390911661178657600054821461178657805460208601516001600160401b0316600160a01b026001600160e01b03199091166001600160a01b038a16171781555b50505082846001600160a01b0316866001600160a01b031660008051602061447a83398151915260405160405180910390a45050505050565b6000806117ea836040516020016117d69190614094565b604051602081830303815290604052612585565b90508051602082016000f091506001600160a01b03821661181e5760405163046a55db60e11b815260040160405180910390fd5b50919050565b804710156118745760405162461bcd60e51b815260206004820152601d60248201527f416464726573733a20696e73756666696369656e742062616c616e63650000006044820152606401610635565b6000826001600160a01b03168260405160006040518083038185875af1925050503d80600081146118c1576040519150601f19603f3d011682016040523d82523d6000602084013e6118c6565b606091505b50509050806108475760405162461bcd60e51b815260206004820152603a60248201527f416464726573733a20756e61626c6520746f2073656e642076616c75652c207260448201527f6563697069656e74206d617920686176652072657665727465640000000000006064820152608401610635565b600061194883611af0565b805190915082156119ae576000336001600160a01b0383161480611971575061197182336111c4565b8061198c57503361198186610781565b6001600160a01b0316145b9050806119ac57604051632ce44b5f60e11b815260040160405180910390fd5b505b6119ba60008583611588565b6001600160a01b0380821660008181526005602090815260408083208054600160801b6000196001600160401b0380841691909101811667ffffffffffffffff198416811783900482166001908101831690930277ffffffffffffffff0000000000000000ffffffffffffffff19909416179290921783558b86526004909452828520805460ff60e01b1942909316600160a01b026001600160e01b03199091169097179690961716600160e01b178555918901808452922080549194909116611ab8576000548214611ab857805460208701516001600160401b0316600160a01b026001600160e01b03199091166001600160a01b038716171781555b5050604051869250600091506001600160a01b0384169060008051602061447a833981519152908390a4505060018054810190555050565b60408051606081018252600080825260208201819052918101919091528180600111611bf957600054811015611bf957600081815260046020908152604091829020825160608101845290546001600160a01b0381168252600160a01b81046001600160401b031692820192909252600160e01b90910460ff16151591810182905290611bf75780516001600160a01b031615611b8e579392505050565b5060001901600081815260046020908152604091829020825160608101845290546001600160a01b038116808352600160a01b82046001600160401b031693830193909352600160e01b900460ff1615159281019290925215611bf2579392505050565b611b8e565b505b604051636f96cda160e11b815260040160405180910390fd5b6008546001600160a01b03163314610dfb5760405162461bcd60e51b815260206004820181905260248201527f4f776e61626c653a2063616c6c6572206973206e6f7420746865206f776e65726044820152606401610635565b600880546001600160a01b038381166001600160a01b0319831681179093556040519116919082907f8be0079c531659141344cd1fd0a4f28419497f9722a3daafe3b4186f6b6457e090600090a35050565b6000818310611ccd5781611548565b5090919050565b6000546001600160a01b038316611cfd57604051622e076360e81b815260040160405180910390fd5b81611d1b5760405163b562e8dd60e01b815260040160405180910390fd5b6001600160a01b038316600081815260056020908152604080832080546001600160801b031981166001600160401b038083168a018116918217600160401b67ffffffffffffffff1990941690921783900481168a01811690920217909155858452600490925290912080546001600160e01b031916909217600160a01b4290921691909102179055808083015b6040516001830192906001600160a01b0387169060009060008051602061447a833981519152908290a4808210611da95750600055505050565b604051630a85bd0160e11b81526000906001600160a01b0385169063150b7a0290611e189033908990889088906004016140ba565b6020604051808303816000875af1925050508015611e53575060408051601f3d908101601f19168201909252611e50918101906140f7565b60015b611eae573d808015611e81576040519150601f19603f3d011682016040523d82523d6000602084013e611e86565b606091505b508051611ea6576040516368d2bf6b60e11b815260040160405180910390fd5b805181602001fd5b6001600160e01b031916630a85bd0160e11b1490505b949350505050565b606081611ef05750506040805180820190915260018152600360fc1b602082015290565b8160005b8115611f1a5780611f0481614114565b9150611f139050600a83613c79565b9150611ef4565b6000816001600160401b03811115611f3457611f346137d6565b6040519080825280601f01601f191660200182016040528015611f5e576020820181803683370190505b5090505b8415611ec457611f73600183613be2565b9150611f80600a8661412f565b611f8b906030613ea3565b60f81b818381518110611fa057611fa0613bf9565b60200101906001600160f81b031916908160001a905350611fc2600a86613c79565b9450611f62565b604080516105c08082526105e08201909252606091602082018180368337019050509050600060405180610500016040528061259b815260200161262f81526020016126ae815260200161274c815260200161259b8152602001612793815260200161282c81526020016128798152602001612a128152602001612a1d8152602001612a288152602001612a338152602001612a3e8152602001612a548152602001612a7e8152602001612aa88152602001612abe8152602001612ad48152602001612b098152602001612b288152602001612b428152602001612b6b8152602001612b868152602001612b958152602001612bb08152602001612bfd8152602001612c3c8152602001612c7a8152602001612cb38152602001612ce78152602001612d198152602001612d4b8152602001612d7d8152602001612db18152602001612e038152602001612e3c8152602001612e8c8152602001612f398152602001612f598152602001613012815250905060005b60288110156121755761216d6006820183836028811061216057612160613bf9565b6020020151859190613052565b60010161213e565b505090565b60408051608080825260a082019092526060916020820181803683370190505090506121aa8160006130a8613052565b6121b88160016130bf613052565b6121c68160026130cf613052565b6121d481600361310b613052565b90565b60606105e4826001600019613147565b6121ef61361f565b6121f761361f565b60208301805160ff8082168352606084019290925290600882901c166001600160401b0381111561222a5761222a6137d6565b604051908082528060200260200182016040528015612253578160200160208202803683370190505b50602083015260ff601082901c81166080840152601882901c1660606000826001600160401b03811115612289576122896137d6565b6040519080825280602002602001820160405280156122b2578160200160208202803683370190505b5090506020870151602002604001870160005b848110156122ec5781602082026020018401528151602001820191506001810190506122c5565b505060408501525091949350505050565b600060078216600383811c1682808261231e5750600019905061010061235f565b826001141561233957506001600160801b039050608061235f565b826002141561235457506001600160401b039050604061235f565b5063ffffffff905060205b6001600587901c016000816001600160401b03811115612381576123816137d6565b6040519080825280602002602001820160405280156123aa578160200160208202803683370190505b50905060208082019083028a03815b8b8210156123d15781518152602091820191016123b9565b505060608b015160808c015160209081029091010160005b61010081101561242f5760208502830182845b82811015612418578051841c8a168252602091820191016123fc565b5050506124268e8e8b6112ca565b9b5085016123e9565b50999c9b505050505050505050505050565b606060008260600151905060006018846040015151901b60108560800151901b6008866020015151901b866060015151171717905060008160001b8360405160200161248d919061405e565b60408051601f19818403018152908290526124ab9291602001614143565b604051602081830303815290604052905060005b8560400151518110156125395781866040015182815181106124e3576124e3613bf9565b60200260200101515160001b8760400151838151811061250557612505613bf9565b602002602001015160405160200161251f93929190614169565b60408051601f1981840301815291905291506001016124bf565b50949350505050565b610cf881604051602401612556919061371a565b60408051601f198184030181529190526020810180516001600160e01b03166305f3bfab60e11b1790526131f8565b60608151826040516020016111ae9291906141a0565b603f1981018051601f1990920180516040516370a0823160e01b815291936000939290919084906001600160a01b038416906370a08231906125e1908590600401613746565b602060405180830381865afa1580156125fe573d6000803e3d6000fd5b505050506040513d601f19601f8201168201806040525081019061262291906141f1565b9093525092949350505050565b6000806000602084039150815190506000816001600160a01b03166318160ddd6040518163ffffffff1660e01b8152600401602060405180830381865afa15801561267e573d6000803e3d6000fd5b505050506040513d601f19601f820116820180604052508101906126a291906141f1565b90925250919392505050565b605f1981018051603f1983018051601f199094015160405163277166bf60e11b81529194600094939290919085906001600160a01b03851690634ee2cd7e906126fd90869086906004016137bd565b602060405180830381865afa15801561271a573d6000803e3d6000fd5b505050506040513d601f19601f8201168201806040525081019061273e91906141f1565b909452509395945050505050565b603f1981018051601f199092018051604051630981b24d60e41b81526004810182905291936000939290919084906001600160a01b0384169063981b24d0906024016125e1565b603f1981018051601f1990920180516040516331a9108f60e11b81526004810182905291936000939290919084906001600160a01b03841690636352211e90602401602060405180830381865afa1580156127f2573d6000803e3d6000fd5b505050506040513d601f19601f82011682018060405250810190612816919061420a565b6001600160a01b03169093525092949350505050565b605f1981018051603f1983018051601f1990940151604051627eeac760e11b81529194600094939290919085906001600160a01b0385169062fdd58e906126fd90869086906004016137bd565b6000806000846001600160401b03811115612896576128966137d6565b6040519080825280602002602001820160405280156128bf578160200160208202803683370190505b5090506000856001600160401b038111156128dc576128dc6137d6565b604051908082528060200260200182016040528015612905578160200160208202803683370190505b50604087028603601f1981018051909550919250602080890282019085015b8183101561293c578251815260209283019201612924565b5050602088028101602084015b81831015612961578251815260209283019201612949565b50506040516313849cfd60e21b8152600091506001600160a01b03831690634e1273f4906129959087908790600401614227565b600060405180830381865afa1580156129b2573d6000803e3d6000fd5b505050506040513d6000823e601f3d908101601f191682016040526129da919081019061427d565b9050846020820160208a0281015b80821015612a035781518352602092830192909101906129e8565b50909998505050505050505050565b438152602001919050565b338152602001919050565b308152602001919050565b428152602001919050565b601f198101805160009190826126a28287613219565b603f1981018051601f1990920180519092600092918361262282612a78858a613219565b9061327c565b603f1981018051601f1990920180519092600092918361262282612aa2858a613219565b9061329b565b601f198101805160009190826126a282876132b0565b601f198101805160009190826126a282876132fb565b6000602083028203805b83811015612afe5780518015612af5578252612afe565b50602001612ade565b506020019392505050565b605f1981018051156020028201603f1990810151909152018092915050565b601f1981018051603f199092018051909214909152919050565b6000602083028203805b83811015612afe578051612b635760008252612afe565b602001612b4c565b601f1981018051603f19909201805192909211909152919050565b601f1981018051159052919050565b601f1981018051603f19909201805192909210909152919050565b6020828102820380516000928201835b8582108015612bd0575060001983105b15612bef57508051602090910190612be8838261333b565b9250612bc0565b505081526020019392505050565b6020828102820380516000928201835b8582108015612c1d575060001983105b15612bef57508051602090910190612c358382613358565b9250612c0d565b6020828102820380516000928201835b8582108015612c5b5750826000105b15612bef57508051602090910190612c738382613387565b9250612c4c565b600060208302820380516000602083015b85811015612bef5780518301915082821015612ca657600080fd5b9091508190602001612c8b565b600060208302820380516000602083015b85811015612bef578051915081612cda57600080fd5b9181900491602001612cc4565b6020828102820380516000928201835b85821015612bef57508051602090910190612d1281846143f1565b9250612cf7565b6020828102820380516000928201835b85821015612bef5750805182811115612d40578092505b602082019150612d29565b6020828102820380516000928201835b85821015612bef5750805182811015612d72578092505b602082019150612d5b565b600060208302820380516000602083015b85811015612bef578051915081612da457600080fd5b9181900691602001612d8e565b60006020830282038051600080602084015b86811015612df4578315612dec578051925082840291508284830414612de857600080fd5b8193505b602001612dc3565b50505081526020019392505050565b600060208302820380516000602083015b85811015612bef5780518303915082821115612e2f57600080fd5b9091508190602001612e14565b819003603f1981018051601f199092018051848252604051632235a18160e21b8152919360009392909190859085906001600160a01b038516906388d68604906126fd90869086906004016143fd565b819003605f1981018051603f19830151601f19909301805185825260405163caa0eb3b60e01b815291946000949392909190869086906001600160a01b0386169063caa0eb3b90612ee590879087908790600401614421565b602060405180830381865afa158015612f02573d6000803e3d6000fd5b505050506040513d601f19601f82011682018060405250810190612f2691906141f1565b8652505060209093019695505050505050565b603f1981018051601f19909201805190926000929183612622838361339d565b6000600783901c6003600585901c16601f85168380826001600160401b03811115612f8657612f866137d6565b604051908082528060200260200182016040528015612faf578160200160208202803683370190505b509050600060206001850102880392506020840283018360005b82821015612feb57815181602001860152602082019150602081019050612fc9565b50505190506000612ffe838389896133fc565b845250506020909101979650505050505050565b603f1981018051601f199092018051909260009291600f80871691600488901c9091169085613043858585856134f2565b90955250949695505050505050565b82516020830290811061309a5760405162461bcd60e51b815260206004820152601060248201526f464e5f505452535f4f564552464c4f5760801b6044820152606401610635565b506020918202929092010152565b6000806130b361084c565b83525050602001919050565b6000806130b36000546000190190565b601f198101805160009190826126a2826001600160a01b03166000908152600560205260409020546001600160401b03600160401b9091041690565b601f198101805160009190826126a2826001600160a01b03166000908152600560205260409020546001600160401b03600160801b9091041690565b6060833b80613166575050604080516020810190915260008152611548565b80841115613184575050604080516020810190915260008152611548565b838310156131b65760405163162544fd60e11b8152600481018290526024810185905260448101849052606401610635565b83830384820360008282106131cb57826131cd565b815b60408051603f8301601f19168101909152818152955090508087602087018a3c505050509392505050565b80516a636f6e736f6c652e6c6f67602083016000808483855afa5050505050565b600080826012141561322e57839150506105e4565b826012111561325a5750601282900361324881600a6143f1565b6132529085613c44565b9150506105e4565b50601119820161326b81600a6143f1565b6132529085613c79565b5092915050565b600081613291670de0b6b3a764000085613c44565b6115489190613c79565b6000670de0b6b3a76400006132918385613c44565b600081810b6132c05750816105e4565b60008260000b13156132e8576132d782600a614448565b6132e19084613c44565b90506105e4565b60ff60008390031661326b81600a6143f1565b600080601283141561331057839150506105e4565b826012111561332a5750601282900361326b81600a6143f1565b50601119820161324881600a6143f1565b600082820183811061334d5780611ec4565b600019949350505050565b600082613367575060006105e4565b8282028284828161337a5761337a613c63565b04141561334d5780611ec4565b6000818311613397576000611548565b50900390565b60008060015b600881116133f45760006133b7868361354e565b905060006133c5868461354e565b905060006133d38383613387565b90506133e3856001860383613593565b945050600190920191506133a39050565b509392505050565b835160009081908190819060015b600881116134e4576000925082876134255750600019613429565b5060005b60005b838110156134c0576134578c828151811061344957613449613bf9565b60200260200101518461354e565b95508a86116134a957886134765761346f8683611cbe565b91506134a0565b60018914156134895761346f86836135d2565b600289148015613497575084155b156134a0578591505b600194506134b8565b896134b85760001991506134c0565b60010161342c565b50836134cb57506000195b6134d9866001840383613593565b95505060010161340a565b509298975050505050505050565b60008260088111156135165760405162461bcd60e51b815260040161063590614457565b6000855b858110156135425763ffffffff6020820290811b199890981685891b1797915060010161351a565b50959695505050505050565b60008160088111156135725760405162461bcd60e51b815260040161063590614457565b826135805760009150613275565b5050600019016020021c63ffffffff1690565b60008260088111156135b75760405162461bcd60e51b815260040161063590614457565b505063ffffffff602090920291821b199290921691901b1790565b600081831015611ccd5781611548565b6040518060e00160405280600081526020016000815260200160008152602001600081526020016000815260200160008152602001600081525090565b6040518060a0016040528060008152602001606081526020016060815260200160608152602001600081525090565b6001600160e01b031981168114610cf857600080fd5b60006020828403121561367657600080fd5b81356115488161364e565b6001600160a01b0381168114610cf857600080fd5b600080604083850312156136a957600080fd5b82356136b481613681565b946020939093013593505050565b60005b838110156136dd5781810151838201526020016136c5565b838111156111645750506000910152565b600081518084526137068160208601602086016136c2565b601f01601f19169290920160200192915050565b60208152600061154860208301846136ee565b60006020828403121561373f57600080fd5b5035919050565b6001600160a01b0391909116815260200190565b60008060006060848603121561376f57600080fd5b833561377a81613681565b9250602084013561378a81613681565b929592945050506040919091013590565b600080604083850312156137ae57600080fd5b50508035926020909101359150565b6001600160a01b03929092168252602082015260400190565b634e487b7160e01b600052604160045260246000fd5b604051606081016001600160401b038111828210171561380e5761380e6137d6565b60405290565b604080519081016001600160401b038111828210171561380e5761380e6137d6565b604051601f8201601f191681016001600160401b038111828210171561385e5761385e6137d6565b604052919050565b60006001600160401b0382111561387f5761387f6137d6565b5060051b60200190565b60006001600160401b038211156138a2576138a26137d6565b50601f01601f191660200190565b600082601f8301126138c157600080fd5b81356138d46138cf82613889565b613836565b8181528460208386010111156138e957600080fd5b816020850160208301376000918101602001919091529392505050565b600082601f83011261391757600080fd5b813560206139276138cf83613866565b82815260059290921b8401810191818101908684111561394657600080fd5b8286015b84811015613961578035835291830191830161394a565b509695505050505050565b6000602080838503121561397f57600080fd5b82356001600160401b038082111561399657600080fd5b90840190606082870312156139aa57600080fd5b6139b26137ec565b82356139bd81613681565b8152828401356139cc81613681565b818501526040830135828111156139e257600080fd5b9290920191604083880312156139f757600080fd5b6139ff613814565b833583811115613a0e57600080fd5b8401601f81018913613a1f57600080fd5b8035613a2d6138cf82613866565b81815260059190911b8201870190878101908b831115613a4c57600080fd5b8884015b83811015613a8457803588811115613a685760008081fd5b613a768e8c838901016138b0565b845250918901918901613a50565b5084525050508385013583811115613a9b57600080fd5b613aa789828701613906565b9582019590955260408201529695505050505050565b600060208284031215613acf57600080fd5b813561154881613681565b8015158114610cf857600080fd5b60008060408385031215613afb57600080fd5b8235613b0681613681565b91506020830135613b1681613ada565b809150509250929050565b60006060828403121561181e57600080fd5b60008060008060808587031215613b4957600080fd5b8435613b5481613681565b93506020850135613b6481613681565b92506040850135915060608501356001600160401b03811115613b8657600080fd5b613b92878288016138b0565b91505092959194509250565b60008060408385031215613bb157600080fd5b8235613bbc81613681565b91506020830135613b1681613681565b634e487b7160e01b600052601160045260246000fd5b600082821015613bf457613bf4613bcc565b500390565b634e487b7160e01b600052603260045260246000fd5b600181811c90821680613c2357607f821691505b6020821081141561181e57634e487b7160e01b600052602260045260246000fd5b6000816000190483118215151615613c5e57613c5e613bcc565b500290565b634e487b7160e01b600052601260045260246000fd5b600082613c8857613c88613c63565b500490565b600081518084526020808501808196508360051b8101915082860160005b85811015613cd5578284038952613cc38483516136ee565b98850198935090840190600101613cab565b5091979650505050505050565b600081518084526020808501945080840160005b83811015613d1257815187529582019590820190600101613cf6565b509495945050505050565b6000815160408452613d326040850182613c8d565b905060208301518482036020860152613d4b8282613ce2565b95945050505050565b6001600160a01b03841681526060602080830182905260009190613d7a84830187613d1d565b84810360408681019190915286518083528388019284019060005b81811015613deb578451805184528681015187850152848101518585015287810151888501526080808201519085015260a0808201519085015260c090810151908401529385019360e090920191600101613d95565b50909a9950505050505050505050565b600060208284031215613e0d57600080fd5b81516001600160401b03811115613e2357600080fd5b8201601f81018413613e3457600080fd5b8051613e426138cf82613889565b818152856020838501011115613e5757600080fd5b613d4b8260208301602086016136c2565b60208152600060018060a01b03808451166020840152806020850151166040840152506040830151606080840152611ec46080840182613d1d565b60008219821115613eb657613eb6613bcc565b500190565b600060208284031215613ecd57600080fd5b815161154881613ada565b60008151613eea8185602086016136c2565b9290920192915050565b600080845481600182811c915080831680613f1057607f831692505b6020808410821415613f3057634e487b7160e01b86526022600452602486fd5b818015613f445760018114613f5557613f82565b60ff19861689528489019650613f82565b60008b81526020902060005b86811015613f7a5781548b820152908501908301613f61565b505084890196505b505050505050613d4b613fa5613f9f83602f60f81b815260010190565b86613ed8565b64173539b7b760d91b815260050190565b60008351613fc88184602088016136c2565b835190830190613fdc8183602088016136c2565b01949350505050565b60208152815160208201526000602083015160a0604084015261400b60c0840182613ce2565b90506040840151601f19808584030160608601526140298383613c8d565b92506060860151915080858403016080860152506140478282613ce2565b915050608084015160a08401528091505092915050565b815160009082906020808601845b838110156140885781518552938201939082019060010161406c565b50929695505050505050565b60008152600082516140ad8160018501602087016136c2565b9190910160010192915050565b6001600160a01b03858116825284166020820152604081018390526080606082018190526000906140ed908301846136ee565b9695505050505050565b60006020828403121561410957600080fd5b81516115488161364e565b600060001982141561412857614128613bcc565b5060010190565b60008261413e5761413e613c63565b500690565b8281526000825161415b8160208501602087016136c2565b919091016020019392505050565b6000845161417b8184602089016136c2565b820184815283516141938160208085019088016136c2565b0160200195945050505050565b606360f81b815260e083901b6001600160e01b03191660018201526880600e6000396000f360b81b600582015281516000906141e381600e8501602087016136c2565b91909101600e019392505050565b60006020828403121561420357600080fd5b5051919050565b60006020828403121561421c57600080fd5b815161154881613681565b604080825283519082018190526000906020906060840190828701845b828110156142695781516001600160a01b031684529284019290840190600101614244565b505050838103828501526140ed8186613ce2565b6000602080838503121561429057600080fd5b82516001600160401b038111156142a657600080fd5b8301601f810185136142b757600080fd5b80516142c56138cf82613866565b81815260059190911b820183019083810190878311156142e457600080fd5b928401925b82841015614302578351825292840192908401906142e9565b979650505050505050565b600181815b8085111561434857816000190482111561432e5761432e613bcc565b8085161561433b57918102915b93841c9390800290614312565b509250929050565b60008261435f575060016105e4565b8161436c575060006105e4565b8160018114614382576002811461438c576143a8565b60019150506105e4565b60ff84111561439d5761439d613bcc565b50506001821b6105e4565b5060208310610133831016604e8410600b84101617156143cb575081810a6105e4565b6143d5838361430d565b80600019048211156143e9576143e9613bcc565b029392505050565b60006115488383614350565b6001600160a01b0383168152604060208201819052600090611ec490830184613ce2565b60018060a01b0384168152826020820152606060408201526000613d4b6060830184613ce2565b600061154860ff841683614350565b60208082526008908201526726a0ac2faa24a2a960c11b60408201526060019056feddf252ad1be2c89b69c2b068fc378daa952ba7f163c4a11628f55a4df523b3efa2646970667358221220e77e0e6c0218a85920db23eac18afafd06d2b5a18147a9daaa0ec66ffee0e53564736f6c634300080a0033a264697066735822122096cc0bc8b3293ae7145dddf1d21b9d42e0bb8b26827aec251c90baa9696b3e2464736f6c634300080a0033",
  "linkReferences": {},
  "deployedLinkReferences": {}
}