{
  "_format": "hh-sol-artifact-1",
  "contractName": "Vapour721A",
  "sourceName": "contracts/Vapour721A.sol",
  "abi": [
    {
      "inputs": [],
      "stateMutability": "nonpayable",
      "type": "constructor"
    },
    {
      "inputs": [],
      "name": "ApprovalCallerNotOwnerNorApproved",
      "type": "error"
    },
    {
      "inputs": [],
      "name": "ApprovalQueryForNonexistentToken",
      "type": "error"
    },
    {
      "inputs": [],
      "name": "ApproveToCaller",
      "type": "error"
    },
    {
      "inputs": [],
      "name": "BalanceQueryForZeroAddress",
      "type": "error"
    },
    {
      "inputs": [
        {
          "internalType": "uint256",
          "name": "_size",
          "type": "uint256"
        },
        {
          "internalType": "uint256",
          "name": "_start",
          "type": "uint256"
        },
        {
          "internalType": "uint256",
          "name": "_end",
          "type": "uint256"
        }
      ],
      "name": "InvalidCodeAtRange",
      "type": "error"
    },
    {
      "inputs": [],
      "name": "MintERC2309QuantityExceedsLimit",
      "type": "error"
    },
    {
      "inputs": [],
      "name": "MintToZeroAddress",
      "type": "error"
    },
    {
      "inputs": [],
      "name": "MintZeroQuantity",
      "type": "error"
    },
    {
      "inputs": [],
      "name": "OwnerQueryForNonexistentToken",
      "type": "error"
    },
    {
      "inputs": [],
      "name": "OwnershipNotInitializedForExtraData",
      "type": "error"
    },
    {
      "inputs": [],
      "name": "TransferCallerNotOwnerNorApproved",
      "type": "error"
    },
    {
      "inputs": [],
      "name": "TransferFromIncorrectOwner",
      "type": "error"
    },
    {
      "inputs": [],
      "name": "TransferToNonERC721ReceiverImplementer",
      "type": "error"
    },
    {
      "inputs": [],
      "name": "TransferToZeroAddress",
      "type": "error"
    },
    {
      "inputs": [],
      "name": "URIQueryForNonexistentToken",
      "type": "error"
    },
    {
      "inputs": [],
      "name": "WriteError",
      "type": "error"
    },
    {
      "anonymous": false,
      "inputs": [
        {
          "indexed": true,
          "internalType": "address",
          "name": "owner",
          "type": "address"
        },
        {
          "indexed": true,
          "internalType": "address",
          "name": "approved",
          "type": "address"
        },
        {
          "indexed": true,
          "internalType": "uint256",
          "name": "tokenId",
          "type": "uint256"
        }
      ],
      "name": "Approval",
      "type": "event"
    },
    {
      "anonymous": false,
      "inputs": [
        {
          "indexed": true,
          "internalType": "address",
          "name": "owner",
          "type": "address"
        },
        {
          "indexed": true,
          "internalType": "address",
          "name": "operator",
          "type": "address"
        },
        {
          "indexed": false,
          "internalType": "bool",
          "name": "approved",
          "type": "bool"
        }
      ],
      "name": "ApprovalForAll",
      "type": "event"
    },
    {
      "anonymous": false,
      "inputs": [
        {
          "indexed": false,
          "internalType": "address",
          "name": "_receiver",
          "type": "address"
        },
        {
          "indexed": false,
          "internalType": "uint256",
          "name": "_units",
          "type": "uint256"
        },
        {
          "indexed": false,
          "internalType": "uint256",
          "name": "_cost",
          "type": "uint256"
        }
      ],
      "name": "Buy",
      "type": "event"
    },
    {
      "anonymous": false,
      "inputs": [
        {
          "indexed": true,
          "internalType": "uint256",
          "name": "fromTokenId",
          "type": "uint256"
        },
        {
          "indexed": false,
          "internalType": "uint256",
          "name": "toTokenId",
          "type": "uint256"
        },
        {
          "indexed": true,
          "internalType": "address",
          "name": "from",
          "type": "address"
        },
        {
          "indexed": true,
          "internalType": "address",
          "name": "to",
          "type": "address"
        }
      ],
      "name": "ConsecutiveTransfer",
      "type": "event"
    },
    {
      "anonymous": false,
      "inputs": [
        {
          "components": [
            {
              "internalType": "string",
              "name": "name",
              "type": "string"
            },
            {
              "internalType": "string",
              "name": "symbol",
              "type": "string"
            },
            {
              "internalType": "string",
              "name": "baseURI",
              "type": "string"
            },
            {
              "internalType": "uint256",
              "name": "supplyLimit",
              "type": "uint256"
            },
            {
              "internalType": "address",
              "name": "recipient",
              "type": "address"
            },
            {
              "internalType": "address",
              "name": "owner",
              "type": "address"
            },
            {
              "internalType": "address",
              "name": "admin",
              "type": "address"
            },
            {
              "internalType": "uint256",
              "name": "royaltyBPS",
              "type": "uint256"
            },
            {
              "internalType": "address",
              "name": "currency",
              "type": "address"
            },
            {
              "components": [
                {
                  "internalType": "bytes[]",
                  "name": "sources",
                  "type": "bytes[]"
                },
                {
                  "internalType": "uint256[]",
                  "name": "constants",
                  "type": "uint256[]"
                },
                {
                  "internalType": "uint256",
                  "name": "stackLength",
                  "type": "uint256"
                },
                {
                  "internalType": "uint256",
                  "name": "argumentsLength",
                  "type": "uint256"
                }
              ],
              "internalType": "struct StateConfig",
              "name": "vmStateConfig",
              "type": "tuple"
            }
          ],
          "indexed": false,
          "internalType": "struct InitializeConfig",
          "name": "config_",
          "type": "tuple"
        }
      ],
      "name": "Initialize",
      "type": "event"
    },
    {
      "anonymous": false,
      "inputs": [
        {
          "indexed": false,
          "internalType": "uint8",
          "name": "version",
          "type": "uint8"
        }
      ],
      "name": "Initialized",
      "type": "event"
    },
    {
      "anonymous": false,
      "inputs": [
        {
          "indexed": true,
          "internalType": "address",
          "name": "previousOwner",
          "type": "address"
        },
        {
          "indexed": true,
          "internalType": "address",
          "name": "newOwner",
          "type": "address"
        }
      ],
      "name": "OwnershipTransferred",
      "type": "event"
    },
    {
      "anonymous": false,
      "inputs": [
        {
          "indexed": false,
          "internalType": "address",
          "name": "newRecipient",
          "type": "address"
        }
      ],
      "name": "RecipientChanged",
      "type": "event"
    },
    {
      "anonymous": false,
      "inputs": [
        {
          "indexed": true,
          "internalType": "bytes32",
          "name": "role",
          "type": "bytes32"
        },
        {
          "indexed": true,
          "internalType": "bytes32",
          "name": "previousAdminRole",
          "type": "bytes32"
        },
        {
          "indexed": true,
          "internalType": "bytes32",
          "name": "newAdminRole",
          "type": "bytes32"
        }
      ],
      "name": "RoleAdminChanged",
      "type": "event"
    },
    {
      "anonymous": false,
      "inputs": [
        {
          "indexed": true,
          "internalType": "bytes32",
          "name": "role",
          "type": "bytes32"
        },
        {
          "indexed": true,
          "internalType": "address",
          "name": "account",
          "type": "address"
        },
        {
          "indexed": true,
          "internalType": "address",
          "name": "sender",
          "type": "address"
        }
      ],
      "name": "RoleGranted",
      "type": "event"
    },
    {
      "anonymous": false,
      "inputs": [
        {
          "indexed": true,
          "internalType": "bytes32",
          "name": "role",
          "type": "bytes32"
        },
        {
          "indexed": true,
          "internalType": "address",
          "name": "account",
          "type": "address"
        },
        {
          "indexed": true,
          "internalType": "address",
          "name": "sender",
          "type": "address"
        }
      ],
      "name": "RoleRevoked",
      "type": "event"
    },
    {
      "anonymous": false,
      "inputs": [
        {
          "indexed": false,
          "internalType": "address",
          "name": "sender",
          "type": "address"
        },
        {
          "indexed": false,
          "internalType": "address",
          "name": "pointer",
          "type": "address"
        },
        {
          "components": [
            {
              "internalType": "uint256",
              "name": "stackIndex",
              "type": "uint256"
            },
            {
              "internalType": "uint256[]",
              "name": "stack",
              "type": "uint256[]"
            },
            {
              "internalType": "bytes[]",
              "name": "sources",
              "type": "bytes[]"
            },
            {
              "internalType": "uint256[]",
              "name": "constants",
              "type": "uint256[]"
            },
            {
              "internalType": "uint256[]",
              "name": "arguments",
              "type": "uint256[]"
            }
          ],
          "indexed": false,
          "internalType": "struct State",
          "name": "state",
          "type": "tuple"
        }
      ],
      "name": "Snapshot",
      "type": "event"
    },
    {
      "anonymous": false,
      "inputs": [
        {
          "indexed": true,
          "internalType": "address",
          "name": "from",
          "type": "address"
        },
        {
          "indexed": true,
          "internalType": "address",
          "name": "to",
          "type": "address"
        },
        {
          "indexed": true,
          "internalType": "uint256",
          "name": "tokenId",
          "type": "uint256"
        }
      ],
      "name": "Transfer",
      "type": "event"
    },
    {
      "anonymous": false,
      "inputs": [
        {
          "indexed": false,
          "internalType": "address",
          "name": "_withdrawer",
          "type": "address"
        },
        {
          "indexed": false,
          "internalType": "uint256",
          "name": "_amountWithdrawn",
          "type": "uint256"
        },
        {
          "indexed": false,
          "internalType": "uint256",
          "name": "_totalWithdrawn",
          "type": "uint256"
        }
      ],
      "name": "Withdraw",
      "type": "event"
    },
    {
      "inputs": [],
      "name": "DEFAULT_ADMIN_ROLE",
      "outputs": [
        {
          "internalType": "bytes32",
          "name": "",
          "type": "bytes32"
        }
      ],
      "stateMutability": "view",
      "type": "function"
    },
    {
      "inputs": [
        {
          "internalType": "address",
          "name": "to",
          "type": "address"
        },
        {
          "internalType": "uint256",
          "name": "tokenId",
          "type": "uint256"
        }
      ],
      "name": "approve",
      "outputs": [],
      "stateMutability": "nonpayable",
      "type": "function"
    },
    {
      "inputs": [
        {
          "internalType": "address",
          "name": "owner",
          "type": "address"
        }
      ],
      "name": "balanceOf",
      "outputs": [
        {
          "internalType": "uint256",
          "name": "",
          "type": "uint256"
        }
      ],
      "stateMutability": "view",
      "type": "function"
    },
    {
      "inputs": [
        {
          "internalType": "uint256",
          "name": "tokenId",
          "type": "uint256"
        }
      ],
      "name": "burn",
      "outputs": [],
      "stateMutability": "nonpayable",
      "type": "function"
    },
    {
      "inputs": [
        {
          "internalType": "address",
          "name": "account_",
          "type": "address"
        },
        {
          "internalType": "uint256",
          "name": "targetUnits_",
          "type": "uint256"
        }
      ],
      "name": "calculateBuy",
      "outputs": [
        {
          "internalType": "uint256",
          "name": "maxUnits_",
          "type": "uint256"
        },
        {
          "internalType": "uint256",
          "name": "price_",
          "type": "uint256"
        }
      ],
      "stateMutability": "view",
      "type": "function"
    },
    {
      "inputs": [
        {
          "internalType": "uint256",
          "name": "tokenId",
          "type": "uint256"
        }
      ],
      "name": "getApproved",
      "outputs": [
        {
          "internalType": "address",
          "name": "",
          "type": "address"
        }
      ],
      "stateMutability": "view",
      "type": "function"
    },
    {
      "inputs": [
        {
          "internalType": "bytes32",
          "name": "role",
          "type": "bytes32"
        }
      ],
      "name": "getRoleAdmin",
      "outputs": [
        {
          "internalType": "bytes32",
          "name": "",
          "type": "bytes32"
        }
      ],
      "stateMutability": "view",
      "type": "function"
    },
    {
      "inputs": [
        {
          "internalType": "bytes32",
          "name": "role",
          "type": "bytes32"
        },
        {
          "internalType": "address",
          "name": "account",
          "type": "address"
        }
      ],
      "name": "grantRole",
      "outputs": [],
      "stateMutability": "nonpayable",
      "type": "function"
    },
    {
      "inputs": [
        {
          "internalType": "bytes32",
          "name": "role",
          "type": "bytes32"
        },
        {
          "internalType": "address",
          "name": "account",
          "type": "address"
        }
      ],
      "name": "hasRole",
      "outputs": [
        {
          "internalType": "bool",
          "name": "",
          "type": "bool"
        }
      ],
      "stateMutability": "view",
      "type": "function"
    },
    {
      "inputs": [
        {
          "components": [
            {
              "internalType": "string",
              "name": "name",
              "type": "string"
            },
            {
              "internalType": "string",
              "name": "symbol",
              "type": "string"
            },
            {
              "internalType": "string",
              "name": "baseURI",
              "type": "string"
            },
            {
              "internalType": "uint256",
              "name": "supplyLimit",
              "type": "uint256"
            },
            {
              "internalType": "address",
              "name": "recipient",
              "type": "address"
            },
            {
              "internalType": "address",
              "name": "owner",
              "type": "address"
            },
            {
              "internalType": "address",
              "name": "admin",
              "type": "address"
            },
            {
              "internalType": "uint256",
              "name": "royaltyBPS",
              "type": "uint256"
            },
            {
              "internalType": "address",
              "name": "currency",
              "type": "address"
            },
            {
              "components": [
                {
                  "internalType": "bytes[]",
                  "name": "sources",
                  "type": "bytes[]"
                },
                {
                  "internalType": "uint256[]",
                  "name": "constants",
                  "type": "uint256[]"
                },
                {
                  "internalType": "uint256",
                  "name": "stackLength",
                  "type": "uint256"
                },
                {
                  "internalType": "uint256",
                  "name": "argumentsLength",
                  "type": "uint256"
                }
              ],
              "internalType": "struct StateConfig",
              "name": "vmStateConfig",
              "type": "tuple"
            }
          ],
          "internalType": "struct InitializeConfig",
          "name": "config_",
          "type": "tuple"
        }
      ],
      "name": "initialize",
      "outputs": [],
      "stateMutability": "nonpayable",
      "type": "function"
    },
    {
      "inputs": [
        {
          "internalType": "address",
          "name": "owner",
          "type": "address"
        },
        {
          "internalType": "address",
          "name": "operator",
          "type": "address"
        }
      ],
      "name": "isApprovedForAll",
      "outputs": [
        {
          "internalType": "bool",
          "name": "",
          "type": "bool"
        }
      ],
      "stateMutability": "view",
      "type": "function"
    },
    {
      "inputs": [
        {
          "components": [
            {
              "internalType": "uint256",
              "name": "maximumPrice",
              "type": "uint256"
            },
            {
              "internalType": "uint256",
              "name": "minimumUnits",
              "type": "uint256"
            },
            {
              "internalType": "uint256",
              "name": "desiredUnits",
              "type": "uint256"
            }
          ],
          "internalType": "struct BuyConfig",
          "name": "config_",
          "type": "tuple"
        }
      ],
      "name": "mintNFT",
      "outputs": [],
      "stateMutability": "payable",
      "type": "function"
    },
    {
      "inputs": [
        {
          "internalType": "address",
          "name": "receiver",
          "type": "address"
        },
        {
          "internalType": "uint256",
          "name": "maximumPrice",
          "type": "uint256"
        },
        {
          "internalType": "uint256",
          "name": "minimumUnits",
          "type": "uint256"
        },
        {
          "internalType": "uint256",
          "name": "desiredUnits",
          "type": "uint256"
        }
      ],
      "name": "mintNFTFor",
      "outputs": [],
      "stateMutability": "payable",
      "type": "function"
    },
    {
      "inputs": [],
      "name": "name",
      "outputs": [
        {
          "internalType": "string",
          "name": "",
          "type": "string"
        }
      ],
      "stateMutability": "view",
      "type": "function"
    },
    {
      "inputs": [],
      "name": "owner",
      "outputs": [
        {
          "internalType": "address",
          "name": "",
          "type": "address"
        }
      ],
      "stateMutability": "view",
      "type": "function"
    },
    {
      "inputs": [
        {
          "internalType": "uint256",
          "name": "tokenId",
          "type": "uint256"
        }
      ],
      "name": "ownerOf",
      "outputs": [
        {
          "internalType": "address",
          "name": "",
          "type": "address"
        }
      ],
      "stateMutability": "view",
      "type": "function"
    },
    {
      "inputs": [],
      "name": "renounceOwnership",
      "outputs": [],
      "stateMutability": "nonpayable",
      "type": "function"
    },
    {
      "inputs": [
        {
          "internalType": "bytes32",
          "name": "role",
          "type": "bytes32"
        },
        {
          "internalType": "address",
          "name": "account",
          "type": "address"
        }
      ],
      "name": "renounceRole",
      "outputs": [],
      "stateMutability": "nonpayable",
      "type": "function"
    },
    {
      "inputs": [
        {
          "internalType": "bytes32",
          "name": "role",
          "type": "bytes32"
        },
        {
          "internalType": "address",
          "name": "account",
          "type": "address"
        }
      ],
      "name": "revokeRole",
      "outputs": [],
      "stateMutability": "nonpayable",
      "type": "function"
    },
    {
      "inputs": [
        {
          "internalType": "uint256",
          "name": "",
          "type": "uint256"
        },
        {
          "internalType": "uint256",
          "name": "_salePrice",
          "type": "uint256"
        }
      ],
      "name": "royaltyInfo",
      "outputs": [
        {
          "internalType": "address",
          "name": "receiver",
          "type": "address"
        },
        {
          "internalType": "uint256",
          "name": "royaltyAmount",
          "type": "uint256"
        }
      ],
      "stateMutability": "view",
      "type": "function"
    },
    {
      "inputs": [
        {
          "internalType": "address",
          "name": "from",
          "type": "address"
        },
        {
          "internalType": "address",
          "name": "to",
          "type": "address"
        },
        {
          "internalType": "uint256",
          "name": "tokenId",
          "type": "uint256"
        }
      ],
      "name": "safeTransferFrom",
      "outputs": [],
      "stateMutability": "nonpayable",
      "type": "function"
    },
    {
      "inputs": [
        {
          "internalType": "address",
          "name": "from",
          "type": "address"
        },
        {
          "internalType": "address",
          "name": "to",
          "type": "address"
        },
        {
          "internalType": "uint256",
          "name": "tokenId",
          "type": "uint256"
        },
        {
          "internalType": "bytes",
          "name": "_data",
          "type": "bytes"
        }
      ],
      "name": "safeTransferFrom",
      "outputs": [],
      "stateMutability": "nonpayable",
      "type": "function"
    },
    {
      "inputs": [
        {
          "internalType": "address",
          "name": "operator",
          "type": "address"
        },
        {
          "internalType": "bool",
          "name": "approved",
          "type": "bool"
        }
      ],
      "name": "setApprovalForAll",
      "outputs": [],
      "stateMutability": "nonpayable",
      "type": "function"
    },
    {
      "inputs": [
        {
          "internalType": "address",
          "name": "newRecipient",
          "type": "address"
        }
      ],
      "name": "setRecipient",
      "outputs": [],
      "stateMutability": "nonpayable",
      "type": "function"
    },
    {
      "inputs": [
        {
          "internalType": "bytes4",
          "name": "interfaceId",
          "type": "bytes4"
        }
      ],
      "name": "supportsInterface",
      "outputs": [
        {
          "internalType": "bool",
          "name": "",
          "type": "bool"
        }
      ],
      "stateMutability": "view",
      "type": "function"
    },
    {
      "inputs": [],
      "name": "symbol",
      "outputs": [
        {
          "internalType": "string",
          "name": "",
          "type": "string"
        }
      ],
      "stateMutability": "view",
      "type": "function"
    },
    {
      "inputs": [
        {
          "internalType": "uint256",
          "name": "tokenId",
          "type": "uint256"
        }
      ],
      "name": "tokenURI",
      "outputs": [
        {
          "internalType": "string",
          "name": "",
          "type": "string"
        }
      ],
      "stateMutability": "view",
      "type": "function"
    },
    {
      "inputs": [],
      "name": "totalSupply",
      "outputs": [
        {
          "internalType": "uint256",
          "name": "",
          "type": "uint256"
        }
      ],
      "stateMutability": "view",
      "type": "function"
    },
    {
      "inputs": [
        {
          "internalType": "address",
          "name": "from",
          "type": "address"
        },
        {
          "internalType": "address",
          "name": "to",
          "type": "address"
        },
        {
          "internalType": "uint256",
          "name": "tokenId",
          "type": "uint256"
        }
      ],
      "name": "transferFrom",
      "outputs": [],
      "stateMutability": "nonpayable",
      "type": "function"
    },
    {
      "inputs": [
        {
          "internalType": "address",
          "name": "newOwner",
          "type": "address"
        }
      ],
      "name": "transferOwnership",
      "outputs": [],
      "stateMutability": "nonpayable",
      "type": "function"
    },
    {
      "inputs": [],
      "name": "withdraw",
      "outputs": [],
      "stateMutability": "nonpayable",
      "type": "function"
    }
  ],
  "bytecode": "0x60a06040523480156200001157600080fd5b506002808060066007600b6200002982600462000087565b62000035919062000087565b62000041919062000087565b6200004d919062000087565b62000059919062000087565b62000065919062000087565b62000071919062000087565b6200007e90600562000087565b608052620000ae565b60008219821115620000a957634e487b7160e01b600052601160045260246000fd5b500190565b6080516156cd620000d1600039600081816124ce015261252401526156cd6000f3fe6080604052600436106101985760003560e01c80636352211e116100e2578063a217fddf11610085578063a217fddf146104a9578063a22cb465146104be578063b4da5e9a146104de578063b88d4fde146104f1578063c87b56dd14610511578063d547741f14610531578063e985e9c514610551578063f2fde38b1461057157600080fd5b80636352211e146103ce57806370a08231146103ee578063715018a61461040e57806377e455d4146104235780638da5cb5b1461044357806391d148541461046157806393669a151461048157806395d89b411461049457600080fd5b8063248a9ca31161014a578063248a9ca3146102bb5780632a55205a146102eb5780632f2ff15d1461031957806336568abe146103395780633bbed4a0146103595780633ccfd60b1461037957806342842e0e1461038e57806342966c68146103ae57600080fd5b806301ffc9a71461019d57806305dc5e82146101d257806306fdde0314610207578063081812fc14610229578063095ea7b31461025657806318160ddd1461027857806323b872dd1461029b575b600080fd5b3480156101a957600080fd5b506101bd6101b8366004614461565b610591565b60405190151581526020015b60405180910390f35b3480156101de57600080fd5b506101f26101ed3660046144a3565b6105a2565b604080519283526020830191909152016101c9565b34801561021357600080fd5b5061021c610656565b6040516101c99190614527565b34801561023557600080fd5b5061024961024436600461453a565b6106f1565b6040516101c99190614553565b34801561026257600080fd5b506102766102713660046144a3565b61073e565b005b34801561028457600080fd5b5061028d6107ec565b6040519081526020016101c9565b3480156102a757600080fd5b506102766102b6366004614567565b61080c565b3480156102c757600080fd5b5061028d6102d636600461453a565b60009081526097602052604090206001015490565b3480156102f757600080fd5b5061030b6103063660046145a8565b6109ec565b6040516101c99291906145ca565b34801561032557600080fd5b506102766103343660046145e3565b610a4c565b34801561034557600080fd5b506102766103543660046145e3565b610a76565b34801561036557600080fd5b50610276610374366004614613565b610af9565b34801561038557600080fd5b50610276610c0d565b34801561039a57600080fd5b506102766103a9366004614567565b610d41565b3480156103ba57600080fd5b506102766103c936600461453a565b610d5c565b3480156103da57600080fd5b506102496103e936600461453a565b610d6a565b3480156103fa57600080fd5b5061028d610409366004614613565b610d75565b34801561041a57600080fd5b50610276610ddd565b34801561042f57600080fd5b5061027661043e3660046148dc565b610df1565b34801561044f57600080fd5b506033546001600160a01b0316610249565b34801561046d57600080fd5b506101bd61047c3660046145e3565b6111fe565b61027661048f366004614a12565b611229565b3480156104a057600080fd5b5061021c61127e565b3480156104b557600080fd5b5061028d600081565b3480156104ca57600080fd5b506102766104d9366004614a5b565b611296565b6102766104ec366004614a89565b61133d565b3480156104fd57600080fd5b5061027661050c366004614a9b565b611355565b34801561051d57600080fd5b5061021c61052c36600461453a565b61139f565b34801561053d57600080fd5b5061027661054c3660046145e3565b6113f9565b34801561055d57600080fd5b506101bd61056c366004614b06565b61141e565b34801561057d57600080fd5b5061027661058c366004614613565b61145b565b600061059c826114d1565b92915050565b60cc54600090819081906105be906001600160a01b0316611506565b90506105ed85856040516020016105d69291906145ca565b60405160208183030381529060405282600061152a565b6020810151815161060090600290614b4a565b8151811061061057610610614b61565b602002602001015181602001516001836000015161062e9190614b4a565b8151811061063e5761063e614b61565b60200260200101518093508194505050509250929050565b60606106606116ef565b600201805461066e90614b77565b80601f016020809104026020016040519081016040528092919081815260200182805461069a90614b77565b80156106e75780601f106106bc576101008083540402835291602001916106e7565b820191906000526020600020905b8154815290600101906020018083116106ca57829003601f168201915b5050505050905090565b60006106fc82611713565b610719576040516333d1c03960e21b815260040160405180910390fd5b6107216116ef565b60009283526006016020525060409020546001600160a01b031690565b600061074982610d6a565b9050336001600160a01b0382161461078257610765813361141e565b610782576040516367d9dca160e11b815260040160405180910390fd5b8261078b6116ef565b6000848152600691909101602052604080822080546001600160a01b0319166001600160a01b0394851617905551849286811692908516917f8c5be1e5ebec7d5bd14f71427d1e84f3dd0314c0f7b2291e5b200ac8c7c3b9259190a4505050565b600060016107f86116ef565b600101546108046116ef565b540303919050565b60006108178261175c565b9050836001600160a01b0316816001600160a01b03161461084a5760405162a1148160e81b815260040160405180910390fd5b600080610856846117f2565b9150915061087b81876108663390565b6001600160a01b039081169116811491141790565b6108a657610889863361141e565b6108a657604051632ce44b5f60e11b815260040160405180910390fd5b6001600160a01b0385166108cd57604051633a954ecd60e21b815260040160405180910390fd5b80156108d857600082555b6108e06116ef565b6001600160a01b038716600090815260059190910160205260409020805460001901905561090c6116ef565b6001600160a01b0386166000908152600591909101602052604090208054600101905561093d85600160e11b61181a565b6109456116ef565b60008681526004919091016020526040902055600160e11b83166109b4576001840161096f6116ef565b600082815260049190910160205260409020546109b25761098e6116ef565b5481146109b2578361099e6116ef565b600083815260049190910160205260409020555b505b83856001600160a01b0316876001600160a01b031660008051602061567883398151915260405160405180910390a45b505050505050565b60ce5460009081906001600160a01b0316610a1657505060ce546001600160a01b03166000610a45565b60ce5460cf546001600160a01b039091169061271090610a369086614bac565b610a409190614be1565b915091505b9250929050565b600082815260976020526040902060010154610a678161182f565b610a718383611839565b505050565b6001600160a01b0381163314610aeb5760405162461bcd60e51b815260206004820152602f60248201527f416363657373436f6e74726f6c3a2063616e206f6e6c792072656e6f756e636560448201526e103937b632b9903337b91039b2b63360891b60648201526084015b60405180910390fd5b610af582826118bf565b5050565b60ce546001600160a01b0316331480610b1b575060ce546001600160a01b0316155b610b585760405162461bcd60e51b815260206004820152600e60248201526d524543495049454e545f4f4e4c5960901b6044820152606401610ae2565b6001600160a01b0381163b158015610b7857506001600160a01b03811615155b610bb75760405162461bcd60e51b815260206004820152601060248201526f24a72b20a624a22fa0a2222922a9a99760811b6044820152606401610ae2565b60ce80546001600160a01b0319166001600160a01b0383161790556040517fff2d07bd188a9eb41acbc4a7db39e18956c95ab7f54f434d97849bf6206e577c90610c02908390614553565b60405180910390a150565b600060cb5411610c4b5760405162461bcd60e51b815260206004820152600960248201526816915493d7d195539160ba1b6044820152606401610ae2565b60cb5460ca80548201908190556040517ff279e6a1f5e320cca91135676d9cb6e44ca8a08c0b88342bcdb1144f6511b56892610c88923392614bf5565b60405180910390a160cd546001600160a01b0316610cbe5760ce5460cb54610cb9916001600160a01b031690611926565b610d3a565b60cd5460ce5460cb5460405163a9059cbb60e01b81526001600160a01b039384169363a9059cbb93610cf5939116916004016145ca565b6020604051808303816000875af1158015610d14573d6000803e3d6000fd5b505050506040513d601f19601f82011682018060405250810190610d389190614c16565b505b600060cb55565b610a7183838360405180602001604052806000815250611355565b610d67816001611a3f565b50565b600061059c8261175c565b60006001600160a01b038216610d9e576040516323d3ad8160e21b815260040160405180910390fd5b6001600160401b03610dae6116ef565b6005016000846001600160a01b03166001600160a01b0316815260200190815260200160002054169050919050565b610de5611b9f565b610def6000611bf9565b565b610df9611c4b565b54610100900460ff16610e1857610e0e611c4b565b5460ff1615610e1c565b303b155b610e885760405162461bcd60e51b815260206004820152603760248201527f455243373231415f5f496e697469616c697a61626c653a20636f6e7472616374604482015276081a5cc8185b1c9958591e481a5b9a5d1a585b1a5e9959604a1b6064820152608401610ae2565b6000610e92611c4b565b54610100900460ff161590508015610ede576001610eae611c4b565b80549115156101000261ff00199092169190911790556001610ece611c4b565b805460ff19169115159190911790555b600054610100900460ff1615808015610efe5750600054600160ff909116105b80610f185750303b158015610f18575060005460ff166001145b610f7b5760405162461bcd60e51b815260206004820152602e60248201527f496e697469616c697a61626c653a20636f6e747261637420697320616c72656160448201526d191e481a5b9a5d1a585b1a5e995960921b6064820152608401610ae2565b6000805460ff191660011790558015610f9e576000805461ff0019166101001790555b610fb083600001518460200151611c6f565b610fb8611ca6565b606083015160c95560408301518051610fd99160d091602090910190614383565b5060e083015160cf819055612710116110225760405162461bcd60e51b815260206004820152600b60248201526a4d41585f524f59414c545960a81b6044820152606401610ae2565b61102f8360800151610af9565b61103c8360a0015161145b565b60c08301516001600160a01b03166110805760405162461bcd60e51b8152602060048201526007602482015266182fa0a226a4a760c91b6044820152606401610ae2565b6110ca7f637062c33901e7d06867eef333d6cabd2aa851e91f8ce674ab4dba45bdc99c707f5ed6f179f99b86220df7cbd206c7334b24cb795a85808301007ee7b2ff91a820611cd5565b6110f87f5ed6f179f99b86220df7cbd206c7334b24cb795a85808301007ee7b2ff91a8208460c00151611839565b61010083015160cd80546001600160a01b0319166001600160a01b039092169190911790556101208301516111359061113090611d20565b611e22565b60cc80546001600160a01b0319166001600160a01b03929092169190911790556040517f3c10ccec861768d8e5f1f7e5e57ae7f992a3f886d6ea45e344b8c232caa4b54090611185908590614d12565b60405180910390a180156111d3576000805461ff0019169055604051600181527f7f26b83ff96e1f2b6a682f133852f6798a09c465da95921460cefb38474024989060200160405180910390a15b508015610af55760006111e4611c4b565b80549115156101000261ff00199092169190911790555050565b60009182526097602090815260408084206001600160a01b0393909316845291905290205460ff1690565b7f637062c33901e7d06867eef333d6cabd2aa851e91f8ce674ab4dba45bdc99c706112538161182f565b61127785604051806060016040528087815260200186815260200185815250611e90565b5050505050565b60606112886116ef565b600301805461066e90614b77565b6001600160a01b0382163314156112c05760405163b06307db60e01b815260040160405180910390fd5b806112c96116ef565b336000818152600792909201602090815260408084206001600160a01b03881680865290835293819020805460ff19169515159590951790945592518415158152919290917f17307eab39ab6107e8899845ad3d59bd9653f200f220920489ca2b5937696c31910160405180910390a35050565b610d673361135036849003840184614e0e565b611e90565b61136084848461080c565b6001600160a01b0383163b156113995761137c8484848461214c565b611399576040516368d2bf6b60e11b815260040160405180910390fd5b50505050565b60606113aa82611713565b6113c757604051630a14c4b560e41b815260040160405180910390fd5b60d06113d283612235565b6040516020016113e3929190614e85565b6040516020818303038152906040529050919050565b6000828152609760205260409020600101546114148161182f565b610a7183836118bf565b60006114286116ef565b6001600160a01b039384166000908152600791909101602090815260408083209490951682529290925250205460ff1690565b611463611b9f565b6001600160a01b0381166114c85760405162461bcd60e51b815260206004820152602660248201527f4f776e61626c653a206e6577206f776e657220697320746865207a65726f206160448201526564647265737360d01b6064820152608401610ae2565b610d6781611bf9565b60006001600160e01b03198216637965db0b60e01b148061059c57506301ffc9a760e01b6001600160e01b031983161461059c565b61150e614407565b61151782612332565b80602001905181019061059c9190615066565b602082015151825111156115505760405162461bcd60e51b8152600401610ae290615148565b602082810151604084015183830201909101516060840151608085015182516000948594859492939092915b848810156116e2576002880197508784015180601e1a975080601f1a96505060058710156116ab5760018714156115ee5781608087166115b95750825b607f8716815181106115ca57600080fd5b8b516020820260200183015160208202602001850152600181018d525050506116b7565b600287141561162557895180871061160557600080fd5b6020870260200182015160208202602001830152600181018b52506116b7565b600387141561163e576116398b8b88612342565b6116b7565b600487141561166f576116398a60405160200161165b91906151dc565b604051602081830303815290604052612489565b866116395760405162461bcd60e51b815260206004820152600c60248201526b14d2d25417d4915353d5915160a21b6044820152606401610ae2565b6116b78b8b89896124cc565b60208a0151518a5111156116dd5760405162461bcd60e51b8152600401610ae290615148565b61157c565b5050505050505050505050565b7f2569078dfb4b0305704d3008e7403993ae9601b85f7ae5e742de3de8f8011c4090565b60008160011115801561172d57506117296116ef565b5482105b801561059c5750600160e01b6117416116ef565b60008481526004919091016020526040902054161592915050565b600081806001116117d95761176f6116ef565b548110156117d95760006117816116ef565b600083815260049190910160205260409020549050600160e01b81166117d7575b806117d0576117af6116ef565b600019909201600081815260049390930160205260409092205490506117a2565b9392505050565b505b604051636f96cda160e11b815260040160405180910390fd5b60008060006117ff6116ef565b60009485526006016020525050604090912080549092909150565b4260a01b176001600160a01b03919091161790565b610d67813361274b565b61184382826111fe565b610af55760008281526097602090815260408083206001600160a01b03851684529091529020805460ff1916600117905561187b3390565b6001600160a01b0316816001600160a01b0316837f2f8788117e7eff1d82e926ec794901d17c78024a50270940304540a733656f0d60405160405180910390a45050565b6118c982826111fe565b15610af55760008281526097602090815260408083206001600160a01b0385168085529252808320805460ff1916905551339285917ff6391f5c32d9c69d2a47ea670b442974b53935d1edc7fd64eb21e047a839171b9190a45050565b804710156119765760405162461bcd60e51b815260206004820152601d60248201527f416464726573733a20696e73756666696369656e742062616c616e63650000006044820152606401610ae2565b6000826001600160a01b03168260405160006040518083038185875af1925050503d80600081146119c3576040519150601f19603f3d011682016040523d82523d6000602084013e6119c8565b606091505b5050905080610a715760405162461bcd60e51b815260206004820152603a60248201527f416464726573733a20756e61626c6520746f2073656e642076616c75652c207260448201527f6563697069656e74206d617920686176652072657665727465640000000000006064820152608401610ae2565b6000611a4a8361175c565b905080600080611a59866117f2565b915091508415611a9957611a6e818433610866565b611a9957611a7c833361141e565b611a9957604051632ce44b5f60e11b815260040160405180910390fd5b8015611aa457600082555b6001600160801b03611ab46116ef565b6001600160a01b0385166000908152600591909101602052604090208054919091019055611ae683600360e01b61181a565b611aee6116ef565b60008881526004919091016020526040902055600160e11b8416611b5d5760018601611b186116ef565b60008281526004919091016020526040902054611b5b57611b376116ef565b548114611b5b5784611b476116ef565b600083815260049190910160205260409020555b505b60405186906000906001600160a01b03861690600080516020615678833981519152908390a4611b8b6116ef565b600190810180549091019055505050505050565b6033546001600160a01b03163314610def5760405162461bcd60e51b815260206004820181905260248201527f4f776e61626c653a2063616c6c6572206973206e6f7420746865206f776e65726044820152606401610ae2565b603380546001600160a01b038381166001600160a01b0319831681179093556040519116919082907f8be0079c531659141344cd1fd0a4f28419497f9722a3daafe3b4186f6b6457e090600090a35050565b7fee151c8401928dc223602bb187aff91b9a56c7cae5476ef1b3287b085a16c85f90565b611c77611c4b565b54610100900460ff16611c9c5760405162461bcd60e51b8152600401610ae2906151ef565b610af582826127af565b600054610100900460ff16611ccd5760405162461bcd60e51b8152600401610ae290615243565b610def61282b565b600082815260976020526040808220600101805490849055905190918391839186917fbd79b86ffe0ab8e8776151514217cd7cacd52c909f66475c3af44e129f0b00ff9190a4505050565b611d28614407565b815151611d635760405162461bcd60e51b8152602060048201526009602482015268305f534f555243455360b81b6044820152606401610ae2565b6040518060a001604052806000815260200183604001516001600160401b03811115611d9157611d91614630565b604051908082528060200260200182016040528015611dba578160200160208202803683370190505b508152602001836000015181526020018360200151815260200183606001516001600160401b03811115611df057611df0614630565b604051908082528060200260200182016040528015611e19578160200160208202803683370190505b50905292915050565b600080611e4d83604051602001611e3991906151dc565b60405160208183030381529060405261285b565b90507ff95eed63f55d96a35306669cc3b5f652f8d44552e3e4b17b2f78f13571114abd338285604051611e829392919061528e565b60405180910390a192915050565b8060200151600010611ed05760405162461bcd60e51b8152602060048201526009602482015268305f4d494e494d554d60b81b6044820152606401610ae2565b806040015181602001511115611f1f5760405162461bcd60e51b81526020600482015260146024820152731352539253555357d3d5915497d11154d254915160621b6044820152606401610ae2565b6000611f296128c0565b60c954611f369190614b4a565b90506000611f518284604001516128d390919063ffffffff16565b9050600080611f6086846105a2565b90925090506000611f7183856128d3565b90508560200151811015611fbc5760405162461bcd60e51b8152602060048201526012602482015271494e53554646494349454e545f53544f434b60701b6044820152606401610ae2565b8551821115611ffd5760405162461bcd60e51b815260206004820152600d60248201526c4d4158494d554d5f505249434560981b6044820152606401610ae2565b60006120098284614bac565b60cd549091506001600160a01b031661207857803410156120605760405162461bcd60e51b8152602060048201526011602482015270125394d551919250d251539517d1955391607a1b6044820152606401610ae2565b6120733361206e8334614b4a565b611926565b6120f5565b60cd546040516323b872dd60e01b8152336004820152306024820152604481018390526001600160a01b03909116906323b872dd906064016020604051808303816000875af11580156120cf573d6000803e3d6000fd5b505050506040513d601f19601f820116820180604052508101906120f39190614c16565b505b60cb80548201905561210788836128e9565b7f1cbc5ab135991bd2b6a4b034a04aa2aa086dac1371cb9b16b8b5e2ed6b036bed88838360405161213a93929190614bf5565b60405180910390a15050505050505050565b604051630a85bd0160e11b81526000906001600160a01b0385169063150b7a02906121819033908990889088906004016152ba565b6020604051808303816000875af19250505080156121bc575060408051601f3d908101601f191682019092526121b9918101906152ed565b60015b612217573d8080156121ea576040519150601f19603f3d011682016040523d82523d6000602084013e6121ef565b606091505b50805161220f576040516368d2bf6b60e11b815260040160405180910390fd5b805181602001fd5b6001600160e01b031916630a85bd0160e11b1490505b949350505050565b6060816122595750506040805180820190915260018152600360fc1b602082015290565b8160005b8115612283578061226d8161530a565b915061227c9050600a83614be1565b915061225d565b6000816001600160401b0381111561229d5761229d614630565b6040519080825280601f01601f1916602001820160405280156122c7576020820181803683370190505b5090505b841561222d576122dc600183614b4a565b91506122e9600a86615325565b6122f4906030615339565b60f81b81838151811061230957612309614b61565b60200101906001600160f81b031916908160001a90535061232b600a86614be1565b94506122cb565b606061059c8260016000196129fa565b8151600019600583901c918290030183526007821690610100600384811c1681901c9190829003906001016000816001600160401b0381111561238757612387614630565b6040519080825280602002602001820160405280156123b0578160200160208202803683370190505b50905060005b8281101561240757876020015181896000015101815181106123da576123da614b61565b60200260200101518282815181106123f4576123f4614b61565b60209081029190910101526001016123b6565b5060005b61010081101561247e5760005b8381101561246b578482860384838151811061243657612436614b61565b6020026020010151901b901c8960800151828151811061245857612458614b61565b6020908102919091010152600101612418565b5061247789898861152a565b840161240b565b505050505050505050565b610d678160405160240161249d9190614527565b60408051601f198184030181529190526020810180516001600160e01b03166305f3bfab60e11b179052612aab565b7f000000000000000000000000000000000000000000000000000000000000000082101561250757612502836005840383612acc565b611399565b6000808580602001905181019061251e9190615351565b915091507f000000000000000000000000000000000000000000000000000000000000000084039350600984106125675760405162461bcd60e51b8152600401610ae290615375565b600284141561259b5760cb54602086015186518151811061258a5761258a614b61565b60200260200101818152505061273c565b60018414156125be5760ca54602086015186518151811061258a5761258a614b61565b836125dd5760c954602086015186518151811061258a5761258a614b61565b60038414156126015781856020015186600001518151811061258a5761258a614b61565b60048414156126255780856020015186600001518151811061258a5761258a614b61565b600584141561264d576126366107ec565b602086015186518151811061258a5761258a614b61565b600684141561265e576126366128c0565b60078414156126cf576000856020015160018760000151038151811061268657612686614b61565b6020026020010151905061269981612b7e565b86602001516001886000015103815181106126b6576126b6614b61565b602090810291909101015250845160001901855261273c565b600884141561273c57600085602001516001876000015103815181106126f7576126f7614b61565b6020026020010151905061270a81612bc3565b866020015160018860000151038151811061272757612727614b61565b60209081029190910101525084516000190185525b50508251600101835250505050565b61275582826111fe565b610af55761276d816001600160a01b03166014612bd7565b612778836020612bd7565b604051602001612789929190615399565b60408051601f198184030181529082905262461bcd60e51b8252610ae291600401614527565b6127b7611c4b565b54610100900460ff166127dc5760405162461bcd60e51b8152600401610ae2906151ef565b816127e56116ef565b60020190805190602001906127fb929190614383565b50806128056116ef565b600301908051906020019061281b929190614383565b5060016128266116ef565b555050565b600054610100900460ff166128525760405162461bcd60e51b8152600401610ae290615243565b610def33611bf9565b600080612886836040516020016128729190615408565b604051602081830303815290604052612d72565b90508051602082016000f091506001600160a01b0382166128ba5760405163046a55db60e11b815260040160405180910390fd5b50919050565b600060016128cc6116ef565b5403919050565b60008183106128e257816117d0565b5090919050565b60006128f36116ef565b549050816129145760405163b562e8dd60e01b815260040160405180910390fd5b6801000000000000000182026129286116ef565b6001600160a01b038516600090815260059190910160205260409020805491909101905561295c836001841460e11b61181a565b6129646116ef565b600083815260049190910160205260408120919091556001600160a01b0384169083830190839083906000805160206156788339815191528180a4600183015b8181146129ca5780836000600080516020615678833981519152600080a46001016129a4565b50816129e857604051622e076360e81b815260040160405180910390fd5b806129f16116ef565b5550610a719050565b6060833b80612a195750506040805160208101909152600081526117d0565b80841115612a375750506040805160208101909152600081526117d0565b83831015612a695760405163162544fd60e11b8152600481018290526024810185905260448101849052606401610ae2565b8383038482036000828210612a7e5782612a80565b815b60408051603f8301601f19168101909152818152955090508087602087018a3c505050509392505050565b80516a636f6e736f6c652e6c6f67602083016000808483855afa5050505050565b6004821015612ae057610a71838383612d88565b601d821015612b2757600b821015612b0057610a71836004840383612e54565b6016821015612b1857610a7183600a198401836130de565b610a71836015198401836134d3565b6023821015612b3f57610a7183601c1984018361369e565b6025821015612b5757610a7183602219840183613a4a565b6027821015612b6f57610a7183602419840183613b99565b610a7183602619840183613ce6565b60006001600160401b036040612b926116ef565b6005016000856001600160a01b03166001600160a01b0316815260200190815260200160002054901c169050919050565b60006001600160401b036080612b926116ef565b60606000612be6836002614bac565b612bf1906002615339565b6001600160401b03811115612c0857612c08614630565b6040519080825280601f01601f191660200182016040528015612c32576020820181803683370190505b509050600360fc1b81600081518110612c4d57612c4d614b61565b60200101906001600160f81b031916908160001a905350600f60fb1b81600181518110612c7c57612c7c614b61565b60200101906001600160f81b031916908160001a9053506000612ca0846002614bac565b612cab906001615339565b90505b6001811115612d23576f181899199a1a9b1b9c1cb0b131b232b360811b85600f1660108110612cdf57612cdf614b61565b1a60f81b828281518110612cf557612cf5614b61565b60200101906001600160f81b031916908160001a90535060049490941c93612d1c8161542e565b9050612cae565b5083156117d05760405162461bcd60e51b815260206004820181905260248201527f537472696e67733a20686578206c656e67746820696e73756666696369656e746044820152606401610ae2565b60608151826040516020016113e3929190615445565b60048210612da85760405162461bcd60e51b8152600401610ae290615375565b81612dd957438360200151846000015181518110612dc857612dc8614b61565b602002602001018181525050612e49565b6001821415612dfd57428360200151846000015181518110612dc857612dc8614b61565b6002821415612e2157602083015183518151339291908110612dc857612dc8614b61565b602083015183518151309291908110612e3c57612e3c614b61565b6020026020010181815250505b505080516001019052565b60078210612e745760405162461bcd60e51b8152600401610ae290615375565b6002821015612f845782516001190182612f015783602001518160010181518110612ea157612ea1614b61565b6020026020010151612ed98386602001518481518110612ec357612ec3614b61565b6020026020010151613fed90919063ffffffff16565b0284602001518281518110612ef057612ef0614b61565b602002602001018181525050612f76565b6001831415612f765783602001518160010181518110612f2357612f23614b61565b6020026020010151612f458386602001518481518110612ec357612ec3614b61565b81612f5257612f52614bcb565b0484602001518281518110612f6957612f69614b61565b6020026020010181815250505b508251600019018352505050565b6005821015613077578251600019016002831415612fdd57612fb68285602001518381518110612ec357612ec3614b61565b84602001518281518110612fcc57612fcc614b61565b602002602001018181525050611399565b600383141561301657612fb6828560200151838151811061300057613000614b61565b602002602001015161405090919063ffffffff16565b60048314156113995761304f828560200151838151811061303957613039614b61565b602002602001015161409090919063ffffffff16565b8460200151828151811061306557613065614b61565b60200260200101818152505050505050565b60058214156130b957670de0b6b3a764000083602001518460000151815181106130a3576130a3614b61565b6020908102919091010152505080516001019052565b6006821415610a715760128360200151846000015181518110612e3c57612e3c614b61565b600b82106130fe5760405162461bcd60e51b8152600401610ae290615375565b8251602084015180518383039260001901918391600091908390811061312657613126614b61565b60200260200101519050600086141561317e575b8282101561317957602087015180516001909301928390811061315f5761315f614b61565b6020026020010151816131729190615339565b905061313a565b6134a4565b60018614156131dc575b8282108015613198575060001981105b156131795781806001019250506131d5876020015183815181106131be576131be614b61565b6020026020010151826140db90919063ffffffff16565b9050613188565b6002861415613225575b8282101561317957602087015180516001909301928390811061320b5761320b614b61565b60200260200101518161321e9190614b4a565b90506131e6565b6003861415613282575b828210801561323e5750806000105b1561317957818060010192505061327b8760200151838151811061326457613264614b61565b6020026020010151826140f890919063ffffffff16565b905061322f565b60048614156132cb575b828210156131795760208701518051600190930192839081106132b1576132b1614b61565b6020026020010151816132c49190614bac565b905061328c565b6005861415613329575b82821080156132e5575060001981105b156131795781806001019250506133228760200151838151811061330b5761330b614b61565b60200260200101518261410e90919063ffffffff16565b90506132d5565b6006861415613372575b8282101561317957602087015180516001909301928390811061335857613358614b61565b60200260200101518161336b9190614be1565b9050613333565b60078614156133bb575b828210156131795760208701518051600190930192839081106133a1576133a1614b61565b6020026020010151816133b49190615325565b905061337c565b6008861415613404575b828210156131795760208701518051600190930192839081106133ea576133ea614b61565b6020026020010151816133fd919061557a565b90506133c5565b60098614156134565760005b8383101561345057602088015180516001909401938490811061343557613435614b61565b602002602001015190508181101561344b578091505b613410565b506134a4565b600a8614156134a45760005b838310156134a257602088015180516001909401938490811061348757613487614b61565b602002602001015190508181111561349d578091505b613462565b505b80876020015185815181106134bb576134bb614b61565b60209081029190910101525050506001019092525050565b600782106134f35760405162461bcd60e51b8152600401610ae290615375565b8251602080850151818302010183801561353c5760018114613555576002811461359257600381146135ba57600481146135e2576005811461360a5760068114613651576109e4565b8261354657600080fd5b601f19820180511590526109e4565b600383101561356357600080fd5b60011983018652605f19820180518015613583576020820151825261358b565b604082015182525b50506109e4565b60028310156135a057600080fd5b6001830386526040820360208101518151148152506109e4565b60028310156135c857600080fd5b6001830386526040820360208101518151108152506109e4565b60028310156135f057600080fd5b6001830386526040820360208101518151118152506109e4565b8383101561361757600080fd5b831561364c576001840383038652602084028203805b8381101561358b578051613644576000825261358b565b60200161362d565b6109e4565b8383101561365e57600080fd5b83156109e4576001840383038652602084028203805b83811015613694578051801561368b578252613694565b50602001613674565b5050505050505050565b600682106136be5760405162461bcd60e51b8152600401610ae290615375565b60008261378157508251600019810184526020840151805160011990920191829081106136ed576136ed614b61565b60200260200101516001600160a01b031663e053ea318560200151836001018151811061371c5761371c614b61565b60200260200101516040518263ffffffff1660e01b81526004016137409190614553565b602060405180830381865afa15801561375d573d6000803e3d6000fd5b505050506040513d601f19601f82011682018060405250810190612fb69190615586565b60018314156137be5760001984602001518560000151815181106137a7576137a7614b61565b602090810291909101015283516001018452611399565b60028314156137e357600084602001518560000151815181106137a7576137a7614b61565b6003831415613879575082516001190180845260208401518051600091908390811061381157613811614b61565b6020026020010151905060008560200151836001018151811061383657613836614b61565b6020026020010151905061384a828261413d565b8660200151848151811061386057613860614b61565b6020908102919091010152505083516001018452611399565b6004831415613923575082516001190180845260208401518051600f80851692600486901c9091169160009190859081106138b6576138b6614b61565b602002602001015190506000876020015185600101815181106138db576138db614b61565b602002602001015190506138f18285858461419c565b8860200151868151811061390757613907614b61565b6020908102919091010152505085516001018652506113999050565b600583141561139957508251600019601f8316918290030180855290600783901c906003600585901c1690836000826001600160401b0381111561396957613969614630565b604051908082528060200260200182016040528015613992578160200160208202803683370190505b50905060005b838110156139e757896020015183815181106139b6576139b6614b61565b60200260200101518282815181106139d0576139d0614b61565b602090810291909101015260019283019201613998565b50600089602001518381518110613a0057613a00614b61565b60200260200101519050613a16828288886141f8565b8a602001518881518110613a2c57613a2c614b61565b60209081029190910101525050875160010188525050505050505050565b60028210613a6a5760405162461bcd60e51b8152600401610ae290615375565b81613b2b57825160001981018452602084015180516001199092019182908110613a9657613a96614b61565b60200260200101516001600160a01b03166370a082318560200151866000015181518110613ac657613ac6614b61565b60200260200101516040518263ffffffff1660e01b8152600401613aea9190614553565b602060405180830381865afa158015613b07573d6000803e3d6000fd5b505050506040513d601f19601f8201168201806040525081019061304f9190615586565b6001821415610a71578251602084015180516000199092019182908110613b5457613b54614b61565b60200260200101516001600160a01b03166318160ddd6040518163ffffffff1660e01b8152600401602060405180830381865afa158015613b07573d6000803e3d6000fd5b60028210613bb95760405162461bcd60e51b8152600401610ae290615375565b8251600019810184526001190182613c115783602001518181518110613be157613be1614b61565b60200260200101516001600160a01b03166370a08231856020015186600001518151811061371c5761371c614b61565b60018314156113995783602001518181518110613c3057613c30614b61565b60200260200101516001600160a01b0316636352211e8560200151866000015181518110613c6057613c60614b61565b60200260200101516040518263ffffffff1660e01b8152600401613c8691815260200190565b602060405180830381865afa158015613ca3573d6000803e3d6000fd5b505050506040513d601f19601f82011682018060405250810190613cc7919061559f565b6001600160a01b03168460200151828151811061306557613065614b61565b60028210613d065760405162461bcd60e51b8152600401610ae290615375565b81613da657825160011981018452602084015180516002199092019182908110613d3257613d32614b61565b60200260200101516001600160a01b031662fdd58e85602001518360010181518110613d6057613d60614b61565b602002602001015186602001518460020181518110613d8157613d81614b61565b60200260200101516040518363ffffffff1660e01b8152600401613aea9291906145ca565b6001821415610a7157600181016000816001600160401b03811115613dcd57613dcd614630565b604051908082528060200260200182016040528015613df6578160200160208202803683370190505b5090506000826001600160401b03811115613e1357613e13614630565b604051908082528060200260200182016040528015613e3c578160200160208202803683370190505b5086518490036000198181018952602089015180519394509186900301916000919083908110613e6e57613e6e614b61565b6020026020010151905060005b85811015613f1857886020015181840160010181518110613e9e57613e9e614b61565b6020026020010151858281518110613eb857613eb8614b61565b6001600160a01b0390921660209283029190910182015289015180516001858901840101908110613eeb57613eeb614b61565b6020026020010151848281518110613f0557613f05614b61565b6020908102919091010152600101613e7b565b506040516313849cfd60e21b81526000906001600160a01b03831690634e1273f490613f4a90889088906004016155bc565b600060405180830381865afa158015613f67573d6000803e3d6000fd5b505050506040513d6000823e601f3d908101601f19168201604052613f8f9190810190615612565b905060005b86811015613fe157818181518110613fae57613fae614b61565b60200260200101518a6020015182860181518110613fce57613fce614b61565b6020908102919091010152600101613f94565b50505050505050505050565b6000808260121415614002578391505061059c565b826012111561402e5750601282900361401c81600a61557a565b6140269085614bac565b91505061059c565b50601119820161403f81600a61557a565b6140269085614be1565b5092915050565b6000806012831415614065578391505061059c565b826012111561407f5750601282900361403f81600a61557a565b50601119820161401c81600a61557a565b600081810b6140a057508161059c565b60008260000b13156140c8576140b782600a615646565b6140c19084614bac565b905061059c565b60ff60008390031661403f81600a61557a565b60008282018381106140ed578061222d565b600019949350505050565b60008183116141085760006117d0565b50900390565b60008261411d5750600061059c565b8282028284828161413057614130614bcb565b0414156140ed578061222d565b60008060015b6008811161419457600061415786836142ee565b9050600061416586846142ee565b9050600061417383836140f8565b9050614183856001860383614333565b945050600190920191506141439050565b509392505050565b60008260088111156141c05760405162461bcd60e51b8152600401610ae290615655565b6000855b858110156141ec5763ffffffff6020820290811b199890981685891b179791506001016141c4565b50959695505050505050565b835160009081908190819060015b600881116142e0576000925082876142215750600019614225565b5060005b60005b838110156142bc576142538c828151811061424557614245614b61565b6020026020010151846142ee565b95508a86116142a557886142725761426b86836128d3565b915061429c565b60018914156142855761426b8683614373565b600289148015614293575084155b1561429c578591505b600194506142b4565b896142b45760001991506142bc565b600101614228565b50836142c757506000195b6142d5866001840383614333565b955050600101614206565b509298975050505050505050565b60008160088111156143125760405162461bcd60e51b8152600401610ae290615655565b826143205760009150614049565b5050600019016020021c63ffffffff1690565b60008260088111156143575760405162461bcd60e51b8152600401610ae290615655565b505060209190910290811b63ffffffff90911b19919091161790565b6000818310156128e257816117d0565b82805461438f90614b77565b90600052602060002090601f0160209004810192826143b157600085556143f7565b82601f106143ca57805160ff19168380011785556143f7565b828001600101855582156143f7579182015b828111156143f75782518255916020019190600101906143dc565b50614403929150614436565b5090565b6040518060a0016040528060008152602001606081526020016060815260200160608152602001606081525090565b5b808211156144035760008155600101614437565b6001600160e01b031981168114610d6757600080fd5b60006020828403121561447357600080fd5b81356117d08161444b565b6001600160a01b0381168114610d6757600080fd5b803561449e8161447e565b919050565b600080604083850312156144b657600080fd5b82356144c18161447e565b946020939093013593505050565b60005b838110156144ea5781810151838201526020016144d2565b838111156113995750506000910152565b600081518084526145138160208601602086016144cf565b601f01601f19169290920160200192915050565b6020815260006117d060208301846144fb565b60006020828403121561454c57600080fd5b5035919050565b6001600160a01b0391909116815260200190565b60008060006060848603121561457c57600080fd5b83356145878161447e565b925060208401356145978161447e565b929592945050506040919091013590565b600080604083850312156145bb57600080fd5b50508035926020909101359150565b6001600160a01b03929092168252602082015260400190565b600080604083850312156145f657600080fd5b8235915060208301356146088161447e565b809150509250929050565b60006020828403121561462557600080fd5b81356117d08161447e565b634e487b7160e01b600052604160045260246000fd5b604051608081016001600160401b038111828210171561466857614668614630565b60405290565b60405161014081016001600160401b038111828210171561466857614668614630565b60405160a081016001600160401b038111828210171561466857614668614630565b604051601f8201601f191681016001600160401b03811182821017156146db576146db614630565b604052919050565b60006001600160401b038211156146fc576146fc614630565b50601f01601f191660200190565b600082601f83011261471b57600080fd5b813561472e614729826146e3565b6146b3565b81815284602083860101111561474357600080fd5b816020850160208301376000918101602001919091529392505050565b60006001600160401b0382111561477957614779614630565b5060051b60200190565b600082601f83011261479457600080fd5b813560206147a461472983614760565b82815260059290921b840181019181810190868411156147c357600080fd5b8286015b848110156147de57803583529183019183016147c7565b509695505050505050565b6000608082840312156147fb57600080fd5b614803614646565b905081356001600160401b038082111561481c57600080fd5b818401915084601f83011261483057600080fd5b8135602061484061472983614760565b82815260059290921b8401810191818101908884111561485f57600080fd5b8286015b848110156148975780358681111561487b5760008081fd5b6148898b86838b010161470a565b845250918301918301614863565b50865250858101359350828411156148ae57600080fd5b6148ba87858801614783565b8186015250505050604082013560408201526060820135606082015292915050565b6000602082840312156148ee57600080fd5b81356001600160401b038082111561490557600080fd5b90830190610140828603121561491a57600080fd5b61492261466e565b82358281111561493157600080fd5b61493d8782860161470a565b82525060208301358281111561495257600080fd5b61495e8782860161470a565b60208301525060408301358281111561497657600080fd5b6149828782860161470a565b6040830152506060830135606082015261499e60808401614493565b60808201526149af60a08401614493565b60a08201526149c060c08401614493565b60c082015260e083013560e08201526101006149dd818501614493565b9082015261012083810135838111156149f557600080fd5b614a01888287016147e9565b918301919091525095945050505050565b60008060008060808587031215614a2857600080fd5b8435614a338161447e565b966020860135965060408601359560600135945092505050565b8015158114610d6757600080fd5b60008060408385031215614a6e57600080fd5b8235614a798161447e565b9150602083013561460881614a4d565b6000606082840312156128ba57600080fd5b60008060008060808587031215614ab157600080fd5b8435614abc8161447e565b93506020850135614acc8161447e565b92506040850135915060608501356001600160401b03811115614aee57600080fd5b614afa8782880161470a565b91505092959194509250565b60008060408385031215614b1957600080fd5b8235614b248161447e565b915060208301356146088161447e565b634e487b7160e01b600052601160045260246000fd5b600082821015614b5c57614b5c614b34565b500390565b634e487b7160e01b600052603260045260246000fd5b600181811c90821680614b8b57607f821691505b602082108114156128ba57634e487b7160e01b600052602260045260246000fd5b6000816000190483118215151615614bc657614bc6614b34565b500290565b634e487b7160e01b600052601260045260246000fd5b600082614bf057614bf0614bcb565b500490565b6001600160a01b039390931683526020830191909152604082015260600190565b600060208284031215614c2857600080fd5b81516117d081614a4d565b600081518084526020808501808196508360051b8101915082860160005b85811015614c7b578284038952614c698483516144fb565b98850198935090840190600101614c51565b5091979650505050505050565b600081518084526020808501945080840160005b83811015614cb857815187529582019590820190600101614c9c565b509495945050505050565b6000815160808452614cd86080850182614c33565b905060208301518482036020860152614cf18282614c88565b91505060408301516040850152606083015160608501528091505092915050565b6020815260008251610140806020850152614d316101608501836144fb565b91506020850151601f1980868503016040870152614d4f84836144fb565b93506040870151915080868503016060870152614d6c84836144fb565b93506060870151608087015260808701519150614d9460a08701836001600160a01b03169052565b60a08701516001600160a01b03811660c0880152915060c08701516001600160a01b03811660e0880152915060e0870151610100878101919091528701519150610120614deb818801846001600160a01b03169052565b870151868503909101838701529050614e048382614cc3565b9695505050505050565b600060608284031215614e2057600080fd5b604051606081018181106001600160401b0382111715614e4257614e42614630565b80604052508235815260208301356020820152604083013560408201528091505092915050565b60008151614e7b8185602086016144cf565b9290920192915050565b600080845481600182811c915080831680614ea157607f831692505b6020808410821415614ec157634e487b7160e01b86526022600452602486fd5b818015614ed55760018114614ee657614f13565b60ff19861689528489019650614f13565b60008b81526020902060005b86811015614f0b5781548b820152908501908301614ef2565b505084890196505b505050505050614f47614f36614f3083602f60f81b815260010190565b86614e69565b64173539b7b760d91b815260050190565b95945050505050565b600082601f830112614f6157600080fd5b81516020614f7161472983614760565b82815260059290921b84018101918181019086841115614f9057600080fd5b8286015b848110156147de5780518352918301918301614f94565b600082601f830112614fbc57600080fd5b81516020614fcc61472983614760565b82815260059290921b84018101918181019086841115614feb57600080fd5b8286015b848110156147de5780516001600160401b0381111561500e5760008081fd5b8701603f810189136150205760008081fd5b848101516040615032614729836146e3565b8281528b828486010111156150475760008081fd5b615056838983018487016144cf565b8652505050918301918301614fef565b60006020828403121561507857600080fd5b81516001600160401b038082111561508f57600080fd5b9083019060a082860312156150a357600080fd5b6150ab614691565b825181526020830151828111156150c157600080fd5b6150cd87828601614f50565b6020830152506040830151828111156150e557600080fd5b6150f187828601614fab565b60408301525060608301518281111561510957600080fd5b61511587828601614f50565b60608301525060808301518281111561512d57600080fd5b61513987828601614f50565b60808301525095945050505050565b6020808252600e908201526d535441434b5f4f564552464c4f5760901b604082015260600190565b805182526000602082015160a0602085015261518f60a0850182614c88565b9050604083015184820360408601526151a88282614c33565b915050606083015184820360608601526151c28282614c88565b91505060808301518482036080860152614f478282614c88565b6020815260006117d06020830184615170565b60208082526034908201527f455243373231415f5f496e697469616c697a61626c653a20636f6e7472616374604082015273206973206e6f7420696e697469616c697a696e6760601b606082015260800190565b6020808252602b908201527f496e697469616c697a61626c653a20636f6e7472616374206973206e6f74206960408201526a6e697469616c697a696e6760a81b606082015260800190565b6001600160a01b03848116825283166020820152606060408201819052600090614f4790830184615170565b6001600160a01b0385811682528416602082015260408101839052608060608201819052600090614e04908301846144fb565b6000602082840312156152ff57600080fd5b81516117d08161444b565b600060001982141561531e5761531e614b34565b5060010190565b60008261533457615334614bcb565b500690565b6000821982111561534c5761534c614b34565b500190565b6000806040838503121561536457600080fd5b505080516020909101519092909150565b6020808252600a90820152694d41585f4f50434f444560b01b604082015260600190565b76020b1b1b2b9b9a1b7b73a3937b61d1030b1b1b7bab73a1604d1b8152600083516153cb8160178501602088016144cf565b7001034b99036b4b9b9b4b733903937b6329607d1b60179184019182015283516153fc8160288401602088016144cf565b01602801949350505050565b60008152600082516154218160018501602087016144cf565b9190910160010192915050565b60008161543d5761543d614b34565b506000190190565b606360f81b815260e083901b6001600160e01b03191660018201526880600e6000396000f360b81b6005820152815160009061548881600e8501602087016144cf565b91909101600e019392505050565b600181815b808511156154d15781600019048211156154b7576154b7614b34565b808516156154c457918102915b93841c939080029061549b565b509250929050565b6000826154e85750600161059c565b816154f55750600061059c565b816001811461550b576002811461551557615531565b600191505061059c565b60ff84111561552657615526614b34565b50506001821b61059c565b5060208310610133831016604e8410600b8410161715615554575081810a61059c565b61555e8383615496565b806000190482111561557257615572614b34565b029392505050565b60006117d083836154d9565b60006020828403121561559857600080fd5b5051919050565b6000602082840312156155b157600080fd5b81516117d08161447e565b604080825283519082018190526000906020906060840190828701845b828110156155fe5781516001600160a01b0316845292840192908401906001016155d9565b50505083810382850152614e048186614c88565b60006020828403121561562457600080fd5b81516001600160401b0381111561563a57600080fd5b61222d84828501614f50565b60006117d060ff8416836154d9565b60208082526008908201526726a0ac2faa24a2a960c11b60408201526060019056feddf252ad1be2c89b69c2b068fc378daa952ba7f163c4a11628f55a4df523b3efa26469706673582212202d1769c11c9feb9ea9888c6597530a723324be28c406e2005428b87f868bdb2564736f6c634300080a0033",
  "linkReferences": {},
  "deployedLinkReferences": {}
}